:020000040800F2
:1000000000500020E1270008DD270008DD27000858
:10001000DD270008DD270008DD27000800000000BC
:10002000000000000000000000000000DD270008C4
:10003000DD27000800000000DD270008DD2700089C
:10004000DD270008DD270008DD270008DD27000880
:10005000DD270008DD270008DD270008DD27000870
:10006000DD27000849280008DD270008DD270008F3
:10007000DD270008DD270008DD270008DD27000850
:10008000DD270008DD270008DD270008DD27000840
:1000900099240008DD270008DD270008DD27000877
:1000A000DD270008DD270008DD270008DD27000820
:1000B000DD270008DD270008DD270008DD27000810
:1000C000DD270008DD270008DD270008DD27000800
:1000D000DD270008DD270008DD270008DD270008F0
:1000E000DD270008DD270008DD27000800000000EC
:1000F0000000000000000000000000000000000000
:1001000000000000000000005FF808F110B5054C89
:10011000237833B9044B13B10448AFF300800123B3
:10012000237010BD7001002000000000CCA8000862
:100130000C4B43B10C4810B50C49AFF300800C4890
:10014000036823B910BD0A48036833B97047094BE7
:10015000002BF7D0BDE810401847064B002BF5D018
:10016000184700BF00000000CCA800087401002060
:100170006801002000000000154B002B08BF134B46
:100180009D46A3F5803A00218B460F461348144A3A
:10019000121A07F049F80F4B002B00D098470E4B6E
:1001A000002B00D098470020002104000D000D48CE
:1001B000002802D00C48AFF3008007F001F82000BF
:1001C000290002F05FFD06F0E7FF00BF0000080015
:1001D000000000000000000000000000700100208E
:1001E000600F0020000000000000000008B5264B52
:1001F000984209D10121042000F072FA0021042064
:10020000BDE8084000F06CBA204B984206D10121AD
:10021000082000F065FA00210820F1E71C4B984205
:1002200006D10121102000F05BFA00211020E7E741
:10023000184B984206D10121202000F051FA0021EC
:100240002020DDE7144B984206D10121402000F028
:1002500047FA00214020D3E7104B984206D10121F4
:10026000802000F03DFA00218020C9E70C4B984225
:1002700008D101214FF4807000F032FA00214FF4D0
:100280008070BDE708BD00BF00080140000C0140C0
:10029000001001400014014000180140001C014002
:1002A00000200140012108B5084600F019FABDE818
:1002B00008400021012000F013BACB782DE9F0416D
:1002C000DA0648BF8A780E8803F00F0548BF154349
:1002D00016F0FF0F1AD000214FF0010E4FF00F0C57
:1002E00002680EFA01F737EA06040BD18C000CFA0B
:1002F00004F822EA080205FA04F4282B42EA040270
:1003000025D1476101310829EBD10260FF2E1CD9AC
:1003100000214FF0010E4FF00F0C426801F108046C
:100320000EFA04F434EA06070BD18F000CFA07F832
:1003300022EA080205FA07F7282B42EA07020AD147
:10034000446101310829E9D14260BDE8F081482BC0
:1003500008BF0761D6E7482B08BF0461F1E74FF6F5
:10036000FF730380022383700423C3707047836884
:10037000194214BF012000207047806880B2704786
:10038000C368194214BF012000207047C06880B2C2
:10039000704701617047416170470AB10161704760
:1003A00041617047C160704741F48033836181616E
:1003B0008361836983697047054A136823F07F036B
:1003C0001B041B0C194341EA00111160704700BF68
:1003D00000000140014B1860704700BF1C00204224
:1003E0000028164A30B500F44015B4BFD3695368ED
:1003F000B5F5401F84B210D1556823F0706325F025
:100400007065556019B1420D1201944023430B4AA7
:100410000028B4BFD361536030BDC2024DBF032278
:10042000420D1201C0F303454CBFAA4004FA02F288
:1004300023EA020343F07063E4E700BF00000140D9
:1004400010B50F2401F0030301F0FC0101F180411C
:1004500001F580318A689B009C4022EA04028A6090
:100460008A6898401043886010BD0000014B1860F6
:10047000704700BFDC0020420D4B1A6842F00102B9
:100480001A6059680B4A0A405A601A6822F084724E
:1004900022F480321A601A6822F480221A605A68A4
:1004A00022F4FE025A604FF41F029A60704700BFA8
:1004B000001002400000FFF80C4BB0F5803F1A68B6
:1004C00022F480321A601A6822F480221A6003D063
:1004D000B0F5802F05D070471A6842F480321A6058
:1004E00070471A6842F4A022F9E700BF00100240EA
:1004F000034A136823F0F80343EAC0001060704712
:1005000000100240014B1860704700BF00004242DB
:10051000034A536823F47C13194301435160704725
:1005200000100240014B1860704700BF600042425B
:10053000034A536823F0030318435060704700BF19
:1005400000100240024B586800F00C00704700BFDA
:1005500000100240034A536823F0F0031843506030
:10056000704700BF00100240034A536823F4E06361
:1005700018435060704700BF00100240034A5368A0
:1005800023F4605343EAC0005060704700100240FB
:10059000044B1A7811B110431870704722EA00001A
:1005A000FAE700BF09100240014B1860704700BF16
:1005B000D8004242034A536823F440431843506032
:1005C000704700BF001002400022064B01281A703D
:1005D0001A7002D0042802D07047187070470522A4
:1005E0001A70704720100240014B1860704700BF1E
:1005F00080044242024A136A18431062704700BFE7
:1006000000100240014B1860704700BF3C0442429A
:100610001C4A10B5536803F00C03042B01D0082BBF
:100620001FD0194B03605368184CC3F30313E15CEC
:100630000368CB4043605168C1F30221615C23FA37
:1006400001F181605168C1F3C221615CCB40C3609C
:1006500052680F49C2F381328A5CB3FBF2F3036143
:1006600010BD53685168C3F38343CC0303F1020305
:1006700002D408494B43D5E751688903F9D40249AC
:10068000F8E700BF0010024000127A0008000020C6
:100690000400002000093D00044B5A6911B11043C9
:1006A0005861704722EA0000FAE700BF00100240DC
:1006B000044B9A6911B110439861704722EA000017
:1006C000FAE700BF00100240044BDA6911B1104391
:1006D000D861704722EA0000FAE700BF001002402C
:1006E000044BDA6811B11043D860704722EA000069
:1006F000FAE700BF00100240044B1A6911B1104321
:100700001861704722EA0000FAE700BF00100240BB
:10071000014B1860704700BF40044242014B186013
:10072000704700BF4C004242014B1870704700BF39
:10073000071002404209012A074B07D11B6800F04D
:100740001F0023FA00F000F001007047022A0CBFDE
:100750001B6A5B6AF3E700BF00100240002307B585
:1007600001933120FFF7E6FF019B01330193019BC9
:10077000B3F5A06F01D00028F3D03120FFF7DAFFE6
:10078000003018BF012003B05DF804FB024A536A31
:1007900043F080735362704700100240034B9B6824
:1007A000184214BF01200020704700BF0010024013
:1007B000014B1870704700BF0A100240014B1860CF
:1007C000704700BF00300040014B5860704700BFC9
:1007D00000300040014B9860704700BF003000407F
:1007E0004AF6AA22014B1A60704700BF0030004051
:1007F0004CF6CC42014B1A60704700BF00300040FD
:10080000034BDB68184214BF01200020704700BF73
:10081000003000400022044B1A605A609A60DA608F
:10082000024A5A61704700BF00040140FFFF0F00F9
:10083000827930B50168037942B3CC43184A03F199
:100840008043156803F582332540156055682C40B8
:1008500054601C682143196003689468D9430C40B4
:100860009460D4682140D1604179102906D1916803
:1008700019439160D1680B43D36030BD01F18042D0
:1008800002F5823211680B43136030BD03F18043DF
:1008900003F582331A6822EA0101196030BD00BFF6
:1008A0000004014000230C22036003714271837134
:1008B00070470000024A136918431061704700BF77
:1008C00000040140034B5B69034214BF0120002078
:1008D000704700BF00040140014B5861704700BFE2
:1008E00000040140054B1A685B69034004D00242D2
:1008F00014BF0120002070471846704700040140D3
:10090000014B5861704700BF0004014008B5214BFE
:1009100098420BD101214FF48040FFF7E1FEBDE882
:10092000084000214FF48040FFF7DABE1A4B98428E
:100930000BD101214FF40030FFF7DEFE00214FF410
:100940000030BDE80840FFF7D7BE144B984208D1ED
:1009500001214FF48020FFF7CFFE00214FF48020CB
:10096000EFE70F4B984208D101214FF40020FFF729
:10097000C3FE00214FF40020E3E70A4B984208D160
:1009800001214FF48010FFF7B7FE00214FF48010D3
:10099000D7E708BD0038014000440040004800404F
:1009A000004C00400050004030B50D460446038A1C
:1009B0008A899BB2C98823F440530B4303828389FD
:1009C000A98823F4B05323F00C031B041B0C0B4326
:1009D000298987B00B4369890B439BB28381838A42
:1009E0009BB223F440731343838201A8FFF710FEE8
:1009F000174A039B0499944218BF19461922A389E8
:100A00004A4313F4004F2B684FF0640514BF5B009A
:100A10009B00B2FBF3F1B1FBF5F3A28918011204BC
:100A200005FB13130BD5DA003232B2FBF5F202F0FC
:100A3000070242EA00039BB2238107B030BD1B01CD
:100A40003233B3FBF5F303F00F030343F3E700BFC7
:100A5000003801404FF416530C22036000234281FA
:100A60008380C3800381838170470B8810B54C88D5
:100A7000028A23438C88C98892B223430B4322F411
:100A8000706213439BB2038210BD00230380438036
:100A90008380C3807047838921B19BB243F40053A4
:100AA0008381704723F400531B041B0CF8E701F00B
:100AB0001F0310B5C1F342140121012C01FA03F107
:100AC00005D10C3003683AB11943016010BD022C06
:100AD0000CBF10301430F5E723EA0101F5E7838AF3
:100AE0009BB212B119438182704723EA0101FAE7F0
:100AF000038A23F00F031B041B0C0382038A9BB29F
:100B0000194301827047838923F400631B041B0C83
:100B1000838183899BB2194381817047838921B185
:100B20009BB243F002038381704723F002031B044E
:100B30001B0CF8E7038A23F020031B041B0C038221
:100B4000038A9BB2194301827047038A21B19BB289
:100B500043F480430382704723F480431B041B0C3F
:100B6000F8E7C1F30801818070478088C0F308006E
:100B7000704783899BB243F0010383817047038BE5
:100B8000DBB20383038B9BB243EA012101837047ED
:100B9000038B03F47F430383038B9BB219430183CD
:100BA0007047838A21B19BB243F020038382704750
:100BB00023F020031B041B0CF8E7838A21B19BB2AE
:100BC00043F010038382704723F010031B041B0CB7
:100BD000F8E7838A21B19BB243F008038382704710
:100BE00023F008031B041B0CF8E7838931B16FEA7B
:100BF00043436FEA53439BB283817047C3F30E03B1
:100C0000FAE7838A21B19BB243F400638382704781
:100C100023F400631B041B0CF8E7838A23F004030E
:100C20001B041B0C8382838A9BB219438182704709
:100C3000838A21B19BB243F002038382704723F081
:100C400002031B041B0CF8E70388194214BF0120A0
:100C500000207047C94389B2018070470123C1F366
:100C6000421210B5012A01F01F0403FA04F30ED159
:100C7000828992B21340028892B26BB10123090AB1
:100C800003FA01F10A4214BF1846002010BD022ADF
:100C90000CBF028A828AECE7184610BD0B0A0121BC
:100CA0009940C94389B201807047000040F0BF609D
:100CB000024B40F40030D860704700BF00ED00E008
:100CC00010B5C2780378E2B1124AD1684278C943BC
:100CD000C1F30221C1F10404A2400F24807824FA58
:100CE00001F101400A430C491201C818D2B280F840
:100CF000002303F01F005A090123834041F82230EA
:100D000010BD01215A0903F01F0301FA03F3203239
:100D10000149F3E700ED00E000E100E021F060416F
:100D200021F07F01014B01439960704700ED00E025
:100D3000044B1A6911B110431861704722EA000090
:100D4000FAE700BF00ED00E0044B04281A680CBF6E
:100D500042F0040222F004021A60704710E000E042
:100D6000800000F1804000F5B840036823F4804320
:100D700023F0700343F4004343F0800359400160C3
:100D80007047000018B90722024B1B681A820248FC
:100D9000704700BF500F0020D000002037B5114C25
:100DA0002268127802F07F02212A02D0022003B0CA
:100DB00030BDA0F12003012B0B4B0C4D1B6888BFED
:100DC000002523B102A901F8010D02209847002D4A
:100DD000ECD0236800249D615C822046A847204611
:100DE000E5E700BF500F00208C010020850D0008B2
:100DF00013B5104B1A68137803F07F03212B16D11B
:100E0000022812D022280BD002240B4B1B6823B1DE
:100E100002A901F8010D02209847204602B010BD3A
:100E2000D378064A03F0030313700024EDE702248D
:100E3000F3E700BF500F00208C010020900100203C
:100E400021B901288CBF0220002070470220704782
:100E5000044B1B689B7A1BB10522034B1B681A735A
:100E6000704700BF500F0020D80000200422024B22
:100E70001B681A73704700BFD8000020054B1B6821
:100E8000DB78032B04D8044901EBC30100F0EEBF6B
:100E900000207047500F00205C000020014900F046
:100EA000E5BF00BF18000020014900F0DFBF00BF10
:100EB0002000002037B5002401224FF4E051104BF0
:100EC000104D1B6828689C720F4B1A641C645C648C
:100ED00019644FF43F415C640160196414238DF878
:100EE00004300F2301A88DF805308DF806308DF8F9
:100EF0000720FFF7E5FE2B681C7303B030BD00BF71
:100F0000500F0020D8000020005C00401A491B4A06
:100F10000B68106D02F23C4240002DE9F04114587C
:100F2000002208461646164D164FC4F30904A24285
:100F300013D3154A036012689B1ADBB2BF2B04D887
:100F40004FF440510320FFF70BFF104B1B688BB190
:100F5000BDE8F041002101201847D10756BF29788C
:100F6000310A2E88F95403F1010358BF0435DBB26E
:100F70000132DCE7BDE8F08194010020005C004014
:100F800020620040AC0100209C010020980100205C
:100F9000F0B5204B204C214922681B689B1A13F0A6
:100FA000FF0305D10A78013A52B20A707AB1F0BD56
:100FB000012008700020402B28BF40230646184D12
:100FC000184F984215DBD90748BF2E602260164A99
:100FD0001649106D40000B50536823F4E04323F092
:100FE000400343F4004343F0800383F03003536035
:100FF000F0BDB95C10F0010FC9B202F101021CBFD3
:1010000046EA01212960D2B20CBF8EB2043501300C
:10101000D7E700BFA4010020A8010020A001002004
:1010200080610040AC020020005C00401460004081
:1010300070B5104A104C136824681C1BE443E4B2DA
:101040008C4228BF0C466CB100210C4E8DB2A542DB
:1010500001F1010108D31360094B1B781B0601D570
:10106000FFF796FF204670BD455DF5540133DBB2B6
:10107000ECE700BFA4010020A8010020AC02002082
:10108000A00100202DE9F04700254FF0C00948F6E7
:101090008F1648F280074FF0400A434B434C1B68C1
:1010A000DFF838819D7283F809902565236828460A
:1010B000334043F400732360236803EA08033B438F
:1010C00083F010032360226D394B520043F802A0D5
:1010D0008022236D5B0003F1804303F5C0431A6057
:1010E000236823F4E24323F070031B041B0C2360EA
:1010F000304B1B6893F82C1001F0FEF84FF4405170
:101100002846FFF72DFEA3682946334043F4C06309
:10111000A360226D284B520013444FF480721A6072
:10112000A268022002EA08023A4382F02002A2608A
:10113000FFF716FEE36851463340E360226D1F4B14
:10114000520013444FF4887203201A6001F0D4F85F
:101150004FF440510320FFF703FE636829461E4009
:101160006660226D164B520043F8029063680120BE
:1011700003EA08033B4383F020036360FFF7F0FDBD
:101180000122104B28461B681A7301F065F8FF22F4
:101190000D4B1D600D4B1D600D4B1D600D4B1D60FB
:1011A0000D4B1A70BDE8F087500F0020005C004026
:1011B00008600040280F0020206000403860004098
:1011C00010600040D8000020940100209C01002005
:1011D000A4010020A8010020A0010020BF8FFFFF74
:1011E000C20744BF034B1960830744BF024B196019
:1011F000704700BF980100208C01002037B50446DD
:101200000D4608200121FFF753FA01A8FFF7A7F8C0
:1012100003238DF80630102301A920468DF80730EE
:10122000ADF80450FFF749F8294620460022FFF7A1
:10123000B4F8044B044A0549186801F007F903B0F3
:1012400030BD00BFD8000020B4000020980000206E
:10125000142337B58DF804300F2304460D468DF85E
:1012600005308DF80630002301A88DF80730FFF710
:1012700027FD012229462046FFF78FF803B030BD35
:1012800013B502AC04F8010D01212046FFF7D0FE92
:101290000028F9D002B010BD09B1FFF7C9BE084659
:1012A00070470000034B1868034B1B68C01AC0B29C
:1012B000704700BF940100209C010020044A13786D
:1012C0005BB2002BD2BF0020107840B2C0B2704792
:1012D000A0010020034B1868034B1B68C01AC0B262
:1012E000704700BFA4010020A80100200B4B30B5BF
:1012F0001A680B4B0B4D1B689B1ADBB2994228BF37
:10130000194603461C1AA14201DC084630BDAC5CFC
:10131000013203F8014BD2B2F4E700BF9C01002078
:1013200094010020AC01002010B5FFF7DFFF094A4F
:10133000044613680344DBB21360074A1268D31AE9
:10134000DBB2402B04D84FF440510320FFF708FDD7
:10135000204610BD9C010020940100200C4B30B5AC
:101360001B680C4C0B442468DBB2E41A8D18E4B201
:10137000AC4238BF621A0146074D0C1AA24201DC8A
:10138000104630BDEC5C013301F8014BDBB2F4E7F1
:101390009C01002094010020AC01002008B5FFF75B
:1013A00081FF28B1044B054A1B68D05CC0B208BD60
:1013B0004FF0FF3008BD00BF9C010020AC010020B1
:1013C000024B187800F00100704700BF9001002028
:1013D000024B1878C0F34000704700BF9001002016
:1013E000044B1A6802601A7902715A7942719B792A
:1013F00083717047D0000020014B1868704700BF10
:10140000D0000020014B1879704700BFD0000020A9
:10141000014B5879704700BFD0000020014B9879EC
:10142000704700BFD0000020014B1860704700BF1C
:10143000405C0040014B186880B27047405C00403F
:10144000014B1860704700BF445C0040014B1868B6
:1014500080B27047445C0040014B186880B270470E
:10146000485C0040014B1860704700BF4C5C004076
:10147000014B186880B270474C5C00404FF6F8731F
:10148000014A034013607047505C0040014B1868EC
:1014900080B27047505C0040800000F1804000F551
:1014A000B84001607047800000F1804000F5B8400E
:1014B000006880B27047800000F1804000F5B840BD
:1014C000036823F4EC4323F07003194389B20160ED
:1014D0007047800000F1804000F5B840006800F4DB
:1014E000C0607047800000F1804000F5B84003689C
:1014F000CA0623F4E04323F040039BB248BF83F0C5
:1015000010038A0648BF83F0200343F4004343F0EE
:10151000800303607047800000F1804000F5B84010
:101520000368CA0423F4804323F070039BB248BFCE
:1015300083F480538A0448BF83F4005343F4004388
:1015400043F0800303607047800000F1804000F5A5
:10155000B8400129036805D123F480531B041B0CF8
:10156000036070470229FCD123F01003F6E78000E6
:1015700000F1804000F5B840006800F0300070478E
:10158000800000F1804000F5B840006800F4405051
:101590007047800000F1804000F5B840036823F4F4
:1015A000E04323F040039BB283F0300343F4004355
:1015B00043F0800303607047800000F1804000F535
:1015C000B840036823F4804323F070039BB283F494
:1015D000405343F4004343F080030360704740F6F8
:1015E0000F63800000F1804000F5B84002681340AE
:1015F00043F4014343F0800303607047FFF7EFBFFC
:10160000FFF7EDBF800000F1804000F5B8400368AF
:1016100023F4F8731B051B0D43F4004343F08003D0
:1016200003607047FFF7EEBFFFF7ECBF800000F1EB
:10163000804000F5B840006800F03000A0F11003D1
:10164000584258417047800000F1804000F5B84092
:10165000006800F44050A0F580535842584170474C
:10166000800000F1804000F5B840036823F070036B
:101670001B051B0D03607047800000F1804000F5E2
:10168000B840036823F4E14323F070031B041B0CF0
:1016900003607047800000F1804000F5B8400368A7
:1016A00023F0F0031B051B0D43F4404343F080037C
:1016B00003607047800000F1804000F5B840036887
:1016C00023F0F0031B051B0D43F4004343F0C0035C
:1016D00003607047800000F1804000F5B840036867
:1016E0005B0409D5036823F0F0031B051B0D43F4CD
:1016F000404343F0800303607047800000F1804066
:1017000000F5B84003685B0609D5036823F0F003D1
:101710001B051B0D43F4004343F0C00303607047F7
:10172000800000F1804000F5B840036841F40041BA
:1017300023F0F0031B051B0D41F080010B430360F8
:101740007047800000F1804000F5B840006800F06C
:101750000F007047044B1B689BB203EBC000034BA8
:1017600003445B0019607047505C00400230002069
:101770003E290AD94B09C90604BF03F1FF339BB2C6
:101780009B0243F40043036070474B08CA0748BFFD
:1017900001339B02F7E700000D4B0E4A1B683E2900
:1017A0009BB203EBC00002444FEA42020AD94B0944
:1017B000C80604BF03F1FF339BB29B0243F400430E
:1017C000136070474B08C90748BF01339B02F7E716
:1017D000505C00400630002010B50B4CC000236860
:1017E00049089BB2034403F1005303F540535B00E7
:1017F00049001960236852089BB21844034B5200F9
:1018000003445B001A6010BD505C004004300020AF
:10181000064B49081B6849009BB203EBC00000F16E
:10182000005000F54050400001607047505C00409F
:10183000FFF7EEBF054B49081B6849009BB203EB5D
:10184000C000034B03445B0019607047505C0040CC
:1018500004300020FFF7EEBF054B1B689BB203EB83
:10186000C00000F1005000F5405040000088704773
:10187000505C0040FFF7F0BF044B1B689BB203EBCA
:10188000C000034B03445B0018887047505C004065
:1018900004300020FFF7F0BF012910B52BD1254CF3
:1018A000C0002168244B89B201440B443E2A4FEA10
:1018B000430119D9530912F01F0F04BF03F1FF337D
:1018C0009BB29B0243F400430B6023681B499BB20D
:1018D000184401443E2A4FEA41011FD85308D20759
:1018E00048BF01339B0222E0530812F0010F18BFDA
:1018F00001339B02E8E702291BD10E4CC00021688E
:101900000D4B89B201440B445B001A6023689BB203
:1019100018440A4B03445B001A6010BD5309D006FB
:1019200004BF03F1FF339BB29B0243F400430B60FF
:1019300010BD10BD505C0040023000200630002079
:1019400001291BD1134B14491B683E2A9BB203EBA0
:10195000C00001444FEA41010AD95309D00604BF2F
:1019600003F1FF339BB29B0243F400430B607047CB
:101970005308D20748BF01339B02F7E7022908D179
:10198000044B1B689BB203EBC000034B03445B009A
:101990001A607047505C00400230002001291BD1C2
:1019A000134B14491B683E2A9BB203EBC000014451
:1019B0004FEA41010AD95309D00604BF03F1FF33AE
:1019C0009BB29B0243F400430B6070475308D2075D
:1019D00048BF01339B02F7E7022908D1044B1B687B
:1019E0009BB203EBC000034B03445B001A607047DB
:1019F000505C004006300020054B1B689BB203EB97
:101A0000C000044B03445B001868C0F30900704732
:101A1000505C004002300020FFF7EEBF054B1B6812
:101A20009BB203EBC000044B03445B001868C0F397
:101A300009007047505C004006300020FFF7EEBF01
:101A40000D49C0000B689BB2C2180C4B13445B00DD
:101A50001B6813F47C4F0DD10B689BB21844084BE4
:101A600003445B001B68C3F30903002B14BF02206F
:101A70000020704701207047505C00400630002075
:101A80000230002001290FD1800000F1804000F5D4
:101A9000B840036823F0F0031B051B0D43F400431B
:101AA00043F0C003036070470229FCD1800000F1BD
:101AB000804000F5B840036823F0F0031B051B0DC0
:101AC00043F4404343F08003ECE741EA00207047D1
:101AD000C3B2000A40EA03207047000010B5064C6C
:101AE00018B9012223681A8210BD044B1B681B68B9
:101AF000984720680A3010BD500F00204C0F00207E
:101B000010B5064C18B9012223681A8210BD044B87
:101B10001B689B68984720680C3010BD500F002050
:101B20004C0F002010B5204B18B902221B681A82F6
:101B300010BD00201D491C68088023780A4613F058
:101B40007F0313D1637A990644BF0221117013F009
:101B5000400F137814BF43F0010323F00103137007
:101B6000134B1B681B699847104810BD012B18D0F8
:101B7000022B17D1617901F00F039B0003F1804321
:101B800003F5B84311F0800F1B6805D003F0300354
:101B9000102BE5D10123E2E703F44053B3F5805F56
:101BA000F7E7084610BD00BF500F0020200F0020AF
:101BB0004C0F00202DE9F843234FDFF8A0803D684B
:101BC0002C8AD4B92E7A042E17D120490B78012BF8
:101BD0000ED11F4B1A681F4B92B213445B001C605E
:101BE00030230C70A8F800303B681E72BDE8F88303
:101BF00010230726A8F80030F6E7AB8A9C4294BF72
:101C0000042602269C4228BF1C46AB692046984702
:101C100081460020FFF72EFE22460146484600F08E
:101C200009FD21460020FFF795FD2B8A4FF4405215
:101C30001B1B2B826B8A1C443023A8F80030064BF8
:101C40006C821A80D0E700BF500F0020AC03002048
:101C5000505C004002300020560F0020580F00203A
:101C600010B50A4B0A491B684978DA7891420AD3C1
:101C7000997841B99C8834B99A72064B1B685B68A5
:101C80009847204610BD022010BD00BF500F002015
:101C9000580000204C0F002038B50F4A0F4D126835
:101CA0002B689269D978587990472B6804469A7ABC
:101CB0007AB170B91A7962B99B7853B9084B1B682D
:101CC000DB6898472B685A79DA72DA781A732046FB
:101CD00038BD0224FBE700BF280F0020500F002072
:101CE0004C0F002038B5304B1B68187810F07F007F
:101CF00004D15A7A22F020025A7238BD022850D1FB
:101D00005A88002A4ED11A79002A4BD15979274D89
:101D100021F08000840004F1804202F5B84212688C
:101D200049B22D780029B4BF02F0300202F44052CB
:101D3000A84236D2002A34D09B7A93B304F180446F
:101D400004F5B8440029236811DA03F03003102B9E
:101D500007D1C4B22046FFF7D0FC30212046FFF760
:101D6000C1FB134B1B685B699847002038BD03F427
:101D70004053B3F5805FF4D10E4D78B90E4B93F814
:101D80002C10FFF709FD23682B409BB283F44053CE
:101D900043F4004343F080032360E2E7FFF79AFC3B
:101DA000F1E7022038BD00BF500F0020580000208E
:101DB0004C0F00208FBFFFFF2800002038B51F4BBD
:101DC0001F4D18682D78417921F08004A30003F19C
:101DD000804202F5B842126849B20029B4BF02F04D
:101DE000300202F44052AC4225D244881CBB12B3EC
:101DF000827A02B303F1804303F5B8431A680029DD
:101E0000B5BF22F4E04222F4804222F0400222F0E8
:101E10007002B5BF92B292B282F0100282F4805288
:101E200042F4004242F080021A60064B1B689B6934
:101E30009847002038BD022038BD00BF500F002059
:101E4000580000204C0F002008B5064B1A68537A42
:101E500043F020035372044B1B68DB699847002052
:101E600008BD00BF500F00204C0F0020054B10B5DF
:101E70001C68628A18B98B889B1A238210BD086877
:101E8000104410BD500F002008B50B4B002093F8F4
:101E90002C10FFF781FC094B1B68187A082806D123
:101EA0004FF48052064B1A801022064B1A80A0F184
:101EB00009035842584108BD28000020500F002057
:101EC000560F0020580F0020F7B5974C974E276803
:101ED00032683B7A092B19D0954B92B213445B00C0
:101EE0001D886D0005F1804505F5C0452B783B70D8
:101EF0006B787B70A888FFF7EBFD788028892768CE
:101F0000FFF7E6FDB880AA892368DA8001222368FA
:101F10001A72DA885D78002A60D11A7812F07F028E
:101F200049D1092D03D1FFF79BFEB0B126E0052D65
:101F30001FD193F90320002A06DA082322681372BE
:101F4000FFF7A2FF03B0F0BD9A78002AF5D19A8876
:101F5000002AF2D19B7A002BEFD13268754B92B2F6
:101F6000134400225B001A603022734B1A80062350
:101F7000E4E7032D11D1DA78012A08D06F4B284607
:101F80001B685B699847032825D10923D6E79B88FE
:101F9000002BF3D1FFF758FFC7E7012DEED1DA7818
:101FA000012AEBD19A88002AE8D15B7A9906E5D517
:101FB000FFF798FEB9E7012A04D10B2DDED1FFF718
:101FC0006BFEB2E7022AD9D1012DF1D0032DD5D174
:101FD000FFF7F4FEA9E70028AFD1BEE7062D14D124
:101FE0001A7852065DD19A78544B012A03D11B68A6
:101FF000DB69EBB955E0022A02D11B681B6AF8E7DE
:10200000032A4ED11B685B6AF3E7002D55D159882E
:10201000002946D15A6822F47F42B2F5003F40D1F0
:102020001A7812F07F0216D19B88002B39D1444BCD
:1020300000252268284655829361984728464FF626
:10204000FF7123681A8A8A4234D0022801D0002AFC
:1020500056D108222FE0012A0AD1384A587912684D
:1020600092699047E8B923689B7A002BDFD118E08A
:10207000022A16D15A79334802F00F018B0003F17E
:10208000804303F5B8431B68007812F0800F14BF3B
:1020900003F0300303F44053814202D212F0700F78
:1020A000E3D0264B22681B6850781B6998470328A9
:1020B000C5D1236809221A7242E7082D04D11B7882
:1020C0005B06EED1204BB3E70A2DEAD11A7802F075
:1020D0007F02012AE5D19A7A002AE2D059880029A4
:1020E000DFD15A6822F47F42B2F5803FD9D1134A3A
:1020F00058791268926990470028D2D1134B97E71C
:1021000093F90010002936DAD9880C4C0191019816
:1021100082421DD9019A1A82226892F82C209A8252
:10212000FFF748FD0CE700BF500F0020505C004057
:102130000430002002300020580F0020280F00201B
:10214000251B000858000020DD1A0008011B0008AC
:102150008A42E1D2216891F82C00824203D2002108
:10216000084A1170D8E792FBF0F100FB1122002A17
:10217000D2D10121F4E703221A724FF44052024BEC
:102180001A80DDE6AC030020560F0020F8B52C4D78
:102190002C68237A022B50D0042B4ED0032B01D075
:1021A000052B44D1A369268AABB1A6B1A28A964277
:1021B00028BF164630469847238A07469B1B238232
:1021C000638A002033446382FFF764FB3246014692
:1021D000384600F041FA238A53B100214FF44052AF
:1021E000184B08461A80FFF7B5FA3022164B1A80B2
:1021F000A38A228A93422B6809D803221A722B6879
:102200001B7A2A681372BDE8F840FFF73DBE0AB199
:102210000522F3E7062119720C4B19680C4B89B2A1
:102220000B445B001A603022074B1A80E7E7072B4C
:1022300003D1084B1B68DB6898470823E1E700BF20
:10224000500F0020560F0020580F0020505C004017
:1022500002300020280F0020F0B5002240F60F7554
:1022600048F280060A4B1C78A24204D3094B40F086
:1022700080001860F0BD02F1805303F5B8539B0055
:10228000196842EA06072940394319600132EBE731
:10229000580000204C5C004010B5134C23681A7A9B
:1022A000022A01D0042A09D1FFF784FC23681B7A93
:1022B00022681372BDE81040FFF7E6BD062A10D170
:1022C0005A78052A09D11A78520606D1D878FFF72C
:1022D000C3FF064B1B681B6A9847054B1B689B682E
:1022E00098470823E4E700BF500F00204C0F002060
:1022F000280F0020704700000D4B0E4A1B6D3E2931
:1023000003EBC0004FEA400002440AD94B09C8065B
:1023100004BF03F1FF339BB29B0243F400431360FD
:1023200070474B08C90748BF01339B02F7E700BF5E
:10233000005C00400C600040064B074A07491360F0
:1023400002221A72064B074A1360074A1B68116083
:10235000184700BF300F0020500F002074000020ED
:1023600028000020280F00204C0F002030B548F234
:102370008005094C226822F4804222F070022A4330
:1023800042402260236823F4E04323F040032B43C0
:102390004B40236030BD00BF005C0040284B072845
:1023A00018BF18701A78052A48D8DFE802F003131E
:1023B0001E232B364FF6FB71224A106C014011642C
:1023C0004FF43F41116406221A701F4B1B685A7B61
:1023D0001A7370474FF6FB711A4A106C0140116472
:1023E0004FF43F411164042202E002225A7003229A
:1023F0001A7006E05A78013AD2B25A705A78002A16
:10240000F1D070470F490A6C92B242F010020A6490
:1024100005221A700A225A7070475A78013AD2B2CD
:102420005A705A78002AECD14FF6EF720549086CC1
:1024300002400A64044A1268517B11730622D7E7EE
:102440005A0F0020005C0040D800002070B5044600
:102450000E464FF4000001211546FEF735F9084AF3
:10246000084B09491A60094B09480B600949666025
:1024700008600221A56011721B68BDE87040184712
:10248000300F0020500F0020280F002028000020CF
:10249000740000204C0F00202DE9F047604E614A87
:1024A0003368546C1B68A4B223405D0506D56FF4F5
:1024B000806353645C4B1B685B68984733681B6898
:1024C0002340580442BF6FF48041564A5164990436
:1024D00042BF6FF40051534A5164DA0406D56FF4D9
:1024E000C052504B00205A64FFF758FF3068026812
:1024F000224013050FD54B490B6C9BB243F00805E6
:1025000043F00C030D640B64037B437303230373D9
:102510006FF4C0534B64970542BF6FF40071414B99
:102520005964D50506D56FF480723E4B07205A6476
:10253000FFF734FF33681B681C4024046DD5394C09
:102540006FF4004848F60F7964E015F00F07C4F8FF
:10255000448038D148F6800327681F425AD0BBB266
:10256000324EDFF8CC8003F440524FF4005003F0B9
:10257000300320213280A8F80030FFF7F7FEE8068C
:10258000236811D423F4E14323F070031B041B0CD4
:102590002360FFF781FE3088B8F8001080B289B25E
:1025A000BDE8F047FFF7E2BE3906EBD423F0700335
:1025B0001B051B0D3A05236002D5FFF785FCEAE7F2
:1025C000FFF7E4FDE7E7BD0005F1804505F5B845F7
:1025D000D5F800A01AF4004F0DD02B68326823F014
:1025E00070031B051B0D2B60926807F18043013BB4
:1025F00052F8233098471AF0800F0BD02B6807F160
:10260000804703EA09032B603368013F5B6853F896
:1026100027309847656C2B0497D4BDE8F08700BF3E
:10262000D8000020005C0040280F0020560F00203A
:10263000580F0020002310B501F10051013201F5BF
:102640004051521049009A4200D110BD30F8024B5F
:1026500021F823400133F6E7002310B501F10051C2
:10266000013201F54051521049009A4200D110BD8B
:1026700051F8234020F813400133F6E7374B82B07E
:102680001A6842F001021A605968354A0A405A60D5
:102690001A6822F0847222F480321A601A6822F4D6
:1026A00080221A605A6822F4FE025A604FF41F0218
:1026B0009A600022009201921A6842F480321A60F5
:1026C0001A6802F400320192009A01320092019AD3
:1026D0001AB9009AB2F5A06FF2D11A6812F400325A
:1026E00018BF01220192019A012A05D04FF0006221
:1026F0001C4B9A6002B070471B4A116841F01001F0
:102700001160116821F003011160116841F00201AC
:1027100011605A685A605A685A605A6842F4806276
:102720005A605A6822F47C125A605A6842F4E812DD
:102730005A601A6842F080721A601A689201FCD5D9
:102740005A6822F003025A605A6842F002025A6044
:102750005A6802F00C02082AFAD1C7E700100240BA
:102760000000FFF800ED00E000200240114A124B8B
:10277000516801F00C01042901D008290AD00F4941
:10278000196052680E49C2F30312895C1A68CA4084
:102790001A60704751685068C1F38341C00301F16A
:1027A000020102D407484143EAE750688003F9D4A4
:1027B0000248F8E700100240FC00002000127A00F6
:1027C000EC00002000093D0038B504460D46AC423F
:1027D00000D338BD54F8043B9847F8E7FEE7000003
:1027E00008B5104A104B11498B4216D314481549AD
:1027F0004FF000028842B8BF40F8042BFADBFFF725
:102800003DFF0B490B48FFF7DFFF0B490B48FFF774
:10281000DBFFBDE8084000F035BA52F8040F43F87A
:10282000040BE1E7D4A800080000002068010020A4
:10283000BCA80008BCA80008C8A80008BCA80008DC
:1028400070010020600F002008B50820FEF74AF84C
:1028500038B1044800F0FCFBBDE808400820FEF752
:102860004FB808BD6C0A002040F69753184601384F
:10287000FDD870470B2318460138FDD8704700007B
:102880002DE9F043012185B01D20FDF711FF012145
:102890007948FDF7A5FD0020FDF786FE01214FF4E4
:1028A0000000FDF711FF4FF44070FEF7FFF9684696
:1028B000FDF755FD03234FF480548DF802301023AB
:1028C00069466E488DF80330ADF80040FDF7F5FC21
:1028D000002221466948FDF760FD00230193019B1A
:1028E000B3F5007F02D2019B0133F7E704264FF4D2
:1028F000805969466148032410258DF80360ADF8BE
:102900000090FDF7DAFC202369465D48ADF8003001
:102910008DF802408DF80350FDF7CFFC4023694647
:102920005748ADF800308DF802408DF80350FDF7A0
:10293000C4FC802369465248ADF800308DF803602E
:102940008DF80240FDF7B9FC4FF480734FF48048D6
:1029500069464B48ADF800308DF802408DF80350C1
:10296000FDF7ABFC6946474808278DF80240ADF8F3
:1029700000808DF80350FDF7A0FC694640488DF8B3
:1029800003608DF80240ADF80050FDF796FC8DF81D
:1029900003604FF40056694639488DF80240ADF89F
:1029A0000070FDF78AFC69463648ADF800608DF886
:1029B00002408DF80350FDF780FC4FF40073694628
:1029C0002F48ADF800308DF802408DF80350FDF728
:1029D00074FC69462A488DF80240ADF800908DF8E5
:1029E0000350FDF76AFC69462548ADF800608DF894
:1029F00002408DF80350FDF760FC02230126694672
:102A00001F48ADF800308DF802408DF80350FDF7F7
:102A100054FC69461A488DF80240ADF800608DF804
:102A20000350FDF74AFC694615488DF80240ADF8A1
:102A300000808DF80350FDF740FC4FF400436946D9
:102A40000F48ADF800308DF802408DF80350FDF7C7
:102A500034FC21463046FDF7F3FC00230DEB070064
:102A600002978DF80C308DF80D708DF80E60FDF723
:102A7000DFFE05B0BDE8F083000230000008014031
:102A8000000C014000100140092307B58DF8043007
:102A90000F238DF805308DF80630012301A88DF83D
:102AA0000730FEF70DF903B05DF804FB032307B50B
:102AB0008DF806301023ADF8043041B101A9054866
:102AC0008DF80730FDF7F9FB03B05DF804FB042334
:102AD000F4E700BF000C01400A4602482021FDF740
:102AE0005CBC00BF000C01400A4602484021FDF7D3
:102AF00054BC00BF000C014008B580210348FDF71D
:102B000036FC431E5842584108BD00BF000C01402E
:102B10000A4602484FF48071FDF73FBC000C0140AB
:102B20000A4602484FF48041FDF737BC00100140CF
:102B300008B510210348FDF71AFC431E58425841BE
:102B400008BD00BF000C01400A4602481021FDF7F5
:102B500024BC00BF000C01400A4602480821FDF7D2
:102B60001CBC00BF000C01400A4602484FF4005153
:102B7000FDF713BC001001400A4602484FF40071F3
:102B8000FDF70BBC000C01400A4602484FF480518F
:102B9000FDF703BC000C01400A4602484FF4005107
:102BA000FDF7FBBB000C01400A4602480221FDF77D
:102BB000F4BB00BF000C01400A4602480121FDF7AA
:102BC000ECBB00BF000C01400A4602484FF48041B4
:102BD000FDF7E3BB000C01400A4602484FF40041F8
:102BE000FDF7DBBB000C0140014801F0DBBF00BF7B
:102BF000B00C002008B5184800F0E4FA174801F0BE
:102C0000D7FF174B1B7833B1164B1B78012B02D122
:102C1000154802F05DFD154B1B7833B1114B1B7845
:102C2000022B02D1124800F053F9124B1B7833B13A
:102C30000C4B1B78032B02D10F4801F049FC0F4BC2
:102C40001B7843B1074B1B78042B04D1BDE8084027
:102C50000B4801F03DBD08BD6C0A0020B00C0020FF
:102C6000010100209D0A0020F4090020000100203D
:102C70003006002003010020500E00200201002039
:102C8000980B002008B5FFF7AFFFFFF7B3FFFCE795
:102C900008B5104800F056FC0F4802F08CFB0F48B6
:102CA00001F082F90E4800F0BFF80E4801F015F867
:102CB0000D4801F0B9FB0D4800F039FB0C4801F05C
:102CC000A9FC0C4801F0FEFDBDE808400A4800F0F0
:102CD00077B900BFA0060020F4090020B00300204F
:102CE00030060020B80D0020500E0020A00A002061
:102CF000980B0020B00C00206C0A0020002310B5B7
:102D00000381044643810180436003734373084693
:102D100003F084F96060204610BD4289038992B2B5
:102D20009BB29A42028808D1037B002B0CBF10464D
:102D300000209042C8BF002070474189038989B2B2
:102D40009BB29942BBBF03894089438980B2ADBF22
:102D500000898018C01A181A80B2EAE742890389EC
:102D600092B29BB29A4205D1027B02F0FF039AB164
:102D7000008870474289038992B29BB29A4204DA72
:102D800003894089181A80B27047428903890088F4
:102D90009BB21844801AF6E718467047037B10B5BB
:102DA00003F0FF021BB101234373002010BD038910
:102DB00044689BB2E1540389018801339BB20381CB
:102DC00003899BB28B42A8BF02810289438992B2D8
:102DD0009BB29A424FF0010308BF0373184610BD1F
:102DE000034600895A8980B292B2904204D11A7B7C
:102DF00002F0FF0002B970475A89586892B2825CAB
:102E00000A70002119735A891888013292B25A81C6
:102E10005A8992B2824200DB5981012070470346F1
:102E20000022407B5A73704710B54FF4B9710446C5
:102E300002F01DFD002304F1100204F1600102F80C
:102E4000013B8A42FBD1F022A4F86030A4F8623042
:102E5000A4F86420A366204610BD222A70B5064659
:102E60000C460ED102F016FD20280CD904F12105E4
:102E700014F8011F304602F04EFDAC42F8D100209C
:102E800070BD042070BD052070BD00002DE9F34128
:102E90000D46082400274FF001080C4E2B064FF07A
:102EA00001020DF10701304604F1FF344CBF8DF8EB
:102EB00007808DF807706D0000F0F6F814F0FF043D
:102EC000EDB2EBD102B0BDE8F08100BF6C0A00208A
:102ED00070B5B0F8605004463DB902F0FCFC002823
:102EE00049D1B4F86030002B54D02B4800F0FCF8E6
:102EF0000546082D4ED994F86C30A3B30021B4F8E0
:102F000062300133A4F862302046FFF7BFFFB4F807
:102F10006220B4F86030083D9A42ADB2E9DB00238C
:102F2000A4F86230A4F8603084F86C3070BD2B4691
:102F30002846B4F8601084F86C50CA1892B2013375
:102F40002244482B1074F8D14831A4F8601004F1E1
:102F5000100504F13106204602F002FD05F8010BD0
:102F6000AE42F8D112E0B4F862305A1CA4F86220E4
:102F70002344197CC8E7094B1B78002BD7D10123C8
:102F800084F86C30B4F86430A4F860300023A4F8FE
:102F90006230A6E770BD00BF6C0A00209E0A0020C8
:102FA00008B502F077FC2323B0FBF3F080B208BD34
:102FB00001EB4101890001F51671A0F8641070471A
:102FC00070B500250446012600F8045B7821FFF760
:102FD00095FE642104F11400FFF790FE204665621F
:102FE00084F82860E562FFF74BFC31462046FFF786
:102FF00097FD31462046FFF7B7FD29462046FFF7EB
:10300000E3FD29462046FFF7BFFD29462046FFF78E
:10301000C3FD29462046FFF7C7FD29462046FFF796
:10302000CBFD29462046FFF7D7FD29462046FFF76E
:10303000A3FD29462046FFF74FFD29462046FFF70E
:1030400053FD20462946FFF763FD204670BD000072
:10305000002313B58DF80730037804468BB1114B6C
:103060001B7883B10DF107011430FFF7B9FE9DF80D
:10307000071001B101212046FFF766FDE36A013325
:10308000E36202B010BDFFF753FD40B101238DF89C
:1030900007309DF80710201DFFF780FEEEE78DF842
:1030A0000700F6E79E0A002003782DE9F041044668
:1030B0000F469046A3B1002300F114065D1C9BB29D
:1030C000434505DAF95C3046FFF768FE2B46F5E725
:1030D000044D2B7823B9204602F08AFC01232B7083
:1030E000BDE8F0819E0A00201430FFF716BE1430B0
:1030F000FFF795BE0430FFF792BE00002020154B6D
:1031000010B51870144B1548CC1884421AD91344C2
:10311000834217D9124B1348CC18844212D9134456
:1031200083420FD9104B1148CC1884420AD913445A
:10313000834207D90E4B0F48CC18844202D913445E
:10314000834205D80C4B002019600C4B1A6010BD4F
:10315000042010BDF80E002000BC6AF7FF083D00F7
:10316000004FF7E6BF3B47034053F2F27F8D5B0011
:103170008019D0CDFFF26F06F00E0020F40E002073
:1031800038B505460E4C21784B1E59425941FFF780
:10319000FBFC217828468A1E51425141FFF7FCFC76
:1031A0002178C81E414241412846FFF7FDFC2178A5
:1031B00028460C1F61426141BDE83840FFF7FCBC66
:1031C0009D0A0020436A0278013373B504464362C6
:1031D000002A3DD0C36AB3F5964F09D3384A00257B
:1031E0001378013B032B02D81570FFF7C9FFE56286
:1031F00045F6BF53626A9A420AD9002394F8281010
:10320000636281F0010184F828102046FFF7ACFCCE
:1032100004F11400FFF7A2FD064618B9294D2B78DA
:10322000002B48D104342046FFF798FDE0B10DF1A2
:1032300007012046FFF7D4FD234B1B78B3B19DF85F
:1032400007102248003118BF012100F039FD0BE0C2
:103250001F498B4208D990F82810426281F0010181
:1032600080F82810FFF780FC02B070BD194B1B7866
:1032700043B19DF807101848003118BF012100F034
:1032800085FFF1E7154B1B7843B19DF807101448F3
:10329000003118BF012100F0F5FDE5E7114B1B7867
:1032A000002BE1D09DF807100F48003118BF012115
:1032B00000F042F9D8E7204602F0B0FB2E70B1E7EB
:1032C0009D0A00209E0A002001010020A006002087
:1032D0007FA9030000010020B003002003010020AB
:1032E000B80D002002010020A00A002010B50446FD
:1032F00002F0AEFB23784BB92046FFF7C5FB012354
:1033000020462370BDE81040FFF73ABF10BD000013
:1033100038B5044C0D4622788A4201D0FFF75CFC98
:10332000257038BD9C0A00200023C362704730B569
:10333000002400250023C0E902450370437000F11A
:10334000100200F1EB0102F8013B8A42FBD1A0F828
:10335000F030A0F8F23000F11103C0F8EC3030BDCD
:10336000002330B50024002503704370C0E90245F6
:10337000A0F8F030A0F8F23030BD0000D0E9022310
:10338000921810B55B41044641BBC4E902234FF6D5
:10339000FF73D4E902014FF0FF32194045F2755333
:1033A0001040104A5940504002F012FE022818DC2A
:1033B00000230D48195CD4F8EC20D1540133062BBE
:1033C000F8D104230121A4F8F23030236170A4F86D
:1033D000F0300648BDE81040FFF79ABF42F0010206
:1033E000D3E710BDFF77FFF59B7600086C0A00203D
:1033F000D922014801F03EBEB00C0020D0E90223E2
:10340000921870B55B410446002972D1C4E90223C9
:10341000B4F8F020D4F8EC50424ED01002F007027D
:103420002B5CB25C002967D013432B54B4F8F03006
:103430005A1CA3F24633022BA4F8F02027D8D4E973
:1034400002014FF6FF734FF0FF32194045F27553FA
:103450001040354A5940504002F0BAFD042816DCAD
:1034600001232146314801F8103F642201F0D6FDC6
:1034700000232F48195CD4F8EC20D1540133062BDB
:10348000F8D10423A4F8F2303023A4F8F030B4F8D3
:10349000F0302E3B9BB2042B16D8D4E902014FF634
:1034A000FF734FF0FF32194045F2755310401E4A2A
:1034B0005940504002F08CFD0428DFBF0423A4F8DB
:1034C000F2303023A4F8F030B4F8F030B3F5D86F10
:1034D00027D1B4F8F250013DADB2A4F8F25075B95D
:1034E00029461448FFF714FF104801F0EFFD6570FE
:1034F00070BD42F0010289E723EA020395E7264600
:10350000EB1E5D425D4106F8105F31462046FFF735
:103510006FFFDB220021304603F086FE0023A4F873
:10352000F03070BD93760008FF77FFF5B00C0020F7
:103530009B7600086C0A002043780BB9FFF71EBF8A
:10354000FFF75CBF002300F108020370436000F145
:103550006C0102F8013B8A42FBD10021C36603677C
:1035600043678367C367C0F88030C0F8843000F5D4
:10357000987200F1880343F8041B9342FBD10021A9
:1035800000F5EC7243F8041B9342FBD1002100F5D7
:10359000207243F8041B9342FBD1002100F54A72CC
:1035A00043F8041B9342FBD1002100F2523203F88E
:1035B000011B9342FBD17047002303704360C36635
:1035C000036770472DE9F0470D68D0F878E00E6981
:1035D0000EEB050CD0F88050446F2E44B44567467E
:1035E0004FEAD403A8BF3746B445B4BF3D4E3E4E64
:1035F0004FEA830304F0070200EB030CB5BF16F893
:10360000028016F80280DCF88860DCF88860B4BFBD
:1036100006EA080646EA0806CCF888604E680134D7
:10362000B6444E693544AE457646A8BF2E46AE45F3
:10363000B4BF2C4D2C4D00EB030EB5BF15F802C0E6
:1036400015F802C0DEF83051DEF83051B4BF05EA9B
:103650000C0545EA0C05CEF83051D0F87CE08D68B9
:10366000D0F884800EEB05098D69CC464544A94508
:10367000A8BFAC46A945B4BF1A4D1B4D00EB0309CA
:10368000B5BF15F802A015F802A0D9F8D851D9F89D
:10369000D851B4BF05EA0A0545EA0A05C9F8D85168
:1036A000CD68C969754441448D42AE46A8BF8E4677
:1036B0008D42B4BF0B490C490344B5BF895C895C9A
:1036C000D3F88022D3F88022B4BF0A400A43C3F85B
:1036D00080228767C667C0F880C0C0F884E044676E
:1036E000BDE8F087A2780008AA78000870B54A689B
:1036F0000B6888B0D11882F0010683F001052A44D6
:103700003344009174190591694601940293039220
:10371000049406920793FFF755FF08B070BD0000B0
:10372000002240F249111346F0B5264C264E032BD9
:1037300019D8DFE803F0021C303CCD1001F007037C
:103740002235E75C50F825303B4018BF022300EBE0
:10375000D20702F00705755D97F828E305EA0E0524
:1037600087F82853013211F1FF31E0D2F0BDCD10BE
:1037700001F007034C35E75C50F825303B4018BF9B
:10378000022300EBD20702F00705655D97F828E3F6
:1037900045EA0E05E4E7CB10763301F0070550F853
:1037A0002330655D1D420CBF01230323CFE7CD10FD
:1037B000A03501F00707E75D50F825502F4208BFFC
:1037C0000123DEE7AA780008A27800084FF0FF3353
:1037D00070B5104E4C1E01F1260514F8012F5A4009
:1037E000D2B236F81200C3F307235840A54203466D
:1037F000F3D1C04391F82720C3B29A4207D191F880
:103800002830C0F30720C31A5842584170BD002029
:1038100070BD00BFA27600082DE9F04300230446E6
:10382000884F154699B04A1E5078DE5D01337040CE
:10383000532B02F8010FF7D10023184603AA98541E
:103840000133542BFBD1DFF804C2002266468027E7
:103850000CEB4200B2F5257F5ADB00264FF08008C2
:1038600001274FF04009A667E667C4F88060C4F8F6
:103870008460666718AB03EBE60313F8542C06F07C
:10388000070328FA03F1114029FA03F30CBF029150
:10389000029701A91340204606F1020614BF0197C2
:1038A0000193FFF723FFB6F5257FE3D12046FFF70D
:1038B00037FF00216B1E05F1280203F8011F9A4211
:1038C000FBD140F24911012708465F4E04EBE102AB
:1038D00001F0070C92F828E316F80C20431A1EEAB0
:1038E000020F09D0DA0815F802E003F0070307FA1F
:1038F00003F343EA0E03AB5411F1FF31E6D229463C
:103900002046FFF763FF19B0BDE8F0831A46A1E730
:10391000D31011F803E01EF0010F0CD090F80080D6
:1039200018AB9844437818F8549C27FA03F343EAF9
:10393000090308F8543C1EF0020F0CD090F80280E6
:1039400018AB9844C37818F8549C27FA03F343EA59
:10395000090308F8543C1EF0040F0CD090F80480C2
:1039600018AB9844437918F8549C27FA03F343EAB8
:10397000090308F8543C1EF0080F0CD090F806809C
:1039800018AB9844C37918F8549C27FA03F343EA18
:10399000090308F8543C131DB3F5257F00F1080016
:1039A000B4DA1EF0100F0FD016F813000DF16008F6
:1039B00006EB430340445B7810F8548C27FA03F37A
:1039C00043EA080300F8543C1EF0200F10D0531DAA
:1039D00016F813000DF1600806EB430340445B78D2
:1039E00010F8548C27FA03F343EA080300F8543C18
:1039F0001EF0400F10D0931D16F813000DF1600853
:103A000006EB430340445B7810F8548C27FA03F329
:103A100043EA080300F8543C1EF0800F10D0D31D79
:103A200016F813000DF1600E06EB430370445B784B
:103A300010F854EC27FA03F343EA0E0300F8543C61
:103A4000083205E7C2780008AA7800081D79000846
:103A500030B543688DB004465B0079BB6360E36EAC
:103A600003F0070204EBD30059B319498A5C017AC9
:103A70000A430133B3F5257F0272E3661CD104F1DA
:103A8000080501AA29462046FFF7C6FEF0B101212C
:103A90001048FFF73DFC292201A90F4801F08AF9DF
:103AA0000E220021284603F0BFFB0023E366022319
:103AB000237040F2817323670DB030BD43F00103E2
:103AC000CCE706498A5C017A0A40D2E72070F3E726
:103AD000BA7800086C0A0020B00C0020B278000808
:103AE0000C22014801F092B9B00C0020436870B577
:103AF0005B000446A1B96360606820F07F431C4806
:103B0000584002F051FA02280DDC5322002104F142
:103B1000080003F089FB0023E3660123237070BDD6
:103B200043F00103E7E7606820F07F431148584005
:103B300002F03AFA05460028F1D101210E48FFF7BC
:103B4000E7FB0E4A04F1080613683146A360536888
:103B50002046E36093682361FFF7C2FF0E222946E7
:103B6000304603F061FBE56625670223D6E700BF18
:103B70005076550068B4AA006C0A0020457E000803
:103B800043682DE9F0415B000446F9B9E26E6360D9
:103B900004EBD20002F00703D9B14349CB5C017AB0
:103BA0000B430372636841480132E266584002F0F9
:103BB000FBF9032812DC3E480021FFF7A9FB3D4832
:103BC00001F06EF900232370BDE8F08143F001039A
:103BD000DCE73949CB5C017A0B40E2E7236FA3F2C3
:103BE000DD73042B29D90026236FB3F5FC6F16D1A2
:103BF00001256FF07F47DFF8C480606827FA05F37E
:103C0000034028FA05F0584002F0CEF9022823DCE0
:103C1000E36EEDB25B1BE366236F5D1B2567236FCD
:103C20000133B3F5965F23671AD300212048FFF7CD
:103C30006FFB204801F016F9C4E7606820F07F436D
:103C40001E48584002F0B0F90228CCDC6023E3663D
:103C5000002301262367C7E70135042DCDD1DEE718
:103C6000E36E602B17D104F10805B6B155236374D8
:103C70002D23A37416232946E3742046FFF730FF53
:103C800001210B48FFF744FB0E220021284603F0D8
:103C9000CBFA0023E366BDE8F0810C2229460548F3
:103CA00001F0B4F8ECE700BFBA7800085E13AAAAE6
:103CB0006C0A0020B00C0020B278000868B4AA009A
:103CC0000378012B05D002D3022B04D07047FFF7F5
:103CD0000DBFFFF7BDBEFFF753BF30B50024002571
:103CE0000023C0E902450370437000F1100200F1A7
:103CF0008B0102F8013B8A42FBD1A0F89030A0F87A
:103D0000923000F11103C0F88C3030BD002330B583
:103D10000024002503704370C0E90245A0F89030EC
:103D2000A0F8923030BD0000D0E90223921810B5FF
:103D30005B41044619BBC4E9022315A3D3E9002360
:103D4000D4E9020101F0FF015040594002F040F96E
:103D5000022817DC00230C48195CD4F88C20D154BD
:103D60000133052BF8D1A4F892300121282361708A
:103D7000A4F890300548BDE81040FFF7C9BA42F0FA
:103D80000102D8E710BD00BF597E00086C0A002070
:103D90004D63C971D40000007922014801F0F0B8E8
:103DA000B00C002000000000D0E90223921870B58A
:103DB0005B41044600293FD1C4E90223B4F89020B6
:103DC000D4F88C502C4ED01002F007022B5CB25C61
:103DD000002934D013432B54B4F890305A1C253B9F
:103DE000042BA4F8902012D8D4E9020120A3D3E92F
:103DF000002301F0FF015940504002F0E9F8042887
:103E0000DFBF0523A4F892302823A4F89030B4F83B
:103E10009030B3F5707F27D1B4F89250013DADB228
:103E2000A4F8925075B929461448FFF771FA14485E
:103E300001F0D4F8657070BD42F00102BCE723EADE
:103E40000203C8E726462B1F5D425D4106F8105F5E
:103E500031462046FFF7A0FF7B220021304603F0C9
:103E6000E3F90023A4F8903070BD00BFAFF30080E9
:103E70004D63C971D4000000517E00086C0A002017
:103E8000B00C002043780BB9FFF74EBFFFF78CBF93
:103E900070470000B1F5006F10B50ED34FF48023CA
:103EA00040F67540064C214207D0194201D15B080B
:103EB000FBE7DA0A42435140F5E7084610BD00BF70
:103EC00000F8FFFF10B54C780B78E40004EBC32436
:103ED0008B7804EB53142146FFF7DCFF034B53F8B8
:103EE00020006040C0F3C72010BD00BF607E000806
:103EF00073B51E464B7B0C7B15469A0942EA840239
:103F00000C7DC97C9B00890023F03F0301F03C013C
:103F1000194341EA9411A4008DF8051024F00F0410
:103F200001A98DF804208DF80640FFF7CBFF0309A7
:103F300000F00F002B70307002B070BD02F00F0265
:103F400042EA0111C8B2197B124A21F03F0141EA4D
:103F5000900130B532F810401973597BE5B2AA08C8
:103F600001F00F0141EA801102F030000143597362
:103F7000D97C02F00F0221F00F0111431A7DA40A2F
:103F800002F0030242EA851204F03C042243D97491
:103F90001A7530BD609E00080246222301210148A7
:103FA00000F09CBFB00C0020002230B542F20F712F
:103FB00000240025A0F86C22C0E90045A0F86E227C
:103FC000A0F87022A0F8721280F8742280F875228E
:103FD00080F8762280F8772280F8782280F879229B
:103FE00030BD0023A0F86E3280F8743280F875324C
:103FF00080F87732A0F8703242F20F73A0F8723274
:104000007047000000000000D0B52DA3D3E90023C5
:104010004FF0FF364FF6FF77044603C83040394073
:104020005040594001F0D4FF01280CDDD4E90001D3
:1040300025A3D3E90023304039405040594001F0D6
:10404000C7FF01281DDC402384F87432B4F86C32B9
:1040500003F2A51292B2B2F5107FA4F86E3201D32A
:10406000A3F19B02A4F8702203F16C0292B2B2F5A4
:10407000107F2ABFA3F5EA73A4F87222A4F8723263
:10408000D0BDD4E900013040394011A3D3E9002369
:104090005040594001F09CFF01280CDDD4E900019B
:1040A0000DA3D3E90023304039405040594001F07E
:1040B0008FFF012801DC2023C6E7D0BDAFF30080CD
:1040C00057D77FF7D7D50000F5F75F7F55D70000AA
:1040D000FD7DD55D7D7F00005F5DF5D5FF7D000036
:1040E000F0B50027BE46FDB295424DDA03F805E073
:1040F0004618347A0137E4015C5596F809C04FEA56
:104100008C1C0CF0400C44EA0C0464B25C5596F82C
:104110000AC04FEA4C1C0CF0200C44EA0C045C551D
:1041200096F80BC04FEA0C1C0CF0100C44EA0C047F
:104130005C5596F80CC04FEACC0C0CF0080C44EA25
:104140000C045C5596F80DC04FEA8C0C0CF0040C76
:1041500044EA0C045C5596F80EC04FEA4C0C0CF087
:10416000020C44EA0C045C55F67B06F0010634436D
:104170005C5501F10804A4B2B4F5107F24BFA1F589
:104180000E718CB22146AEE7F0BD000037B5044693
:10419000B0F86C0223181972D4E9002392185B411D
:1041A000002948D1C4E9002394F87732002B45D187
:1041B0002046FFF729FFB4F86C22B4F872329A4215
:1041C0006CD194F8743204F2492584F848322122E3
:1041D0002B46B4F870122046FFF782FF94F8743231
:1041E000402B40F0AC8001A8FFF752FE0DF1070311
:1041F0000DF10602294601A8FFF77AFE94F876220F
:104200009DF806309A4246D1002394F8482284F85B
:10421000753284F878329DF807301A4384F84822C2
:104220000A2B00F28880DFE803F06C5E74868686D5
:10423000264D4D864D0042F00102B3E7B4F86E12F0
:1042400001F23E239BB2B3F5107F01F1020292B25C
:1042500024BF8B1E9BB2B2F5107F24BFA1F23E2279
:1042600092B2934204DA9842A5DB9042A3DC9FE726
:104270009842FADB9CE7B4F96E225C495C4800F096
:1042800061FF04F51270FFF787FE022384F877328E
:10429000002384F87932002384F87432B4F86C3245
:1042A00094F8771201339BB2B3F5107F28BF002337
:1042B0000031A4F86C3218BF01214E48FFF728F8EE
:1042C00003B030BD94F87732022BE4D1B4F96E22FA
:1042D0004949474800F036FF04F51270FFF75CFECD
:1042E0009DF80730D5E7B4F96E224449404800F004
:1042F00029FF04F51270FFF74FFE012384F877328F
:10430000C9E794F87732012BF7D1B4F96E223C4912
:10431000ECE794F87732012BBDD1B4F96E2239491C
:10432000334800F00FFF04F51270FFF735FE20460A
:10433000FFF757FEAFE7B4F96E223349F0E7202BC1
:1043400012D1B4F96E223149294800F0FBFE04F580
:104350001270FFF721FE012384F87732002384F8DE
:10436000753284F8783296E794F87732002B92D041
:1043700094F875320133DBB20C2B84F8753206D910
:104380001B48012100F0DAFD2046FFF72AFE94F8D1
:104390007732012B18D194F8783204F51272042B7D
:1043A00083BF202384F848320023013397BFDBB258
:1043B00084F8783284F8783284F848320121222354
:1043C0000B4800F08BFD66E7022B7FF464AF94F896
:1043D0007932002B3FF45FAF43F0400384F848325A
:1043E00004F51270FFF7D8FD55E700BF60A0000884
:1043F000B00C00206C0A002080A00008A1A00008DA
:10440000C2A00008E6A000080BA1000824A1000833
:1044100080F87612704700000A46222301210148E5
:1044200000F05CBDB00C002010B540F2DC51044639
:1044300001F01DFA002304F1100204F1920102F8C8
:10444000013B8A42FBD1F022A4F89230A4F89430C8
:10445000A4F89620C4F89830204610BD792A70B58B
:1044600006460C460ED101F015FA77280CD904F156
:10447000780514F8011F304601F04DFAAC42F8D12E
:10448000002070BD042070BD052070BD2DE9F341F2
:104490000D46082400274FF001080C4E2B064FF064
:1044A00001020DF10701304604F1FF344CBF8DF8D5
:1044B00007808DF807706D00FEF7F6FD14F0FF041D
:1044C000EDB2EBD102B0BDE8F08100BF6C0A002074
:1044D00070B5044601F0FFF9B4F89230D8B9D3B9F9
:1044E00070BD782584F89C30B4F892602046731C27
:1044F000A4F8923001F034FA013D264415F0FF058E
:104500003074F1D115E0B4F894305A1CA4F894201A
:104510002344197C23E07BB91B4A1278002AE0D19E
:104520000122C4F89830B4F8963084F89C20A4F89E
:1045300092300023A4F89430B4F8923013B31348A7
:10454000FEF7D2FD0546082D1CD994F89C30002BAF
:10455000D9D07721B4F894300133A4F894302046B0
:10456000FFF794FFB4F89420B4F89230083D9A42D3
:10457000ADB2E8DB0023A4F89430A4F8923084F8BC
:104580009C3070BD70BD00BF9E0A00206C0A0020E8
:1045900001EB4101890001F51671A0F896107047F2
:1045A00008B501F077F97823B0FBF3F080B208BDCD
:1045B000012902D1014801F06DBC70470C0F0020A9
:1045C000012902D1024801F0C9BB0020704700BF99
:1045D0000C0F0020012908B504D1034801F0CFFBDE
:1045E000C0B208BD002008BD0C0F002010B5012985
:1045F00010469DF808400AD101461A46044801F0C9
:104600006DFC24B1BDE81040014801F097BC10BD1D
:104610000C0F002010B540F2DC51044601F027F9E0
:10462000002304F1100204F5857102F8013B8A426F
:10463000FBD1F022A4F80A31A4F80C31A4F80E2121
:10464000C4F81031204610BD122AF8B506460F46B0
:10465000144614D901F01EF9A04212DB013CE1B26C
:10466000304601F058F90025EBB29C4205F10105F6
:1046700009D93B445978304601F04DF9F4E704205C
:10468000F8BD0520F8BD0020F8BD00002DE9F3417C
:104690000D46082400274FF001080C4E2B064FF062
:1046A00001020DF10701304604F1FF344CBF8DF8D3
:1046B00007808DF807706D00FEF7F6FC14F0FF041C
:1046C000EDB2EBD102B0BDE8F08100BF6C0A002072
:1046D000F8B5044601F0FFF8B4F80A51F8B9F5B995
:1046E000F8BD204601F03CF9074684F81451EBB2BE
:1046F000BB4205F1010520DAB4F80A612046731CBB
:10470000A4F80A3101F02CF926443074EFE7B4F82C
:104710000C315A1CA4F80C212344197C23E07DB9E8
:104720001B4B1B78002BDCD1012384F81431B4F827
:104730000E31C4F81051A4F80A310023A4F80C314A
:10474000B4F80A3113B31348FEF7CEFC0546082D22
:104750001CD994F81431002BD9D07721B4F80C313E
:104760000133A4F80C312046FFF790FFB4F80C2178
:10477000B4F80A31083D9A42ADB2E8DB0023A4F850
:104780000C31A4F80A3184F81431F8BDF8BD00BF2B
:104790009E0A00206C0A002001EB4101890001F50E
:1047A0001671A0F80E11704708B501F073F8D82300
:1047B000B0FBF3F080B208BDF8B58478322C42D853
:1047C000C378042B3FD84278012B02F0020602F096
:1047D000040502F0080132D1D70734D587790F2FAD
:1047E00031D8003618BF0126003518BF0125003129
:1047F00018BF01211A4802F001020370194B1A4830
:104800001A701A4B1E701A4B1D701A4B19702146E4
:1048100001F01EF821461848FFF7BAFE2146174856
:10482000FFF7BAFF21461648FEF7C2FB3946154886
:10483000FFF7EEFD1448FEF759FD0020F8BD022BEE
:1048400003D1002ECAD10420F8BD032B02D1002DC4
:10485000F9D0C3E7042BC1D10029F4D0BEE700BFD3
:104860009D0A002001010020F40900200001002021
:104870000301002002010020500E0020980B0020B0
:1048800030060020B00300206C0A002010B4C3786A
:1048900082781B04417803EB0223C27984790B44AC
:1048A0001204417902EB04220A44047A017902EBF2
:1048B000046203EB0161024810BCFEF71FBC00BF9D
:1048C0006C0A00200246002300F5807102F8013BCB
:1048D0008A42FBD180F8003180F8013170471FB562
:1048E0007022E0238DF80E2082788DF80C308DF840
:1048F0000F20002204230092012103AA8DF80D301D
:10490000FFF774FE05B05DF804FB1FB57F22E023BE
:104910008DF80A2082788DF808308DF80B2000225F
:1049200005238DF80C100092012102AA8DF80930A0
:10493000FFF75CFE05B05DF804FB00002DE9F041D7
:10494000804686B04148FEF7EFFCE0238DF8083042
:104950000B2300228DF8093001233D4F8DF80B20E9
:104960003A788DF80A300AB18DF80B30394E337829
:104970002BB19DF80B3043F002038DF80B30364D10
:104980002B782BB19DF80B3043F004038DF80B30DE
:10499000324C23782BB19DF80B3043F008038DF88F
:1049A0000B302F4B29481B788DF80C302D4B1B7882
:1049B0008DF80D30FEF79EFB28B19DF80D3043F0C9
:1049C00004038DF80D302148FEF791FB28B19DF8C6
:1049D0000D3043F008038DF80D303B783BB322488F
:1049E00000F03DFF8DF80E0033781BB30A231F48FB
:1049F0008DF80F30FEF7D4FA8DF810002B78F3B154
:104A00001B48FFF7CDFD8DF811002378D3B119486D
:104A1000FFF7CAFE8DF81200002302AA00930121BD
:104A20000B234046FFF7E2FD06B0BDE8F0818DF8AC
:104A30000E30D9E78DF80F308DF81030DEE78DF8A5
:104A40001130E2E78DF81230E6E700BF6C0A002073
:104A500001010020000100200301002002010020CC
:104A60009D0A00209E0A0020F40900203006002044
:104A7000500E0020980B0020E02310B59CB08DF85C
:104A80000C30002201230D4C8DF80E208DF80F30D4
:104A9000D1B2615C131DDBB2013229B10DF1700E90
:104AA000734403F8641CF3E7009103AA01218DF815
:104AB0000D30FFF79BFD1CB010BD00BF43A10008E7
:104AC0000C2A02D90846FFF777BE04207047082A4F
:104AD00002D90846FFF7DABE042070474B1E10B516
:104AE0000C46032B0CD8DFE803F01202161D124807
:104AF000FEF762FD1148FFF709F91148FEF730FC97
:104B0000104B11481C70BDE81040FEF739BB0F4830
:104B1000FFF767FAEEE70D48FFF763FA0648FEF77E
:104B20004BFDEAE70948FFF75CFA0348FEF744FD4E
:104B30000248FFF7EBF8E3E7A0060020B80D0020DD
:104B4000A00A00209D0A00206C0A0020B00300206B
:104B500008B5DAB10E4B09781B788B4208D00429CE
:104B600014D8012906D10B4B1B787BB1FFF7B6FF98
:104B7000002008BD022901D1074BF5E7032901D127
:104B8000064BF1E70429F1D1054BEDE7042008BD00
:104B90009D0A0020010100200001002003010020E7
:104BA000020100204FF4E1320121FFF701BD0000B6
:104BB00070B50446764E774D01212046FFF700FD83
:104BC000002800F0E38001212046FFF703FD94F860
:104BD000002142B9E028EFD10123207084F8003190
:104BE00084F80121E8E7012A06D10223607084F8E5
:104BF000010184F80031DFE7A054531C94F801113F
:104C0000DBB2994284F80031D6D1A378312B00F27F
:104C1000BB80DFE803F02219263239B9B9B91CB9D3
:104C20001CB9B9B9B9B9455DB96BB9B9B9B91CB94C
:104C300076B91C1C1CB98CB9B9B9B9B9B9B9B9B92B
:104C4000B9B9B9B9B9B9A2A22046FFF777FE0023D6
:104C500084F8003184F80131AEE72046FFF70CFFFD
:104C6000F5E7023A0C2A16D9E01CFFF7A5FD01462C
:104C700090B92046FFF733FEE9E7023AD2B2E11CD1
:104C80002046FFF765FFF2E7023A082A03D9E01C45
:104C9000FFF7FCFDEBE704212046FFF736FED6E7E1
:104CA0003D4B1B78002B6DD02B78012B6AD8023A34
:104CB000D2B2E11C394800F097FB01460028EBD145
:104CC0002B78002BC3D101212046FFF707FFBEE759
:104CD000314B1B78002B55D02B78012B52D8023A40
:104CE000D2B2E11C2D4800F0A5FBE6E72A4B1B7869
:104CF000002B47D02B78012B44D8284800F0C0FB6C
:104D0000DBE7274B1B78002B3CD02B7813F0FD0FF3
:104D100038D1023AE11CD2B22248FEF79EF8014691
:104D20000028B9D12B78002B91D10221CCE71E4B62
:104D30001B783BB32B780BB1032B23D1023AE11C38
:104D4000D2B21A48FFF78AFB01460028A4D12B787B
:104D5000002B7FF47CAF0321B6E7337893B12B7837
:104D600013F0FB0F0ED1023AE11CD2B21048FFF74C
:104D70006BFC014600288FD12B78002B7FF467AFA6
:104D80000421A1E7022187E7012185E770BD00BF6B
:104D9000020100209D0A002001010020F4090020EA
:104DA000000100203006002003010020500E0020EA
:104DB000980B002030B5134B91B01B78012B1FD8F6
:104DC000114B1B78E3B1E0238DF80C301023002445
:104DD0008DF80E30E31C651CE4B29442DBB207DAB6
:104DE0000C5D0DF1400E734403F8344C2C46F1E792
:104DF00000220121009203AA8DF80D30FFF7F6FB87
:104E000011B030BD9D0A00200101002030B5134BC8
:104E100089B01B78012B1FD8114B1B78E3B1E0231D
:104E20008DF80C30112300248DF80E30E31C651C26
:104E3000E4B29442DBB207DA0C5D0DF1200E73444C
:104E400003F8144C2C46F1E700220121009203AA3A
:104E50008DF80D30FFF7CAFB09B030BD9D0A002068
:104E6000010100201FB50C4B1B78012B11D80B4BF7
:104E70001B7873B11222E0238DF80E2000228DF8EA
:104E80000C3003230092012103AA8DF80D30FFF7A7
:104E9000ADFB05B05DF804FB9D0A00200101002078
:104EA0001FB50C4B1B78012B11D80B4B1B7873B122
:104EB0001322E0238DF80E2000228DF80C300323FE
:104EC0000092012103AA8DF80D30FFF78FFB05B08A
:104ED0005DF804FB9D0A00200101002070B51E460C
:104EE000144B8CB01C7814F0FD0421D1124B1B78AC
:104EF000F3B1E02300298DF8083014BF1A231823DA
:104F000021468DF80A30CC1C4D1CC9B2B142E3B227
:104F100006DA515C0CAC1C4404F8281C2946F2E764
:104F200000220121009202AA8DF80930FFF75EFBF2
:104F30000CB070BD9D0A0020000100201FB50E4B73
:104F40001B7813F0FD0213D10C4B1B7883B1E023C7
:104F5000002914BF1B2119218DF80C3003238DF873
:104F60000E100092012103AA8DF80D30FFF73EFBD1
:104F700005B05DF804FB00BF9D0A00200001002081
:104F800030B5144BA5B01B78032B00D0FBB9124BE6
:104F90001B78E3B1E0238DF80C30202300248DF83A
:104FA0000E30E31C651CE4B29442DBB207DA0C5D00
:104FB0000DF1900E734403F8844C2C46F1E7002267
:104FC0000121009203AA8DF80D30FFF70FFB25B0E9
:104FD00030BD00BF9D0A0020030100201FB50D4B0E
:104FE0001B78032B00D08BB90B4B1B7873B121229C
:104FF000E0238DF80E2000228DF80C300323009260
:10500000012103AA8DF80D30FFF7F0FA05B05DF825
:1050100004FB00BF9D0A00200301002030B5134BA4
:10502000A1B01C7814F0FB041ED1114B1B78DBB12E
:10503000E0238DF8083030238DF80A30E31C651C1E
:10504000E4B29442DBB207DA0C5D0DF1800E7344DA
:1050500003F8784C2C46F1E700220121009202AAC5
:105060008DF80930FFF7C2FA21B030BD9D0A00204B
:105070000201002030B5134BC3B01C7814F0FB04C0
:105080001ED1114B1B78DBB1E0238DF80C3031239E
:105090008DF80E30E31C651CE4B29442DBB207DAF3
:1050A0000C5D0DF5847E734403F8FC4C2C46F1E74F
:1050B00000220121009203AA8DF80D30FFF796FA25
:1050C00043B030BD9D0A0020020100201FB50C4BEB
:1050D0001B7813F0FB0210D10A4B1B786BB1E02355
:1050E00032218DF80C3003238DF80E10009201212F
:1050F00003AA8DF80D30FFF779FA05B05DF804FBCF
:105100009D0A002002010020E02310B5A4B08DF814
:105110000C30F12300228DF80E30D4B20C5DD31C7C
:10512000DBB201322CB10DF1900E734403F8844CC4
:10513000F3E7012103AA00918DF80D30FFF756FA2D
:1051400024B010BDE02370B5A4B08DF80C30F2236C
:1051500000258DF80E30ECB2E31C0E5DDBB20DF1D4
:10516000900E0135734416B103F8846CF3E7111205
:1051700003F8841C631D043424A9E4B20C44012107
:1051800004F8842CDBB2009103AA8DF80D30FFF7F0
:105190002DFA24B070BDF0B51E46E023A5B08DF801
:1051A0000C30F3238DF80E300023DCB2E51C0F5DCC
:1051B000EDB20DF1900E0133754417B105F8847C02
:1051C000F3E71312211D05F8843CC9B224AB19443E
:1051D00001F8842C0121621DD2B21A44331202F864
:1051E000843CE31D063424AAE4B2144404F8846C1D
:1051F000DBB2009103AA8DF80D30FFF7F7F925B067
:10520000F0BDF0B5E024A5B08DF80C40F4240027E3
:10521000BDF9A8608DF80E40FCB2E51C11F804E061
:10522000EDB20DF1900C01376544BEF1000F02D0D4
:1052300005F884ECF0E7111205F8841C211D24AD5B
:10524000C9B2294401F8842C621DD2B22A44191231
:1052500002F8841C0121A21DD2B22A4402F8843C27
:10526000E31DDBB22B44321203F8842C04F1090352
:105270000834E4B22C4404F8846CDBB2009103AA35
:105280008DF80D30FFF7B2F925B0F0BD2DE9F041F2
:10529000E024A4B08DF80C40F5244FF0000EBDF9C9
:1052A000A870BDF9AC608DF80E405FFA8EF4E51C75
:1052B00011F804C0EDB20DF190080EF1010E454455
:1052C000BCF1000F02D005F884CCEEE7111205F80E
:1052D000841C211D24ADC9B2294401F8842C621D0F
:1052E000D2B22A44191202F8841C0121A21DD2B2A2
:1052F0002A4402F8843CE31DDBB22B443A1203F843
:10530000842C04F10803DBB22B4403F8847C04F101
:105310000903DBB22B44321203F8842C04F10B0393
:105320000A34E4B22C4404F8846CDBB2009103AA82
:105330008DF80D30FFF75AF924B0BDE8F081F0B5D3
:10534000B5B03A9E002934D1E0248DF80840F2240B
:105350000F468DF80A40FCB2E51C115DEDB20DF16F
:10536000D00E0137754411B105F8C81CF3E72022AF
:105370000434E4B205F8C82CCDB262185F5DD2B235
:1053800034AD0131154417B105F8C87CF4E7331288
:1053900005F8C83C931C013234A9D2B20A44012159
:1053A00002F8C86CDBB2009102AA8DF80930FFF751
:1053B0001DF935B0F0BD10B54FF4B971044600F0D9
:1053C00056FA002304F1100204F16A0102F8013BCD
:1053D0008A42FBD13C22A4F86A30A4F86C30A4F8CD
:1053E0006E202367204610BD292A70B506460C465C
:1053F00019D100F04FFA292806D802B20B490C48FF
:10540000FFF7A0FE052070BD0021304600F083FAB2
:10541000651E283415F8011F304600F07CFAA542BD
:10542000F8D1002070BD042070BD00BF27A7000880
:10543000B00C00200C2A70B506460C4619D100F0BD
:1054400029FA0C2806D802B20B490C48FFF77AFE5D
:10545000052070BD0121304600F05DFA651E0B3459
:1054600015F8011F304600F056FAA542F8D1002089
:1054700070BD042070BD00BF64A70008B00C002000
:1054800010B5044600F006FA024628B90549064858
:10549000FFF758FE052010BD0221204600F03BFA20
:1054A000002010BD47A70008B00C002000231846BC
:1054B0002DE9F04F97B001AC1855D0540133532B60
:1054C000FAD100204FF0010C05460446DFF8B4E1A4
:1054D00001392B4606462546002711F8018F0CFAA4
:1054E00007F418EA040F14BF0124002404EB030995
:1054F0002B442344DB0709F001090CD506F0070310
:105500001EF803A016AB03EBD60313F854BC4AEA0B
:105510000B0A03F854ACB9F1000F0ED0731C0DF157
:10552000580909EBD30903F0070319F854AC1EF826
:10553000033043EA0A0309F8543C0137082F06F107
:1055400002062B4640F087801030B0F5287FC0D18E
:105550004A4F00233846012407EB4301B3F5257F6A
:105560007DD216AD05EBD30515F8545C2E060AD591
:1055700091F800E04E7812F80EC004FA06F646EAFA
:105580000C0602F80E606E060AD591F802E0CE789D
:1055900012F80EC004FA06F646EA0C0602F80E608F
:1055A000AE060AD591F804E04E7912F80EC004FA5E
:1055B00006F646EA0C0602F80E60EE060AD591F8E9
:1055C00006E0CE7912F80EC004FA06F646EA0C069A
:1055D00002F80E601E1DB6F5257F01F108013CD2D0
:1055E00029070BD510F816E000EB4606717812F883
:1055F0000E6004FA01F1314302F80E1069070CD570
:10560000591D10F8116000EB4101497812F806E0CD
:1056100004FA01F141EA0E019155AE070CD5991D2E
:1056200010F8116000EB4101497812F806E004FA25
:1056300001F141EA0E019155E9070AD5D91D10F88B
:10564000115000EB41014978565D04FA01F13143F4
:105650005155083380E7254641E733467EE700236E
:10566000074C013A5178185D01334140532B02F841
:10567000011FF7D117B0BDE8F08F00BFFFA10008F0
:10568000A4A1000890A100082DE9F74301240F46CA
:1056900008254FF00008A1460C4E34EA07034FF0EE
:1056A00001020DF10701304605F1FF350CBF8DF801
:1056B00007908DF807806400FDF7F6FC15F0FF05F4
:1056C000E4B2EAD103B0BDE8F08300BF6C0A002069
:1056D00070B5A2B0044600F0FEF8002840F08D80BE
:1056E000B4F86A30002B40F0888022B070BD8DB9CC
:1056F000544B1B788BBB01222367B4F86E3084F8BF
:105700007420A4F86A300023A4F86C30B4F86A302E
:10571000002BEAD04C48FDF7E7FC0546082DE4D9FC
:1057200094F87430002B60D0AA21B4F86C300133A7
:10573000A4F86C302046FFF7A7FFB4F86C20B4F84B
:105740006A30083D9A42ADB2E8DB0023A4F86C3021
:10575000A4F86A3084F87430C7E784F8745020469F
:1057600000F0FEF801AE204600F0FAF87055013561
:10577000292DF8D131460DF132022046FFF796FE71
:10578000EA238DF83030A6238DF831300023B4F8A9
:105790006A100CADCA18585D92B201332244552BE1
:1057A0001074F7D15531A4F86A10ACE70228ADD1D6
:1057B000002DAFD184F87450204600F0D1F8B4F831
:1057C0006A30224D03F1120080B200229918565D12
:1057D00089B201322144062A0E74F7D106339BB2F6
:1057E0009842F2D1A4F86A008DE7B4F86C305A1CE4
:1057F000A4F86C202344197C9CE7204600F0ABF809
:10580000B4F86A5000283FF472AF0128CED1002DC1
:1058100080D10C4B84F874501B7803B92367204661
:1058200000F09EF80C25B4F86A602046731CA4F8BA
:105830006A3000F095F8013D264415F0FF053074FC
:10584000F1D160E79E0A00206C0A002098A10008B0
:1058500001EB410149009631A0F86E10704708B580
:1058600000F018F80D23B0FBF3F080B208BD002360
:1058700010B50381044643810180436003730846E9
:1058800000F0CCFB6060204610BD00230381438103
:10589000037370474289038992B29BB29A4202888D
:1058A00008D1037B002B0CBF104600209042C8BFDC
:1058B000002070474189038989B29BB29942BBBFDE
:1058C00003894089438980B2ADBF00898018C01A1E
:1058D000181A80B2EAE74289038992B29BB29A42CF
:1058E00005D1027B02F0FF039AB10088704742891C
:1058F000038992B29BB29A4204DA03894089181A4A
:1059000080B270474289038900889BB21844801A8C
:10591000F6E718467047037B10B503F0FF02C3B9E2
:10592000038944689BB2E1540389018801339BB227
:10593000038103899BB28B42A8BF028102894389FC
:1059400092B29BB29A424FF0010300D10373184602
:1059500010BD002010BD438942689BB2D05C7047E7
:1059600010B54289416892B20346885C00211973E0
:105970005A891C88013292B25A815A89C0B292B2B5
:10598000A242A8BF598110BD70B51F24164E174DF5
:1059900031682846E14011F0010118BF0121FDF7EF
:1059A000A3F81248FCF766FF01211048FDF794F8B0
:1059B0000E48FCF75FFF00210C48FDF78DF814F14D
:1059C000FF34E5D201210948FDF7A2F80748FCF7AA
:1059D00051FF00210548FDF79BF8BDE8704000210C
:1059E0000248FDF781B800BFFC0E00206C0A0020C1
:1059F00010B50446074B1A68074B1A60FFF7C4FF3F
:105A000020460121FDF752F82046BDE81040012153
:105A1000FDF7DAB8040F0020FC0E002010B5044694
:105A2000FCF722FF074B1A68074B1A60FFF7ACFF21
:105A300020460021FDF73AF82046BDE8104000213D
:105A4000FDF7C2B8000F0020FC0E0020000000008F
:105A50002DE9F84F07460021FDF762F83846FCF7BC
:105A600003FF01213846FDF75BF83846FCF7FCFEE2
:105A70008D4B8E4AD3F800908D4B4B44934240F2AD
:105A8000C6808C4B8C4A4B44934240F2C0808B4B77
:105A90008B4A4B4493428B4B8B4A8DBF9846904622
:105AA00002240124894B012C1D78894B1868A0F52C
:105AB000C330A0F1A00040F0AE8000F0F1FC76A36E
:105AC000D3E9002300F08CFE01F01AF8824600F0C2
:105AD0005FFB01F039FBC6B2304601F01BF901460D
