:020000040800F2
:100000000000022049200008452000084520000883
:100010004520000845200008452000080000000099
:100020000000000000000000000000004520000863
:100030004520000800000000452000084520000879
:1000400045200008452000084520000845200008FC
:1000500045200008452000084520000845200008EC
:1000600045200008452000084520000845200008DC
:1000700045200008452000084520000845200008CC
:1000800045200008452000084520000845200008BC
:1000900045200008452000084520000845200008AC
:1000A000452000084520000845200008452000089C
:1000B000B921000845200008452000084520000817
:1000C000452000084520000845200008452000087C
:1000D000452000084520000845200008D95C00089C
:1000E000452000084520000845200008452000085C
:1000F000452000084520000845200008452000084C
:10010000452000084520000845200008452000083B
:1001100045200008A55F000845200008452000088C
:10012000452000084520000845200008452000081B
:10013000452000084520000845200008452000080B
:1001400045200008452000084520000845200008FB
:1001500045200008452000084520000845200008EB
:1001600045200008452000084520000845200008DB
:1001700045200008452000084520000845200008CB
:10018000452000084520000810B5054C237833B9F8
:10019000044B13B10448AFF300800123237010BD5A
:1001A000F80200200000000060C200080C4B43B1C0
:1001B0000C480D4910B5AFF300800C48036823B913
:1001C00010BD0A48036833B97047094B002BF7D0BC
:1001D000BDE810401847064B002BF5D0184700BF6C
:1001E0000000000060C20008FC020020F0020020B5
:1001F00000000000154B002B08BF134B9D46A3F5D4
:10020000803A00218B460F461348144A121A08F010
:1002100038FA0F4B002B00D098470E4B002B00D024
:1002200098470020002104000D000D48002802D04E
:100230000C48AFF3008008F0E5F92000290002F037
:1002400065FC08F0CBF900BF0000080000000000CA
:100250000000000000000000F802002058610020AB
:1002600000000000000000000E4B1A68002142F060
:1002700001021A6099601A6822F0A85222F4102232
:100280001A60094A5A60094AC3F8842002F1806260
:10029000C3F888201A6822F480221A60D960C3F853
:1002A0008C107047003802401030002400300020CD
:1002B000024B00221A701870704700BF02380240CB
:1002C000034A136823F0F80343EAC0001060704744
:1002D00000380240014B1860704700BF00004742E1
:1002E000064B002201281A701A7002D0042802D08E
:1002F00070471870704705221A70704770380240B6
:10030000014B1860704700BF800E474210B5029C39
:1003100040EA046008435B08013B40EA821040EA7F
:100320000340014B586010BD00380240014B18607B
:10033000704700BF600047420907034B41EA801144
:10034000C3F88410704700BF00380240014B1860AA
:10035000704700BF68004742120742EA0162034B40
:1003600042EA8012C3F88820704700BF003802407C
:10037000014B1860704700BF70004742014B186086
:10038000704700BF4C004742034A936823F0EC6378
:10039000194301439160704700380240034A936853
:1003A00023F07843194301439160704700380240BD
:1003B000034A936823F0030318439060704700BF1B
:1003C00000380240024B986800F00C00704700BFF4
:1003D00000380240034A936823F0F003184390600A
:1003E000704700BF00380240034A936823F4E0538B
:1003F00018439060704700BF00380240034A93687A
:1004000023F4604343EAC000906070470038024024
:100410001D4A936803F00C03042B10B51AD0082B67
:100420001AD01A4B184A036093681949C3F303138F
:10043000CC5C0368E34043609468C4F382240C5DA1
:1004400023FA04F484609268C2F342328A5CD34097
:10045000C36010BD0F4BE5E75468516852686302F2
:10046000C2F3881201F03F014CBF0A4B074BB3FBAC
:10047000F1F35343044A5268C2F30142013252007D
:10048000B3FBF2F3CEE700BF003802400024F400D3
:100490000400002000127A0000F44073B3F5407F9E
:1004A000084A08D1916820F0704321F4F81123F430
:1004B00040730B439360136FC0F30B001843106736
:1004C000704700BF00380240014B1860704700BF02
:1004D0003C0E4742014B1860704700BF400E474238
:1004E000014B1860704700BF5C014742044AD2F8D4
:1004F0008C3023F440131843C2F88C00704700BFBF
:1005000000380240044AD2F88C3023F440031843E8
:10051000C2F88C00704700BF00380240044AD2F88D
:100520008C30013823F01F031843C2F88C00704749
:1005300000380240054AD2F88C30013823F4F853D1
:1005400043EA0023C2F88C30704700BF00380240F5
:10055000044AD2F88C3023F440331843C2F88C009C
:10056000704700BF00380240014B1860704700BF61
:10057000E0114742044B1A6B11B1104318637047E6
:1005800022EA0000FAE700BF00380240044B5A6B31
:1005900011B110435863704722EA0000FAE700BF28
:1005A00000380240044B9A6B11B1104398637047B6
:1005B00022EA0000FAE700BF00380240044B1A6C40
:1005C00011B110431864704722EA0000FAE700BF37
:1005D00000380240044B5A6C11B110435864704704
:1005E00022EA0000FAE700BF00380240044B1A6913
:1005F00011B110431861704722EA0000FAE700BF0A
:1006000000380240044B5A6911B1104358617047D9
:1006100022EA0000FAE700BF00380240044B9A6962
:1006200011B110439861704722EA0000FAE700BF59
:1006300000380240044B1A6A11B110431862704727
:1006400022EA0000FAE700BF00380240044B5A6A71
:1006500011B110435862704722EA0000FAE700BF68
:1006600000380240044B1A6D11B1104318657047F1
:1006700022EA0000FAE700BF00380240044B5A6D3E
:1006800011B110435865704722EA0000FAE700BF35
:1006900000380240044B9A6D11B1104398657047C1
:1006A00022EA0000FAE700BF00380240044B1A6E4D
:1006B00011B110431866704722EA0000FAE700BF44
:1006C00000380240044B5A6E11B11043586670470F
:1006D00022EA0000FAE700BF00380240044B1A6F1C
:1006E00001280CBF42F0080222F008021A67704786
:1006F00000380240044B1A7811B11043187070474B
:1007000022EA0000FAE700BF0D3802404209012A40
:10071000074B07D11B6800F01F0023FA00F000F020
:1007200001007047022A0CBF1B6F5B6FF3E700BF2D
:100730000038024007B5002301933120FFF7E6FFA0
:10074000019B01330193019BB3F5A04F01D0002819
:10075000F3D03120FFF7DAFF003018BF012003B0DB
:100760005DF804FB024A536F43F080735367704790
:1007700000380240034BDB68184214BF0120002000
:10078000704700BF00380240014B1870704700BF2F
:100790000E38024008B53C4B984209D10121084669
:1007A000FFF724FF00210120BDE80840FFF71EBF2E
:1007B000364B984206D101210220FFF717FF002196
:1007C0000220F1E7324B984206D101210420FFF7C5
:1007D0000DFF00210420E7E72E4B984206D10121AE
:1007E0000820FFF703FF00210820DDE72A4B98428D
:1007F00006D101211020FFF7F9FE00211020D3E7D8
:10080000264B984206D101212020FFF7EFFE002160
:100810002020C9E7224B984206D101214020FFF752
:10082000E5FE00214020BFE71E4B984206D1012182
:100830008020FFF7DBFE00218020B5E71A4B9842AD
:1008400008D101214FF48070FFF7D0FE00214FF452
:100850008070A9E7154B984208D101214FF4007030
:10086000FFF7C4FE00214FF400709DE7104B984243
:1008700008D101214FF48060FFF7B8FE00214FF44A
:10088000806091E708BD00BF000002400004024004
:1008900000080240000C0240001002400014024018
:1008A00000180240001C02400020024000240240C8
:1008B000002802402DE9F0430D68002201260324A0
:1008C00006FA02FC3CEA05033DD15700D0F800E0EF
:1008D00004FA07F3DB430EEA030EC0F800E091F8D8
:1008E00004E0D0F800900EFA07F80EF1FF3E48EA57
:1008F0000908BEF1010FC0F8008017D8D0F808E051
:1009000003EA0E0383604B79D0F808E0BB4043EA6A
:100910000E038360436823EA0C0343608B79D0F8AD
:1009200004E093409BB243EA0E034360C36804FAB9
:1009300007FE23EA0E03C360CB79D0F80CE0BB407E
:1009400043EA0E03C3600132102AB9D1BDE8F08337
:100950004FF6FF7303600023037143718371C3710A
:10096000704782B04FF480330193019B0B43019396
:10097000019BC361C161019BC361C3690193C369E9
:10098000019302B070470369194214BF012000208F
:100990007047006980B270474369194214BF012053
:1009A00000207047406980B27047018370474183DF
:1009B00070470AB1018370474183704741617047B6
:1009C000436959404161704701F00703C90800EBD2
:1009D000810010B5016A9B000F249C4021EA0401AC
:1009E0000162016A9A400A43026210BD30B5048C6C
:1009F00024F001042404240C0484048B058C24F0CA
:100A0000F304240442EA0313240C1C4325F00A03D4
:100A10001B041B0C41F00101A4B20B4304830384AB
:100A200030BD30B5048C24F010042404240C04845C
:100A3000058B048C120242EA033324F0A00225F451
:100A4000407512042D05120C2D0D42EA01111D43B3
:100A500041F01001ADB289B20583018430BD0000C0
:100A600008B54D4B984209D101210846FFF7EEFD2C
:100A700000210120BDE80840FFF7E8BDB0F1804F3C
:100A800009D101210846FFF7D5FD00210120BDE86D
:100A90000840FFF7CFBD414B984206D1012102200B
:100AA000FFF7C8FD00210220F1E73D4B984206D137
:100AB00001210420FFF7BEFD00210420E7E7394BA8
:100AC000984206D101210820FFF7B4FD002108203B
:100AD000DDE7354B984206D101211020FFF7AAFD32
:100AE00000211020D3E7314B984206D1012120206C
:100AF000FFF7A0FD00212020C9E72D4B984206D129
:100B000001210220FFF7A2FD00210220B2E7294BBC
:100B1000984208D101214FF48030FFF797FD002162
:100B20004FF48030A6E7244B984208D101214FF4BE
:100B30000030FFF78BFD00214FF400309AE71F4B88
:100B4000984208D101214FF48020FFF77FFD00215A
:100B50004FF480208EE71A4B984206D101214020A5
:100B6000FFF768FD0021402091E7164B984206D11F
:100B700001218020FFF75EFD0021802087E7124BD6
:100B8000984208D101214FF48070FFF753FD0021F6
:100B90004FF480707BE708BD000001400004004076
:100BA00000080040000C004000100040001400400D
:100BB0000004014000400140004401400048014061
:100BC00000180040001C0040002000401C4A038820
:100BD00090429BB212D002F5806290420ED0B0F1EA
:100BE000804F0BD0A2F58032904207D002F5806290
:100BF000904203D002F58062904203D14A8823F0EC
:100C0000700313430F4A904208D002F5806290426D
:100C10001FBF23F440730A899BB2134303804B68C0
:100C2000C3620B880385064B984203D003F58063AB
:100C3000984201D18B7A038601238382704700BFDB
:100C400000000140001000404FF0FF3343600023DC
:100C500003800381438083727047018582827047DD
:100C6000038823F070031B041B0C19430180704799
:100C700041627047C1627047406A7047008D80B220
:100C80007047038821B19BB243F002030380704791
:100C900023F002031B041B0CF8E7038821B19BB26D
:100CA00043F004030380704723F004031B041B0C70
:100CB000F8E7038821B19BB243F0800303807047BB
:100CC00023F080031B041B0CF8E7038823F00803C0
:100CD0001B041B0C038003889BB2194301807047DF
:100CE000038823F440731B041B0C038003889BB20E
:100CF000194301807047038821B19BB243F001037F
:100D00000380704723F001031B041B0CF8E700006D
:100D1000038C23F001031B041B0C038470B5038CAC
:100D20008288048B0D884E8824F073042404240CDC
:100D30002C4323F002038D891B0435431B0C2B43EA
:100D40000E4DA84292B29BB203D005F58065A84231
:100D50000ED1CD894E8A23F008032B438D8823F0D2
:100D600004032B430D8A22F4407235432A4392B286
:100D700082808A6804834263038470BD000001405E
:100D8000038C23F010031B041B0C038470B5038C2D
:100D90008488028B0D884E8822F4E6421204120CDD
:100DA00042EA052223F020038D891B0435431B0CE6
:100DB00043EA0513114DA842A4B292B29BB203D0EC
:100DC00005F58065A84213D1CD894E8A23F08003B2
:100DD00043EA05134FF6BF751D408B8845EA0313A0
:100DE0000D8A24F44064354344EA85049BB2A4B2DE
:100DF000848002838A688263038470BD000001409E
:100E0000038C23F480731B041B0C038470B5038CC8
:100E10008288848B0D884E8824F073042404240C6B
:100E20002C4323F400738D891B0435431B0C43EAC8
:100E30000523114DA84292B29BB203D005F58065FF
:100E4000A84213D1CD894E8A23F4006343EA0523D7
:100E50004FF6FF351D408B8845EA03230D8A22F4A7
:100E60004052354342EA05129BB292B282808A68B0
:100E70008483C263038470BD00000140038C23F4AB
:100E800080531B041B0C038470B5038C8488828BF5
:100E90000D884E8822F4E6421204120C42EA052222
:100EA00023F400538D891B0435431B0C43EA05339F
:100EB0000A4DA842A4B292B29BB203D005F5806558
:100EC000A84205D10D8A24F4804444EA8514A4B2D2
:100ED000848082838A680264038470BD00000140BC
:100EE000002303804380838083608381C3810382E6
:100EF0004382704730B5048C0125A4B28D4024EAAA
:100F0000050400F11803048421F0080050B94908D1
:100F1000C85820F070000004000CC850C8580243A4
:100F2000CA5030BD0439C1F34E011202C85820F432
:100F3000E0400004000CC85092B2C858EFE741638B
:100F4000704781637047C163704701647047038BCA
:100F500023F070031B041B0C194301837047038BA0
:100F600023F4E0431B041B0C43EA012189B20183F3
:100F70007047838B23F070031B041B0C1943818380
:100F80007047838B23F4E0431B041B0C43EA0121CD
:100F900089B281837047038B23F008031B041B0C69
:100FA000194301837047038B23F400631B041B0C5C
:100FB00043EA012189B201837047838B23F0080340
:100FC0001B041B0C194381837047838B23F400633C
:100FD0001B041B0C43EA012189B281837047038BF8
:100FE00023F004031B041B0C194301837047038B7C
:100FF00023F480631B041B0C43EA012189B20183A3
:101000007047838B23F004031B041B0C194381835B
:101010007047838B23F480631B041B0C43EA01217C
:1010200089B281837047038B23F080031B041B0C60
:10103000194301837047038BC3F30E0343EA012175
:1010400089B201837047838B23F080031B041B0C40
:10105000194381837047838BC3F30E0343EA012155
:1010600089B281837047038C23F002031B041B0C9D
:10107000194301847047038C23F008031B041B0CE5
:10108000194301847047038C23F020031B041B0CBD
:1010900043EA011189B201847047038C23F0800375
:1010A0001B041B0C43EA011189B201847047038CB5
:1010B00023F400731B041B0C43EA012189B2018451
:1010C0007047038C23F400631B041B0C43EA0121CB
:1010D00089B201847047038C23F400531B041B0C5A
:1010E00043EA013189B201847047038C10B50124B1
:1010F0008C409BB223EA04030384038C02FA01F1BF
:10110000194389B2018410BD038C10B504248C40AE
:101110009BB223EA04030384038C02FA01F119430E
:1011200089B2018410BD00230122038043808280A4
:10113000C38003817047406B7047806B7047C06B02
:101140007047006C7047038B23F00C031B041B0CCF
:101150000383038B9BB2194301837047038B23F4F2
:1011600040631B041B0C0383038B9BB243EA0121E6
:1011700089B201837047F8B50C464988A288B4F853
:1011800000E0238900290CBF02260026012A0CBF9B
:1011900002270127BEF1000F0ED1FFF727FCE188DF
:1011A000FFF7D1FF314623893A46FFF73AFCE18841
:1011B000BDE8F840FFF7D2BFFFF733FCE188FFF747
:1011C000CDFF314623893A46FFF710FCE188BDE8A0
:1011D000F840FFF7B8BF838B23F00C031B041B0CF4
:1011E0008383838B9BB2194381837047838B23F462
:1011F00040631B041B0C8383838B9BB243EA012156
:1012000089B281837047F8B50E880B898A880D46AC
:10121000498836B9FFF7EAFBE988BDE8F840FFF7EF
:1012200092BF042E06D1FFF7FCFBE988BDE8F84029
:10123000FFF794BF082EEF88058C1CD125F480752C
:101240002D042D0C0584868B058CB6B226F0F30692
:101250003243ADB242EA031325F4206242F48072B5
:1012600042EA01229BB292B2838339460284BDE8EE
:10127000F840FFF7B0BF25F480552D042D0C0584F0
:10128000868B058C1B0343EA022326F4407645F641
:10129000FF722A403605360D42F48052334342EA4B
:1012A00001329BB292B2838339460284BDE8F84092
:1012B000FFF79CBF4A880B8813438A881343CA8868
:1012C00013430A8913434A8913438A8913439BB200
:1012D000A0F8443070470023038043808380C3809C
:1012E0000381438183817047B0F8443039B16FEA9C
:1012F00043436FEA53439BB2A0F844307047C3F3B3
:101300000E03F9E7838821B19BB243F00403838085
:10131000704723F004031B041B0CF8E7838821B1FA
:101320009BB243F001038380704723F001031B0449
:101330001B0CF8E781827047038A194214BF012011
:1013400000207047C94389B201827047038A8289AD
:1013500011EA030092B203D0114214BF0120002011
:101360007047C94389B2018270470A43A0F84820F8
:10137000704783899BB212B119438181704723EA78
:101380000101FAE7FFF7F5BF838821B19BB243F073
:1013900008038380704723F008031B041B0CF8E745
:1013A000038923F007031B041B0C03817047038987
:1013B00023F070031B041B0C1943018103899BB2AA
:1013C00043F007030381704738B50D46602D114681
:1013D00004464FF001020ED1FFF723FB218921F0D3
:1013E00070010904090C2943218123899BB243F030
:1013F0000703238138BDFFF7F9FAEFE7038923F0EC
:1014000070031B041B0C194301817047838823F070
:1014100070031B041B0C838083889BB2194381805B
:101420007047038923F007031B041B0C0381038906
:101430009BB2194301817047038923F080031B0489
:101440001B0C038103899BB219430181704710B5BE
:1014500004890A43E4B242EA03231C43A4B2048190
:1014600010BD10B5FFF7F3FF038923F077031B04CA
:101470001B0C43F07703038110BD10B5FFF7E7FFA6
:1014800003899BB243F48043038110BD70B5068984
:10149000048B058C24F4407424F0030425F0220509
:1014A00026F0070624042D043604240C2D0C42EAF1
:1014B0000313360C44F480741D43314344F001049B
:1014C000ADB201810483058470BD838821B19BB2D4
:1014D00043F080038380704723F080031B041B0CC0
:1014E000F8E7A0F85010704708B501214FF480705C
:1014F000FFF7ACF800214FF48070BDE80840FFF71B
:10150000A5B8000043680A7923F0407323F4807380
:1015100043EA02230A6813434360CA680B69134312
:101520008A6810B513438468084A224013434A79F5
:1015300043EA420383600A7DC36A013A23F47003DD
:10154000D2B243EA0253C36210BD00BFFDF7FFC031
:1015500000230360037143718360C360036101234F
:101560000375704790E80C00064910B513434C68AA
:10157000054A2240134382681343C26813434B60F9
:1015800010BD00BF00230140E030FCFF00230360DA
:1015900043608360C3607047836819B143F00103FF
:1015A0008360704723F00103FAE7436823F44003A4
:1015B00023F40073194341607047416282627047AF
:1015C000436823F01F03194341607047044B5A6876
:1015D00018B142F400025A60704722F40002FAE7A0
:1015E00000230140044B5A6818B142F480025A604B
:1015F000704722F48002FAE700230140092970B500
:101600001BD9A1F10A04C56804EB44040726A640CF
:1016100025EA060503FA04F42C43C460062A18D808
:10162000013A436B02EB82021F24944023EA040335
:1016300001FA02F21A43426370BD056901EB4106EB
:101640000724B44025EA040503FA06F42C43046198
:10165000E4E70C2A0CD8073A036B02EB82021F2442
:10166000944023EA040301FA02F21A43026370BDB4
:101670000D3AC36A02EB82021F24944023EA04035A
:1016800091401943C16270BD836843F08043836019
:1016900070478068C0F380707047836819B143F465
:1016A00080638360704723F48063FAE7836819B12D
:1016B00043F002038360704723F00203FAE74368B4
:1016C000013923F4604343EA413343607047436880
:1016D00019B143F400634360704723F40063FAE7F1
:1016E000C06C80B270470000014B1868704700BFA3
:1016F00008230140836819B143F480738360704705
:1017000023F48073FAE7836819B143F400738360AC
:10171000704723F40073FAE7044B5A6818B142F497
:1017200000525A60704722F40052FAE70023014049
:10173000092970B51CD9A1F10A04C56804EB440459
:101740000726A64025EA060503FA04F42C43C460E4
:10175000836B0232C3F30154121BD2B202EB82023A
:101760001F24944023EA040391401943816370BD10
:10177000056901EB41060724B44025EA040503FA94
:1017800006F42C430461E3E7836B013923F440132F
:1017900043EA01538363704782B0002301930190B1
:1017A000019B19440191019B1A6002B07047836844
:1017B00023F47023194381607047836823F4401336
:1017C000194381607047836843F4800383607047E6
:1017D0008068C0F380507047436819B143F4806358
:1017E0004360704723F48063FAE7436819B143F418
:1017F00080534360704723F48053FAE782B000239C
:1018000001930190019B283319440191019B1868B1
:1018100080B202B070470123C9B203FA01F14368F4
:1018200012B119434160704723EA0101FAE70368E6
:10183000194214BF012000207047C943016070475E
:101840004268006810EA112007D00123C9B203FAE8
:1018500001F1114214BF1846002070476FEA1121B0
:101860000160704708B5314B984209D10121102021
:10187000FEF7ECFE00211020BDE80840FEF7E6BEB2
:101880002B4B98420BD101214FF40030FEF7D2FED2
:1018900000214FF40030BDE80840FEF7CBBE254BD9
:1018A000984208D101214FF48020FEF7C3FE0021A9
:1018B0004FF48020EFE7204B984208D101214FF4EC
:1018C0000020FEF7B7FE00214FF40020E3E71B4B9A
:1018D000984208D101214FF48010FEF7ABFE0021A1
:1018E0004FF48010D7E7164B984206D101212020F3
:1018F000FEF7ACFE00212020BEE7124B984208D133
:1019000001214FF08040FEF795FE00214FF080400E
:10191000C1E70D4B984208D101214FF00040FEF77E
:1019200089FE00214FF00040B5E708BD00100140DE
:101930000044004000480040004C0040005000407F
:101940000014014000780040007C0040028A30B55D
:101950000D4692B2EB88898922F440521A430282E2
:101960008389044623F4B0522889AB8803436889ED
:1019700022F00C0203431204120C9BB21343A38106
:10198000A38A9BB223F440730B4385B0A3826846BD
:10199000FEF73EFD194B9C4203D003F580639C4249
:1019A00022D10399A38913F4004F2B684FF0190239
:1019B00014BF5B009B004A43B2FBF3F1A28964258C
:1019C0001204B1FBF5F34FEA031005FB13130DD519
:1019D000DA003232B2FBF5F202F0070242EA00030B
:1019E0009BB2238105B030BD0299DBE71B01323386
:1019F000B3FBF5F303F00F030343F1E700100140DD
:101A00004FF4165303600C2200238380C3800381AC
:101A1000428183817047038A9BB223F4706210B5C0
:101A20000B884C8823438C88C98823430B439BB283
:101A30001343038210BD0023038043808380C3804F
:101A40007047838921B19BB243F40053838170476F
:101A500023F400531B041B0CF8E7038B03F47F43B0
:101A60000383038B9BB2194301837047838931B190
:101A70006FEA43436FEA53439BB283817047C3F3DA
:101A80000E03FAE7838A21B19BB243F40063838299
:101A9000704723F400631B041B0CF8E7C1F3080133
:101AA000818070478088C0F308007047038A23F064
:101AB0000F031B041B0C0382038A9BB21943018290
:101AC0007047838921B19BB243F002038381704741
:101AD00023F002031B041B0CF8E7838923F4006343
:101AE0001B041B0C838183899BB21943818170473E
:101AF000038A23F020031B041B0C0382038A9BB27E
:101B0000194301827047038A21B19BB243F4804399
:101B10000382704723F480431B041B0CF8E783897E
:101B20009BB243F0010383817047838A21B19BB24A
:101B300043F008038382704723F008031B041B0C47
:101B4000F8E7038BDBB20383038B9BB243EA0121EB
:101B500001837047838A21B19BB243F020038382C3
:101B6000704723F020031B041B0CF8E7838A21B184
:101B70009BB243F010038382704723F010031B04D1
:101B80001B0CF8E7838A23F004031B041B0C8382DD
:101B9000838A9BB2194381827047838A21B19BB2A9
:101BA00043F002038382704723F002031B041B0CE3
:101BB000F8E7838A9BB212B119438182704723EA06
:101BC0000101FAE710B5C1F3421401F01F03012C23
:101BD0004FF0010101FA03F105D10C3003683AB16D
:101BE0001943016010BD022C0CBF10301430F5E712
:101BF00023EA0101F5E70388194214BF0120002000
:101C00007047C94389B201807047C1F3421210B5D1
:101C1000012301F01F04012A03FA04F30ED1828983
:101C200092B21340028892B26BB10123090A03FAFF
:101C300001F10A4214BF1846002010BD022A0CBF51
:101C4000028A828AECE7184610BD0B0A01219940EE
:101C5000C94389B20180704740F0BF60024B40F435
:101C60000030D860704700BF00ED00E010B5C378C9
:101C70000278FBB1154BD96843788078C943C1F32A
:101C80000221C1F10404E4B2A3400F2444FA01F19B
:101C90000140DBB20B430E491B018818DBB280F810
:101CA00000335009012302F01F0203FA02F241F847
:101CB000202010BD5309012102F01F0201FA02F297
:101CC0002033034941F8232010BD00BF00ED00E0A0
:101CD00000E100E021F0604121F07F01014B014370
:101CE0009960704700ED00E0044B1A6911B1104390
:101CF0001861704722EA0000FAE700BF00ED00E03B
:101D0000044B1A6804280CBF42F0040222F00402BB
:101D10001A60704710E000E008B501214FF0005054
:101D2000FEF788FC00214FF00050BDE80840FEF7A8
:101D300081BC000030B5094C40F6FE732268834038
:101D400022EA030291E828002B438D68C9682B43DF
:101D50000B4303FA00F01043206030BD00740040D4
:101D60000023036043608360C3607047064A012319
:101D700021B1116883400B431360704711688340A1
:101D800021EA0303F8E700BF00740040064A000997
:101D9000012321B1516883400B4353607047516860
:101DA000834021EA0303F8E700740040044B5A68BB
:101DB00018B142F003025A60704722F00302FAE7BA
:101DC0000074004082B000230193054B0193019BF6
:101DD000083318440190019B196002B0704700BF9E
:101DE0000074004082B000230193054B0193019BD6
:101DF000143318440190019B196002B0704700BF72
:101E0000007400400828044B0CBF42EA012242EA59
:101E10000142C250704700BF2074004082B00023CE
:101E20000193064B0193019B2C3303EB900001902F
:101E3000019B186880B202B0704700BF0074004078
:101E4000064A4FF4805321B1116883400B4313605D
:101E500070471168834021EA0303F8E700740040EB
:101E6000044B8140186812B101431960704720EAA1
:101E70000101FAE700740040FFF7F2BF034B5B6B10
:101E80008140194214BF01200020704700740040B7
:101E9000014B81405963704700740040054B8140FD
:101EA0001A68586B084003D00A4214BF0120002072
:101EB000704700BF00740040014B81405963704778
:101EC00000740040374AD2F8883043F47003C2F8F7
:101ED0008830354B1A68002142F001021A6099607F
:101EE0001A6822F0847222F480321A602F4A5A60F3
:101EF0001A6882B022F480221A60D96000910191A0
:101F00001A6842F480321A6019461A6802F40032E4
:101F10000192009A01320092019A1AB9009AB2F520
:101F2000A04FF2D10B6813F4003318BF01230193C3
:101F3000019B012B05D01B4B4FF000629A6002B051
:101F40007047194B1A491A6C42F080521A640A6899
:101F500042F440420A609A689A609A6842F40042E9
:101F60009A609A6842F4A0529A60124A5A601A68BB
:101F700042F080721A601A689201FCD50E4A40F253
:101F8000057111609A6822F003029A609A6842F023
:101F900002029A60044A936803F00C03082BFAD1FA
:101FA000C9E700BF00ED00E0003802401030002417
:101FB0000070004008544007003C0240174A18498E
:101FC000936803F00C03042B10B50DD0082B0DD033
:101FD000144B0B60114B144A9B68C3F30313D25C80
:101FE0000B68D3400B6010BD104BF2E7546850688B
:101FF00052686302C2F3881200F03F004CBF0B4BE3
:10200000084BB3FBF0F35343044A5268C2F3014256
:1020100001325200B3FBF2F3DBE700BF00380240AD
:10202000240000200024F4001400002000127A0094
:1020300038B504460D46AC4200D338BD54F8043BD5
:102040009847F8E7FEE7000008B5104A104B114921
:102050008B4216D3144815494FF000028842B8BF8E
:1020600040F8042BFADBFFF72DFF0B490B48FFF775
:10207000DFFF0B490B48FFF7DBFFBDE8084000F02E
:1020800045BD52F8040F43F8040BE1E768C20008AD
:1020900000000020F002002054C2000854C20008D2
:1020A0005CC2000854C20008F802002058610020F9
:1020B00073B56846FEF74CFC00260220012101247E
:1020C0008DF805008DF807001A4D8DF80660FEF7B3
:1020D00051FA4FF400536946174800938DF80440B5
:1020E000FEF7E8FB21462046FEF744FA80236946C6
:1020F000284600938DF80440FEF7DCFB21460820BB
:10210000FEF738FA4FF4004369460C4800938DF807
:102110000440FEF7CFFB21462046FEF72BFA202392
:102120006946284600938DF80460FEF7C3FB02B0B1
:1021300070BD00BF0000024000040240000C0240DD
:1021400037B54FF4006300250DF105020DF10601CE
:1021500004461830ADF806308DF8055001F0C9F985
:10216000BDF806102846FFF72DFE02211148FFF7A3
:102170005EFBD8B9ADF8060002210E48FFF75DFB03
:102180000C48FFF781FA9DF80520BDF80610201DC8
:1021900001F088F9002104F12C0005F041FCD4F88D
:1021A00050310133C4F8503103B030BD0148FFF75E
:1021B00097FADFE70020014008B501214FF0804089
:1021C000FFF7C4F848B14FF080400121FFF7C9F88C
:1021D0000248BDE80840FFF7B3BF08BD184D002016
:1021E00070B5022194B05648FFF721FB10B1554855
:1021F000FFF7A6FF01A8FEF7ABFB06A8FFF7C6F99D
:102200000EA8FFF7A5F901210846FEF7B3F9012151
:102210004FF4807000240125FEF7DCF9032601A9A4
:10222000494801958DF808608DF80B40FEF742FB98
:1022300006A80694079408940994FFF793F90EA949
:102240003F480E948DF83C408DF83D401094119419
:1022500012948DF84C50FFF755F929463848FFF78E
:102260001CFA2A46234621463548FFF7C7F9294676
:102270003348FFF791F901A8FEF76AFB0AA8FFF7B8
:102280006FFD29462846FEF775F929464FF00050A4
:10229000FEF794F9102301A92B4801938DF80860EB
:1022A0008DF80B40FEF706FB0AA920460A940B9412
:1022B0000D94FFF73FFD29462046FFF757FD2946BD
:1022C0002846FEF77BF903A8FEF7BEFC1F4B204A09
:1022D0001B68B3FBF2F303A9013B4FF08040ADF85C
:1022E0000C30ADF80E400495ADF814408DF8164052
:1022F000FEF76CFC4FF08040FFF752F829464FF094
:102300008040FEF7F8FC2A4629464FF08040FFF750
:1023100039F81C2368468DF800308DF801408DF89F
:1023200002508DF80350FFF7A1FC80210648FEF70C
:102330003EFB4FF400410748FEF737FB14B070BD79
:1023400000200140184D0020000002402400002021
:1023500000770100000C024008B520210348FEF779
:102360001BFB431E5842584108BD00BF00000240FD
:102370000A4602484FF40041FEF71BBB000C024026
:102380000A4602484FF40051FEF713BB0004024016
:102390000A4602488021FEF70CBB00BF0000024045
:1023A0000A4602484FF48051FEF703BB000C02407E
:1023B0000A4602484FF40051FEF7FBBA000C0240F7
:1023C0000A4602484FF48041FEF7F3BA000C02407F
:1023D0000A4602484FF40061FEF7EBBA000C0240D7
:1023E0002DE9F0414FF4B971044605F061FB4FF45B
:1023F000B97104F1100005F05BFB04F12C06002319
:1024000023846362A36204F1B801324622F8023BDE
:102410009142FBD14FF0000384F8B83004F1DA01A7
:1024200004F1B903002203F8012B9942FBD104F116
:10243000DB0884F8DA2004F1E7074346002203F8BA
:10244000012BBB42FBD104F1F3023B46002103F810
:10245000011B9342FBD104F21B12002103F8011B64
:102460009A42FBD11346002504F2431203F8015BA4
:102470009A42FBD1A4F84451A4F84651C4F84851FB
:1024800084F84C5184F84D518C220021304606F0DE
:10249000F8F82A2323840A4BA36266620C220949B6
:1024A000384606F0E3F80C220649404606F0DEF80E
:1024B00084F84C5184F84D512046BDE8F08100BFAE
:1024C00028000020AC8A0008222A70B505460C4678
:1024D0001CD105F000FB20281AD995F84C312BB1FE
:1024E000284605F0F3FA002385F84C3104F1210663
:1024F00014F8011F284605F02FFBB442F8D1064B13
:10250000187838B9012385F8B83070BD042070BD43
:10251000052070BD002070BD794E0020222AF8B53C
:1025200005460C461FD100F11006304605F0D3FADF
:1025300020281AD995F84D312BB1304605F0C6FA4E
:10254000002385F84D3104F1210714F8011F3046AE
:1025500005F002FBBC42F8D1064B187838B90123CC
:1025600085F8B830F8BD0420F8BD0520F8BD00207E
:10257000F8BD00BF794E0020092AF8B504460D4683
:1025800025D10C220021E73006F07BF8114E1248CD
:102590000022D11002F0070E6F5C935D10F80E1050
:1025A0000F4203F0070104EBD30319BF415C93F81A
:1025B000E770475C93F8E71002F1010214BF39435A
:1025C000B943442A83F8E710E3D10020F8BD042082
:1025D000F8BD00BFB88A0008A48A0008012A04D107
:1025E0000B78012B03D0022B05D00420704780F814
:1025F0004C310020704780F84D21FAE7002380F825
:10260000B810C0F8483180F84C3180F84D3170472F
:10261000002914BF0523002380F8B8300023C0F838
:10262000483170472DE9F041DFF8E0809EB0064662
:102630000C461746002508AB581904F0C003802B40
:102640002BD0C02B03D05BBB0A222A4901E02A49C8
:102650000A220A3506F00AF8A400282DE4B2EAD1CD
:1026600002AD00211422284606F00BF8234B8DF80A
:1026700012701968B9B91424234613AA08A906F1DF
:10268000200005F01BFE0095234613AA02211C48DA
:1026900000F0F6FD1EB0BDE8F0810A224146D8E701
:1026A0000A221849D5E7D6F8483114339942C6F8BA
:1026B0004831E0D8144A12785AB1BDF84620ADF836
:1026C000482007AA12F8010D50709542FAD115243E
:1026D0000BE08DF811702A460DF11B0012F8014F26
:1026E00002F8014C9042F9D113245B1AC6F8483124
:1026F000C2E700BF908A00087C8A0008744E002060
:10270000184D00209A8A0008784E0020868A00081A
:1027100008B505F0E0F92323B0FBF3F080B208BD63
:1027200008B5103005F0D7F92323B0FBF3F080B2E1
:1027300008BD2DE9F04100EB0116044630460D4678
:1027400005F0EAF9B0B104F1F30504F58A774FF02A
:102750000008304605F025FA85F8280005F8018BB9
:10276000BD42F6D12123A4F844310023A4F8463118
:10277000BDE8F081254404F1B90385F84C0104F16A
:10278000DA0213F8011B83F86110934283F83900D1
:10279000F7D1E7E710B500F1F30300F58A715F2484
:1027A000002283F8284003F8012B8B42F9D1212322
:1027B000A0F84431A0F8462110BD0000F8B590F80B
:1027C000DA300B2B84BF002380F8DA3090F8DA304F
:1027D00004460F46164600F1DB059BB905F09CF94F
:1027E00020B904F1100005F097F930B10C2204F182
:1027F000E70104E02A4601232AE031490C22284659
:1028000005F034FF94F8DA100322294404F21B1077
:1028100005F02CFF0023012E84F8F33084F8F43007
:102820000CBF0823042384F8F53004EB061005F0F0
:1028300073F97B1E061C94F8DA5018BF0126594222
:102840005941002DD6D0B5F1090318BF012301224B
:10285000002894F81BE114BF80200020012F40EADB
:102860000E0E0CBF0820002040EA0E0084F81B0169
:1028700094F81C014E4040EAC21040EAC3005140A7
:10288000B24214BF02220022024394F81D0184F8D0
:102890001C218B4214BF202200220243B34214BFEA
:1028A00002230023134384F81D310323A4F8443189
:1028B0000023A4F84631EB1C84F8DA30F8BD00BFE1
:1028C000AC8A000838B590F8B8300446002B41D0E7
:1028D000B0F84421DAB9013B042B3CD8DFE803F01F
:1028E000033B100A15000021FFF723FF042384F89F
:1028F000B8300CE000220121FFF760FF0323F6E768
:102900000121FFF716FF0223F1E7FFF743FFB4F8B9
:102910004431FBB1134800F009FD0546142D19D9C7
:10292000B4F84631E218013392F81B1192F8F32003
:10293000A4F846312046FFF775FEB4F84621B4F8F6
:102940004431143D9A42ADB2E8DB0023A4F846318D
:10295000A4F8443138BD01220021FFF72FFF0123E5
:10296000C5E700BF184D002037B500F1B9040D468A
:1029700021220749204605F079FE01A802F0E8FB74
:1029800023460922294601A802F038FC03B030BDD5
:10299000FC8A000800224FF6FF710260426001814C
:1029A000428170472DE9F743DFF8809004460E46D8
:1029B0001746002545F6BF58ABB2BB4233DA36F8AE
:1029C0001320618963688A422189C8BF62818A4273
:1029D0001344B8BF228122686360013242452260FD
:1029E0001FD9B3FBF2F362898DF80120110A228905
:1029F0008DF800108DF80320110AC3F307228DF81B
:102A000002108DF804206946062248468DF80530EC
:102A100004F09AFB00234FF6FF722360636022816B
:102A200063810135C8E703B0BDE8F083BC550020E1
:102A3000014804F003B800BFBC55002010B523487E
:102A4000234C04F001F8234800F07AFA224B1B785B
:102A50002BB12378012B02D1204804F0C3FE204B78
:102A60001B7843B12378022B05D11E4B1B783BB357
:102A70001D48FFF727FF1D4B1B782BB12378032B35
:102A800002D11B4803F052F81A4B1B782BB1237864
:102A9000042B02D1184803F097FC2378632B02D152
:102AA000164805F0BFF92378622B02D1144800F0D4
:102AB00095F8237843B91348BDE8104005F03CBBB6
:102AC000114800F04FF9D6E710BD00BFBC550020FB
:102AD000714E0020184D00207D000020204A00206B
:102AE0007C0000207E000020704500208000002037
:102AF000985700207F000020C04F0020580300207E
:102B00001403002068030020141E002008B5FFF7FE
:102B10008FFFFFF793FFFCE708B51C4801F0F8FAB8
:102B20001B4804F08FFC1B4802F058F91A4805F0C6
:102B30000CF91A48FFF754FC194802F095FB1948A4
:102B400000F06CF8184801F023FF184802F04AFF23
:102B5000174800F0F9FC174803F06CFB164805F025
:102B600034F8164805F05AF9154800F033F81548BE
:102B7000FFF710FF144805F0CFFA144803F080FD6A
:102B80001348BDE8084000F061B900BFC04600200E
:102B9000204A002078230020C8280020704500200B
:102BA00058070020141E0020C0560020985700200F
:102BB000804E0020C04F0020180300205803002042
:102BC000140300205C03002068030020BC55002093
:102BD000184D00200022027070470000017808B5EF
:102BE00041B107480121FFF713FD0548BDE8084042
:102BF000FFF768BE0248BDE80840FFF709BD00BF07
:102C000070450020012A06D10B785A1E53425341C9
:102C100003700020704704207047000038B54FF45F
:102C2000B971044604F11C0504F042FF002222821F
:102C30006261A26104F1A803294621F8022B8B42AC
:102C4000FBD104F5AB61002203F8012B9942FBD1C3
:102C5000F023A4F85825A4F85A25A4F85C35C4F844
:102C6000602500218C22284605F00BFD2A232382B3
:102C7000024B6561A361204638BD00BF8200002081
:102C8000222A70B506460C460ED104F024FF2028F7
:102C90000CD904F1210514F8011F304604F05CFF43
:102CA000AC42F8D1002070BD042070BD052070BD7D
:102CB000F0B5254F99B005460C46002602AB981991
:102CC00004F0C003802B23D0C02B03D01BBB0A22EF
:102CD0001E4901E01E490A220A3605F0C7FCA4007D
:102CE000282EE4B2EAD11B4B1A68BAB91424234641
:102CF0000DAA02A905F1100005F0E0FA00230093E7
:102D00000DAA23460221144800F0BAFA19B0F0BD0A
:102D10000A223946E0E70A221049DDE7D5F8603596
:102D200014339A42C5F86035E0D80D49097841B1AD
:102D3000BDF82E10ADF8301015249B1AC5F860357B
:102D4000D5E71324F9E700BF288B0008328B000871
:102D50001E8B0008744E0020184D00203C8B00088C
:102D6000784E002070B5B0F85855044635B904F0D7
:102D7000D3FEB8BBB4F85835002B52D0294800F028
:102D8000D5FA0546142D4CD9B4F85A355A1C2344AB
:102D9000A4F85A2593F8A8102046FFF789FFB4F845
:102DA0005A25B4F85835143D9A42ADB2EADB0023F7
:102DB000A4F85A35A4F8583570BDB4F85C551946D6
:102DC0009AB2AA4203F1010303DB0023A4F85A35A7
:102DD000D0E7B4F85825501C2244A4F8580582F8CE
:102DE000A810EDE7104B1B78002BE6D0B4F858255F
:102DF0002B462846D11814FA81F10133482B81F86B
:102E0000A800F7D14832A4F8582504F1A80504F128
:102E1000C906204604F0C5FE05F8010BB542F8D1FD
:102E2000D3E770BD184D0020794E002008B504F09E
:102E300052FE2323B0FBF3F080B208BD01EB410149
:102E4000890001F51671A0F85C157047F8B50025EA
:102E500004464FF4167100F8045B00F0CDFA4FF40D
:102E6000FA7104F1180000F0C7FA04F154074FF4A6
:102E7000167104F12C0004F083FD04F1E006A5872F
:102E800025646564A4F84850E56425653B4623F84D
:102E9000025B9E42FBD104F598713246002322F872
:102EA000023B9142FBD14FF0000284F830214FF4F5
:102EB0008042A4F83221A4F83421A4F83621A4F8E1
:102EC0003821A4F83A21A4F83C210122C4F8403169
:102ED00084F84531A4F84631A4F84831C4F84C319F
:102EE000C4F8503184F8543184F8442100218C22F4
:102EF000384605F0C6FB50220021304605F0C1FBE4
:102F00002A23A387064B63640C23A4F84830054B9F
:102F100027642046E6642365FFF7CAF82046F8BD1B
:102F2000EE000020D600002038B5057804462DB903
:102F3000FFF756F90123C4F84C51237038BD000047
:102F40002DE9F043D0F84031027801338BB00446CC
:102F5000C0F84031002A00F0BA80D0F850214BF67A
:102F60007F339A4212D9AB4D2A78511E02290AD8D2
:102F7000022A06D1A84B1B781BB10021A748FFF7F6
:102F80003DFB00232B700023C4F85031D4F84021BE
:102F900045F6BF539A420BD994F84411002381F0AF
:102FA0000101C4F8403184F844112046FFF7E0F9EC
:102FB00004F1180000F056FA20B9974B1A78002A4D
:102FC00040F05581271D384600F04CFA012840F3A7
:102FD0008B80002503AB5A1908A9384600F089FAFE
:102FE00006AB03EB450104F12C0004F03CFD94F822
:102FF00045315BB1BDF820301BB140F6FF72934202
:1030000004D1B4F846310133A4F84631BDF820307C
:10301000A3F50062B4F8323104AE13FB02F3DB1304
:1030200003F30F0326F815300135022DD2D17C4B66
:103030001A68002A5BD1022594F85431002B53D131
:10304000744B1B78002B77D1764B1B7863B12B46E2
:1030500008AA314604F1480005F030F92B4606AACB
:1030600008A9714801F04AFC704FDFF8E4913A7802
:10307000DFF8E08132B999F800301BB998F80030D8
:10308000002B31D02B4608AA314604F13C0005F054
:1030900015F93B7843B1664B1B78002B45D02A4687
:1030A00008A9644802F040F899F800302BB12B468B
:1030B00006AA08A9604801F04DFE98F800309BB1BF
:1030C0002B4606AA08A95D4800F056FC0CE05C49B6
:1030D0008B4209D990F84411C0F8402181F00101D8
:1030E00080F84411FFF744F90BB0BDE8F083D4F841
:1030F0004C3102339A42C4F84C319CD8514908787B
:103100009DF80D1068B100208DF80E109DF80C1080
:10311000ADF814008DF80D1003259B1AC4F84C313E
:103120008AE78DF80C100125F7E72B4606AA08A9B7
:10313000454802F02DFCB7E7012B11D1394B1B7824
:10314000002BD1D02B4608AA314604F1480005F0E7
:10315000B5F82B4606AA08A9334801F0CFFBC3E710
:10316000022B25D1314B1B78002BBDD02B4608AA52
:10317000314604F13C0005F0A1F82D4B1B7883B1DA
:10318000254B1B783BB1009503AB06AA08A92F4835
:1031900004F0E8FDA8E72A4608A9264801F0C4FF84
:1031A000A2E72B4606AA08A9274802F0F1FB9BE7F5
:1031B000032B11D1264B1B78002B95D02B4608AA48
:1031C000314604F13C0005F079F82B4606AA08A91F
:1031D000194801F0BFFD87E7042B0BD11D4B1B786D
:1031E000002B81D02B4608AA314604F13C0005F0A3
:1031F00065F865E7632B31D108AA314604F1480030
:103200002B4605F05BF82A4608A9134804F06EFD2A
:103210006AE700BF714E0020794E00207045002003
:10322000744E00207D000020C04600207C0000205D
:103230007E00002078230020C0560020804E002011
:103240007FA90300784E002058070020C8280020DE
:10325000800000207F00002018030020602B7FF4F6
:1032600043AF2A4606A90548FFF79CFB3CE71870C8
:1032700094F830112046FFF783F8A3E65C030020A2
:103280002DE9F04799460378089E04460D4690467E
:10329000002B46D090F85431002B42D1224B1A78A3
:1032A00032B990F83011012251401A70FFF768F8D6
:1032B000691E032930D8DFE801F00226292CB4F971
:1032C00036514FF0000A04F118071FFA8AF34B45F4
:1032D00027DA38F8131011FB05F1C91301F30F01B8
:1032E00001F5006189B2B1F5805F22BFB4F84821D1
:1032F0000132A4F8482196B93246384600F0D2F897
:103300000AF1010AE1E7B4F93851DAE7B4F93A51C0
:10331000D7E7B4F93C51D4E7B4F93451D1E7F25CC2
:10332000EBE7BDE8F08700BF794E0020183000F0D1
:1033300078B8000038B5044C22788A420D4601D096
:10334000FFF726F8257038BD704E002080F8451133
:1033500070477047F0B580F830319DF818309DF80F
:1033600014709DF81C609DF820509DF82440DB01EE
:10337000A0F834319DF82830FF01F601ED01E40199
:10338000DB01A0F83271A0F83661A0F83851A0F83E
:103390003A41A0F83C3111B17F42A0F832715AB1E4
:1033A00076426D4264425B42A0F83661A0F8385123
:1033B000A0F83A41A0F83C31F0BDB0F846310033F6
:1033C00018BF01230B70B0F84831003318BF012338
:1033D00013700023A0F84631A0F848317047183028
:1033E00000F0ADB8043000F0AAB80023C0F85031A6
:1033F000704790F85401704738B504460023218087
:1034000083814360C38183600374437448000D4625
:1034100005F0B0F86060284605F0ACF8A0602046E2
:1034200038BDC289838992B29BB29A42028808D180
:10343000037C002B0CBF104600209042C8BF002028
:103440007047C189838989B29BB29942B9BF838988
:10345000C089C3898089BABF12FA80F0C01A181ACD
:1034600080B2EAE7C289838992B29BB29A4205D1BF
:10347000027C02F0FF039AB100887047C2898389F9
:1034800092B29BB29A42A3BFC28983890088838982
:10349000B5BFC08910FA83F0181A801A80B270473D
:1034A00018467047037C30B503F0FF041BB10123BD
:1034B0004374002030BD838945689BB225F8131002
:1034C000838981689BB2CA548389028801339BB285
:1034D000838183899BB29342A8BF84818289C389F7
:1034E00092B29BB29A424FF0010308BF0374184690
:1034F00030BD10B503468489C089A4B280B284422D
:1035000004D11C7C04F0FF0004B910BDD8895C68AC
:1035100080B234F810000880D989986889B2415C7B
:10352000117000211974DA891888013292B2DA8197
:10353000DA8992B2824200DBD981012010BD0346B4
:103540000022407C5A74704730B500240025C0E941
:103550000445002303600371437100F1180100F179
:10356000480221F8023B8A42FBD100F223110023DA
:1035700002F8013B9142FBD1A0F82831A0F82A3192
:10358000A0F82C31A0F82E31A0F83031C0F8343139
:10359000A0F8383100F14903C0F8243130BD30B50E
:1035A000002300240025036003714371C0E9044532
:1035B000A0F82831A0F82A31A0F82C31A0F82E313B
:1035C000A0F83031C0F83431A0F8383130BD0000F7
:1035D00083682DE9F74F5B000029B8BF43F0010372
:1035E0008360B0F82A310C33044620F81310806849
:1035F00020F07F435648584004F04CFD002840F02E
:103600008380544B04F1180104F148054FF47A52B9
:1036100031F9020B8342B8BF03468242A8BF02467B
:103620008D42F5D11A4452109B1A44F63E1E0EFBF1
:1036300003FEB4F82A3101339BB24FEAEE3E182B59
:103640000FFA8EF617B228BF00231825CEF1000E10
:1036500003F10C01206934F81110891A09B271457F
:103660000DDA6169890041EA907101918100009150
:10367000DDE9000140F00100C4E9040108E000298F
:103680004EDA6169890041EA9071800061612061D0
:1036900001339BB2182B05F1FF3508BF002315F04D
:1036A000FF05D5D1D4E904014FF0FF324FF6FF7387
:1036B0001040294A194045F275535040594004F0D2
:1036C000FFFC022820DC2549D4F824316A5C5A55D5
:1036D0000135062DF8D10423A4F82C31302301251F
:1036E000A4F82831002329461D48A4F82E71A4F817
:1036F00030616571C4F83431A4F83831FFF71AFE2F
:1037000029461748FFF722FEB4F82A3101339BB24D
:10371000172B88BF0023A4F82A3103B0BDE8F08F2F
:103720008E42616909DD4FEA810B4BEA907B4FEADB
:10373000800A4AF0020059469EE74FEA810949EAA9
:1037400090794FEA800848F00300494694E700BFAB
:10375000A030FB0080C1FFFFFF77FFF54E8B000814
:10376000184D002010B5D9220446044803F07AFC15
:103770000023C4F83431A4F8383110BDBC55002002
:10378000F8B5B0F82E61B0F930710269D0F8245163
:103790008E1B7B4236B29E4204464169B0F8283106
:1037A00070481EDA8F00960047EA927746F00106CD
:1037B000C4E90467DA1003F00703C15CAB5C23EAD9
:1037C0000103AB54B4F82831D4F8241101339BB26F
:1037D000A4F82831DA1003F00703C35C885C0343C4
:1037E0001FE0002E80F28C80890041EA92719200E5
:1037F0002261DA1003F007036161C15CAB5C23EA6C
:103800000103AB54B4F82831D4F8241101339BB22E
:10381000A4F82831DA1003F00703C05C8B5C23EABC
:1038200000038B54B4F828310133A4F82831B4F8DC
:103830002831A3F247339BB2022B2BD8D4E90401E1
:103840004FF0FF324FF6FF731040474A194045F2E0
:1038500075535040594004F033FC04281ADC2146CB
:10386000012301F8483F4148642203F0CFFB0023C5
:103870003F48C4F83431A4F83831D4F82421195C15
:10388000D1540133062BF8D10423A4F82C31302372
:10389000A4F82831B4F828312E3B9BB2042B16D85B
:1038A000D4E904014FF0FF324FF6FF7310402E4A67
:1038B000194045F275535940504004F001FC04286A
:1038C000DFBF0423A4F82C313023A4F82831B4F846
:1038D0002831B3F5D86F43D1B4F82C51013DADB2C6
:1038E000A4F82C5155BB29462248FFF723FD294651
:1038F0002048FFF72BFD1D4803F0E0FB6571F8BD84
:10390000BE424FEA810747EA92774FEA82060ADA17
:1039100046F00206C4E90467DA1003F00703A95C65
:10392000C35C0B436DE746F00306C4E90467DA1095
:1039300003F00703A95CC35C0B4342E7EB1E5D4247
:1039400026465D4106F8485F20463146FFF70AFFEC
:10395000DB220021304604F094FE0023A4F8283135
:10396000F8BD00BF468B0008FF77FFF5BC5500206F
:103970004E8B0008184D00202DE9F84304460D46F3
:1039800016461F464FF0000943F233381FFA89F3F9
:10399000BB4233DA36F81310D4F834210A44C4F8A1
:1039A0003421B4F838210132A4F8382135F9131044
:1039B0002379CA0F934209D02368B3F5004F2ABF79
:1039C0006FF4CC7003F299131B18236023682271E3
:1039D00003EB0802B2F5803F03D2226009F101092E
:1039E000D4E7A3F54C43CD3B23606379204613B95C
:1039F000FFF7EEFDF2E7FFF7C3FEEFE7BDE8F88360
:103A0000034610B500F1180203F8041B002143F827
:103A1000041B9342FBD11A4600F5E464002322F80C
:103A2000023BA2424FF00001F9D142F20F72A0F81E
:103A30002037A0F82237A0F82437A0F82637A0F8BE
:103A40002827A0F82A37C0F82C37A0F83037A0F87C
:103A50003237A0F83437A0F83637A0F83837A0F856
:103A60003A37A0F83C37A0F83E3780F8401780F886
:103A7000411780F8421780F84317A0F8443780F8C0
:103A8000461780F8471780F8481700F24A7300F687
:103A90005262002123F8021B9342FBD110BD002388
:103AA000A0F82237A0F82A37A0F82037C0F82C3722
:103AB00080F8413770470023A0F82437A0F8223758
:103AC000A0F82A37A0F82037C0F82C3780F8413703
:103AD00080F8423780F84637A0F8263742F20F7355
:103AE000A0F82837704700002DE9F04FBDF82440BA
:103AF000BDF92C90BDF928A02D4E04F1020E013421
:103B00001FFA8EFEA4B24FF00008C9F1000B5FFA55
:103B100088F7AEF102059742ADB246DA01F10C0723
:103B200030F817C0ACEB0A0C0FFA8CFCDC454FEAFE
:103B3000E50705F007050EDA16F805C0DD5D25EA94
:103B40000C05DD55E51004F00707F75D13F805C017
:103B500047EA0C0710E0BCF1000F19DA16F805C0AF
:103B6000DD5D25EA0C05DD55E51004F0070716F8C4
:103B700007C05F5D27EA0C0705310EF1020E023423
:103B80005F5589B208F101081FFA8EFEA4B2BEE7A4
:103B9000755DCC4513F807C045EA0C05DD554FEAC5
:103BA000E40504F00707D0DAE1E7BDE8F08F00BFD5
:103BB000548B0008B0F820372DE9F04F00EB830359
:103BC00004465868744D20F07F4089B068400F4625
:103BD00004F060FAC31EDBB2122B8046AC4640F202
:103BE0008A80B4F822376D4DA3F1730189B2053391
:103BF0001FFA83FE08464FF400094FF47A5200265C
:103C000000F10C0309EA0C0A34F913309D42B8BFE5
:103C10001D469A42A8BF1A46B8F1020F03DCCA45F6
:103C200003D15B4201E0CA45FBD1053080B2864535
:103C30001E444FEA5909E3D1D4F82C379E425ADD8D
:103C40002A4452100FFA82F9AA1A44F63145554314
:103C5000042345F3CF350DF1180A0093029553461E
:103C6000CDF8049018222046FFF73EFFB8F1020F6E
:103C70004FF00008DFF830B143464EDC48491BF8EE
:103C800008001AF808200593024018F80100049172
:103C9000504004F0F9F9059B049908F10108034428
:103CA000B8F1070FDBB2EAD1032B24D837B3A4F85D
:103CB0003E57A4F83C57A4F83A57A4F83857A4F84C
:103CC0003697A4F83497A4F83297A4F830970023D5
:103CD00084F84037C4F82C67402384F84137B4F89F
:103CE0002237A4F82437A3F5C37203F20D13A4F806
:103CF0002627A4F8283709B0BDE8F08F94F840379C
:103D000004EB43020133DBB2032BA2F83857A2F8CD
:103D10003097DDD984F84077DCE722491BF80800AA
:103D20001AF808200593024018F801000491504049
:103D300004F0AAF9059B049908F101080344B8F1BD
:103D4000070FDBB2EAD1032BD5D8B7B1A4F83E57A1
:103D5000A4F83C57A4F83A57A4F83857A4F8369773
:103D6000A4F83497A4F83297A4F83097002384F885
:103D70004037C4F82C672023AFE794F8403704EBB2
:103D800043020133DBB2032BA2F83857A2F8309775
:103D9000EDD984F84077ECE76E28760080C1FFFF0C
:103DA000638B00086A8B00085C8B000880F843175F
:103DB0007047A0F8441770470A462223017801484B
:103DC00003F084B8BC550020B0F82A37F0B50133B1
:103DD0009BB20446A0F82A37B0F8440783428FB05C
:103DE00006DA94F84607003018BF01200FB0F0BD86
:103DF000B4F82237B4F828078342F2DCB3F5617FC8
:103E0000EFD204EB43000029A0F84A270183B4F85D
:103E1000200704EB800042684FEA4202B8BF42F03C
:103E20000102426094F84627002A66D1A3F5C873C0
:103E30005A2B03D801212046FFF7BCFEB4F82237E5
:103E4000B4F8281799427CD1B4F93237B4F9305715
:103E5000B4F938671D44B4F934371D44B4F9363722
:103E60001D44B4F93A371E44B4F93C371E44B4F942
:103E70003E370EAF1E4494F8413707F8243D45F312
:103E80008F05082346F38F06A1F28E210093029638
:103E90003B460195842289B22046FFF725FE94F81F
:103EA0004137402B40F0C18004A801F051F90DF1D9
:103EB00013030DF112020DF1150104A801F078F9B8
:103EC00094F843279DF812309A423AD100239DF886
:103ED000142084F8423784F847379DF813301A438A
:103EE0008DF814200A2B00F29580DFE803F067526A
:103EF00076939393123939933900B4F82427511EDD
:103F000089B28B429ADB013292B2934296DC002155
:103F100091E7237876497748002B18BF0222B4F93D
:103F2000243708BF01228DE8600003F0F7F9394615
:103F30002046FFF741FF022384F84637002384F828
:103F40004837B4F822370133A4F82237B4F82037C1
:103F500001339BB2042B88BF0023A4F8203740E72D
:103F600094F84637022BECD1237863496148002B43
:103F700018BF0222B4F9243708BF01228DE860007F
:103F800003F0CCF939462046FFF716FF9DF81330B1
:103F9000D5E7237859498DE86000002BB4F9243720
:103FA00014BF02220122534803F0B8F939462046D3
:103FB000FFF702FF012384F84637C2E794F846373B
:103FC000012BF7D123784E49002B8DE86000B4F91E
:103FD000243714BF02220122E5E794F84637012B6B
:103FE000AFD1237847498DE86000002BB4F924371E
:103FF00014BF022201223F4803F090F939462046BF
:10400000FFF7DAFE002384F8463742F20F73A4F874
:10401000283796E723783C49002B8DE86000B4F9F7
:10402000243714BF02220122E5E7202B1AD123787E
:1040300036493048002B18BF0222B4F9243708BF94
:1040400001228DE8600003F069F939462046FFF748
:10405000B3FE012384F84637002384F8423784F8FE
:1040600047376EE794F84637002B3FF46AAF94F871
:1040700042370133DBB20C2B84F842370AD921785E
:104080001C4802F053FF002384F8463742F20F73B6
:10409000A4F8283794F84637012B17D194F84737FE
:1040A00021781448042B8DBF20230133DBB28DF817
:1040B000143087BF002384F8473784F847378DF8DA
:1040C00014303A46222302F001FF3AE7022B7FF434
:1040D00038AF94F84837002B3FF433AF43F0400338
:1040E000394620468DF81430FFF766FE29E700BFF9
:1040F000718B0008BC550020A88B0008E08B0008DD
:10410000188C0008538C00088F8C0008BF8C0008A6
:104110000023036003714371836000F10C0200F11E
:10412000700102F8013B8A42FBD103674367836752
:10413000C367C0F88030C0F88430C0F8883000F51C
:104140009A7200F18C03002143F8041B9342FBD1C7
:1041500000F5EE72002143F8041B9342FBD100F5F9
:104160002172002143F8041B9342FBD100F54B72EE
:10417000002143F8041B9342FBD100F25631002288
:1041800003F8012B8B42FBD1C0F85823A0F85C2325
:1041900070470023036003714371836003674367C3
:1041A000C0F85833A0F85C337047000010B52922DE
:1041B0000446044802F0F6FD0023C4F85833A4F87E
:1041C0005C3310BDBC55002010B50C2204460448D9
:1041D00002F014FE0023C4F85833A4F85C3310BD79
:1041E000BC550020836870B55B000446C1B9A3606C
:1041F000A06820F07F432148584003F04BFF02287D
:1042000011DC5322002104F10C0004F03AFA0023DF
:104210002367C4F85833A4F85C330123637170BD7D
:1042200043F00103E3E7A06820F07F4314485840BF
:1042300003F030FF05460028F1D101211148FFF7B6
:1042400079F804F10C0601210E48FFF77FF80C22E3
:104250000D49C4F85853A4F85C53304604F006FAEC
:1042600031462046FFF7B0FF0E222946304604F0C3
:1042700008FA256765670223D0E700BF507655002E
:1042800068B4AA00184D00209994000883682DE9AD
:10429000F0415B00044619BB226FA36004EBD2001F
:1042A00002F00703F9B14549CB5C017B0B43037373
:1042B000A368434801322267584003F0EBFE03280D
:1042C00016DC00213F48FFF735F83E480021FFF794
:1042D0003DF83D4802F0DCFD00236371BDE8F0814C
:1042E00043F00103D8E73949CB5C017B0B40DEE7A3
:1042F000636FA3F2DD73042B2DD90026636FB3F532
:10430000FC6F16D1DFF8C88001256FF07F47A068E9
:1043100027FA05F3034028FA05F0584003F0BAFEE7
:10432000022827DC236FEDB25B1B2367636F5D1BE5
:104330006567636F0133B3F5965F63671ED3002132
:104340002048FEF7F7FF00211E48FEF7FFFF1E483A
:1043500002F080FDC0E7A06820F07F431C48584071
:1043600003F098FE0228C8DC6023236700236367FC
:104370000126C3E70135042DC9D1DAE7236F602B8D
:1043800013D104F10C0596B1552363752D23A37544
:104390001623E37529462046FFF716FF0E2200215B
:1043A000284604F06EF900232367BDE8F0810C2253
:1043B0002946054802F022FDF0E700BF0E8F0008F5
:1043C0005E13AAAA184D0020BC550020068F0008D5
:1043D00068B4AA002DE9F0470D68D0F87CE00E69BA
:1043E000846F0EEB050CD0F884502E44B4454FEA90
:1043F000D4034FEA83036746A8BF3746B44504F0A9
:10440000070200EB030CB5BF394E3A4E16F8028096
:1044100016F80280B5BFDCF88C60DCF88C6006EA28
:10442000080646EA0806CCF88C604E68B6444E6929
:104430003544AE457646A8BF2E46AE45B5BF2C4D99
:104440002C4D15F802C015F802C000EB030E04F164
:104450000104B5BFDEF83451DEF8345105EA0C052D
:1044600045EA0C05CEF83451D0F880E08D68D0F8DC
:1044700088800EEB05098D694544A945CC46A8BF47
:10448000AC46A945B5BF1A4D1A4D15F802A015F84E
:1044900002A000EB03090344B5BFD9F8DC51D9F8F9
:1044A000DC5105EA0A0545EA0A05C9F8DC51CD6880
:1044B000C969754441448D42AE46A8BF8E468D42BF
:1044C000B5BF0B490B49895C895CB5BFD3F8842221
:1044D000D3F884220A400A43C3F88422C767C0F88D
:1044E0008060C0F884C0C0F888E08467BDE8F087C9
:1044F000F68E0008FE8E000870B54A680B6888B01A
:10450000D11882F0010683F001052A44334400915A
:1045100074190591694601940293039204940692DA
:104520000793FFF757FF08B070BD0000F0B50022F9
:10453000294C2A4E40F249111346032B1AD8DFE8C2
:1045400003F0021D323FCD1001F0070300EB85059B
:10455000E75CD5F88C303B4018BF022300EBD20754
:1045600002F0070597F82CE3755D05EA0E0587F85C
:104570002C53013211F1FF31DFD2F0BDCD1001F02B
:10458000070300EB8505E75CD5F834313B4018BFE5
:10459000022300EBD20702F0070597F82CE3655DD4
:1045A00045EA0E05E3E7CB1000EB830301F00705B6
:1045B000D3F8DC31655D1D420CBF01230323CDE739
:1045C000CD1000EB850501F00707D5F88452E75DB3
:1045D0002F4208BF0123DCE7FE8E0008F68E00089C
:1045E00070B5114E4FF0FF334C1E01F1260514F843
:1045F000012F5A40D2B2C3F3072336F81200A54266
:1046000080EA03000346F2D1C04391F82720C3B2E9
:104610009A4207D191F82830C0F30720C31A5842B4
:10462000584170BD002070BDF68C00082DE9F043A4
:104630008A4F154699B004464A1E00235078DE5D25
:1046400001337040532B02F8010FF7D1002303AA66
:10465000184698540133542BFBD1DFF808C20022CE
:10466000664680270CEB4200B2F5257F5CDB002616
:10467000E667C4F88060C4F88460C4F88860A66700
:104680004FF0800801274FF0400918AB03EBE60319
:10469000204613F8542C06F0070328FA03F11140C2
:1046A00029FA03F30CBF0291029701A9134006F106
:1046B000020614BF01970193FFF71EFFB6F5257F91
:1046C000E3D12046FFF732FF6B1E05F128020021DF
:1046D00003F8011F9A42FBD140F24911604E08468F
:1046E000012704EBE10201F0070C92F82CE316F825
:1046F0000C201EEA020FA0EB010309D0DA0803F038
:10470000070315F802E007FA03F343EA0E03AB547C
:1047100011F1FF31E5D229462046FFF761FF19B0BC
:10472000BDE8F0831A469FE7D31011F803E01EF0AE
:10473000010F0CD090F8008018AB9844437818F81B
:10474000549C27FA03F343EA090308F8543C1EF08B
:10475000020F0CD090F8028018AB9844C37818F878
:10476000549C27FA03F343EA090308F8543C1EF06B
:10477000040F0CD090F8048018AB9844437918F8D3
:10478000549C27FA03F343EA090308F8543C1EF04B
:10479000080F0CD090F8068018AB9844C37918F82D
:1047A000549C27FA03F343EA090308F8543C131D09
:1047B000B3F5257F00F10800B4DA1EF0100F0FD01A
:1047C00016F813000DF1600806EB430340445B78D4
:1047D00010F8548C27FA03F343EA080300F8543C1A
:1047E0001EF0200F10D0531D0DF1600816F81300B5
:1047F00006EB430340445B7810F8548C27FA03F32C
:1048000043EA080300F8543C1EF0400F10D0931DFB
:104810000DF1600816F8130006EB430340445B7883
:1048200010F8548C27FA03F343EA080300F8543CC9
:104830001EF0800F10D0D31D0DF1600E16F813007E
:1048400006EB430370445B7810F854EC27FA03F34B
:1048500043EA0E0300F8543C083203E7168F0008C1
:10486000FE8E0008718F000830B583688DB0044655
:104870005B00002932D1A360236F03F0070204EB31
:10488000D30071B31A498A5C017B0A430133B3F543
:10489000257F027323671FD104F10C0501AA294665
:1048A0002046FFF7C3FE08B301211248FEF742FD80
:1048B00001211048FEF74AFD01A92046FFF776FCCA
:1048C0000E220021284603F0DCFE0023236702238A
:1048D000637140F2817363670DB030BD43F0010333
:1048E000C9E705498A5C017B0A40CFE76071F3E7BD
:1048F0000E8F0008184D0020068F00082DE9F843A0
:1049000004460E4617469846002543F23339ABB2AB
:1049100043453BDA37F81310D4F858230A44C4F857
:104920005823B4F85C230132A4F85C2336F8131042
:104930002379C90B8B4209D02368B3F5004F2ABFF6
:104940006FF4CC7203F299139B18236023682171D2
:1049500003EB0902B2F5803F02D222600135D6E7AF
:10496000A3F54C43CD3B23606379012B0AD005D3DB
:10497000022BF3D12046FFF789FCEFE72046FFF733
:1049800031FCEBE72046FFF76FFFE7E7BDE8F88370
:1049900030B500240025C0E90445002303600371FD
:1049A000437100F1180100F1400221F8023B8A42F4
:1049B000FBD100F1BB01002302F8013B9142FBD186
:1049C000A0F8C030A0F8C230A0F8C430A0F8C630BB
:1049D000A0F8C830C0F8CC30A0F8D03000F14103C6
:1049E000C0F8BC3030BD30B5002300240025036082
:1049F00003714371C0E90445A0F8C030A0F8C2308B
:104A0000A0F8C430A0F8C630A0F8C830C0F8CC3048
:104A1000A0F8D03030BD000083682DE9F74F5B006F
:104A20000029B8BF43F001038360B0F8C2300C33F3
:104A3000044620F813108068C0F31303564858400A
:104A400003F028FB00287DD1544B04F1180104F138
:104A500040054FF47A5231F9020B8342B8BF034646
:104A60008242A8BF02468D42F5D11A4452109B1AC9
:104A700044F63E1E0EFB03FEB4F8C23001339BB277
:104A80004FEAEE3E142B0FFA8EF617B228BF002322
:104A90001425CEF1000E03F10C01206934F8111039
:104AA000891A09B271450DDA6169890041EA90718C
:104AB000019181000091DDE9000140F00100C4E9AD
:104AC000040108E0002949DA6169890041EA90712E
:104AD00080006161206101339BB2142B05F1FF3529
:104AE00008BF002315F0FF05D5D1D4E9040128A3A0
:104AF000D3E9002301F0FF015040594003F0E0FAF0
:104B000002281FDC2649D4F8BC306A5C5A550135AE
:104B1000052DF8D12823A4F8C450A4F8C0300125ED
:104B2000002329461F48A4F8C670A4F8C860657120
:104B3000C4F8CC30A4F8D030FEF7FCFB2946194865
:104B4000FEF704FCB4F8C23001339BB2132B88BFCC
:104B50000023A4F8C23003B0BDE8F08F8E42616933
:104B600009DD4FEA810B4BEA907B4FEA800A4AF05D
:104B700002005946A3E74FEA810949EA90794FEAD2
:104B8000800848F00300494699E700BFAFF3008072
:104B90004D63C971D4000000ADB5070080C1FFFFAF
:104BA000AD940008184D002010B579220446044841
:104BB00002F0DEF90023C4F8CC30A4F8D03010BDE8
:104BC000BC55002000000000F8B5B0F8C660B0F990
:104BD000C8700269D0F8BC508E1B7B4236B29E4230
:104BE00004464169B0F8C03057481EDA8F0096007D
:104BF00047EA927746F00106C4E90467DA1003F049
:104C00000703C15CAB5C23EA0103AB54B4F8C030CA
:104C1000D4F8BC1001339BB2A4F8C030DA1003F012
:104C20000703C35C885C03431EE0002E54DA89004E
:104C300041EA927192002261DA1003F00703616188
:104C4000C15CAB5C23EA0103AB54B4F8C030D4F8C8
:104C5000BC1001339BB2A4F8C030DA1003F0070394
:104C6000C05C8B5C23EA00038B54B4F8C030013382
:104C7000A4F8C030B4F8C030263B9BB2042B12D845
:104C8000D4E904012EA3D3E9002301F0FF01594028
:104C9000504003F015FA0428DFBF0523A4F8C43000
:104CA0002823A4F8C030B4F8C030B3F5707F43D1E6
:104CB000B4F8C450013DADB2A4F8C45055BB294668
:104CC0002248FEF737FB29462048FEF73FFB2048E5
:104CD00002F07CF96571F8BDBE424FEA810747EAF0
:104CE00092774FEA82060ADA46F00206C4E90467C0
:104CF000DA1003F00703A95CC35C0B43A4E746F09A
:104D00000306C4E90467DA1003F00703A95CC35C77
:104D10000B437AE72B1F5D4226465D4106F8405F54
:104D200020463146FFF740FF7B220021304603F04A
:104D3000A8FC0023A4F8C030F8BD00BFAFF300808A
:104D40004D63C971D4000000A5940008184D0020DF
:104D5000BC5500202DE9F84304460D4616461F4673
:104D60004FF0000943F233381FFA89F3BB4233DABC
:104D700036F81310D4F8CC200A44C4F8CC20B4F888
:104D8000D0200132A4F8D02035F913102379CA0FAE
:104D9000934209D02368B3F5004F2ABF6FF4CC705B
:104DA00003F299131B1823602368227103EB080296
:104DB000B2F5803F03D2226009F10109D4E7A3F5DF
:104DC0004C43CD3B23606379204613B9FFF724FEA3
:104DD000F2E7FFF7F9FEEFE7BDE8F883034600F1DD
:104DE0001402002143F8041B9A42FBD100F23C510B
:104DF000002322F8023B9142FBD1A0F83C35A0F8F9
:104E00003E3542F20F72C0F84435A0F84835A0F89C
:104E10004A354FF00003A0F8402580F84C35704724
:104E20000023A0F83E35A0F83C35C0F84435A0F882
:104E30004A35A0F8483542F20F73A0F84035704764
:104E40002DE9F04FBDF82440BDF92CC0BDF92880F4
:104E5000324DA71C0134BFB2A4B24FF0000ECCF10A
:104E600000095FFA8EFABE1E9245B6B253DA00EB25
:104E7000410ABAF814B0ABEB080B0FFA8BFBCB4529
:104E80004FEAE60A06F0070611DA15F806B013F83D
:104E90000A6026EA0B0603F80A60E61004F0070A27
:104EA00015F80AA013F806B04AEA0B0A13E0BBF1A2
:104EB000000F22DA15F806B013F80A6026EA0B068E
:104EC00003F80A60E61004F0070A15F80AB013F8B0
:104ED00006A02AEA0B0A03F806A04E1DB6B2B6F5E4
:104EE000257F24BFA1F28F26B6B2023702340EF11D
:104EF000010EBFB2A4B23146B3E7AE5DE34513F88D
:104F00000AB046EA0B0603F80A604FEAE40604F02A
:104F1000070AC5DAD9E7BDE8F08F00BFB2940008F0
:104F2000B0F83C2550F8223000294FEA4303B8BFBF
:104F300043F001032DE9F04F40F82230B0F83E3540
:104F4000734D00EB43030446998250F8220020F091
:104F50007F4091B0684003F09DF80228AE467EDCA9
:104F6000B4F83E356B4D03F2212189B2B1F5257FAE
:104F700024BFA3F1730189B20A4618264FF4000C2E
:104F80004FF47A53002704EB4200013EB0F91400BD
:104F90008542B8BF05468342A8BF03463CEA0E08D7
:104FA00008BF40420744501D80B2B0F5257F26BFA0
:104FB000A2F28F2292B2024616F0FF064FEA5C0C74
:104FC000E1D1D4F84425974249DD2B445B100FFA18
:104FD00083F8EB1A44F631455D4345F3CF3504239E
:104FE0000DF11C09009318220295CDF804804B4660
:104FF0002046FFF725FFDFF82CB1474AB246B05CE8
:1050000019F806300592034016F80B00584003F0DB
:105010003BF801368244072E5FFA8AFA059AEED1F0
:10502000BAF1030F1BD82B4642463C493C4802F0DC
:10503000FAF8B4F83E35C4F8447503F20D1292B292
:10504000B2F5257F24BF6FF4C3729B18A4F848857E
:10505000A4F84A5534BFA4F84025A4F84035B4F864
:105060003E25B4F8403593423CD1991D89B2B1F543
:10507000257F28BFA3F28E21B4F94A350293B4F9F3
:10508000483501934FF0080328BF89B2842200936A
:10509000204607ABFFF7D4FE06A800F059F80DF143
:1050A0001B030DF11A020DF11D0106A800F080F896
:1050B00094F84C259DF81A309A420CD19DF81B307B
:1050C000032B08D1C3238DF81C3007AA222300210B
:1050D000134801F0FBFE42F20F73A4F840350023A1
:1050E000C4F84435B4F83E3501339BB2B3F5257F9F
:1050F00028BF0023A4F83E35B4F83C3501339BB2F9
:10510000042B88BF0023A4F83C3511B0BDE8F08F14
:105110006E28760080C1FFFFBA940008C89400088A
:10512000BC550020C1940008F8B505460E46174648
:1051300000235C1CDBB2BB4206DA36F913102846AA
:10514000FFF7EEFE2346F4E7F8BD80F84C157047F4
:1051500070470000B1F5006F10B50ED3084C4FF446
:10516000802340F67540214207D0194201D15B08E7
:10517000FBE7DA0A42435140F5E7084610BD00BF9D
:1051800000F8FFFF10B54C780B78E40004EBC32463
:105190008B7804EB53142146FFF7DCFF034B53F8E5
:1051A00020006040C0F3C72010BD00BFF494000889
:1051B00073B51E464B7B0C7B15469A0942EA840266
:1051C0000C7DC97C8DF8042089009B0023F03F03EF
:1051D00001F03C01194341EA9411A4008DF8051037
:1051E00024F00F0401A98DF80640FFF7CBFF030957
:1051F00000F00F002B70307002B070BD02F00F0293
:1052000042EA0111C8B2197B124A21F03F0141EA7A
:10521000900130B532F810401973597BE5B2AA08F5
:1052200001F00F0141EA801102F03000014359738F
:10523000D97C02F00F0221F00F0111431A7DD974BD
:1052400002F00302A40A42EA851204F03C0422435D
:105250001A7530BDF4B4000802462223012101482A
:1052600001F034BEBC55002010B5034600F1140215
:10527000002143F8041B9342FBD11A4600F6543434
:10528000002322F8023BA2424FF00001F9D142F282
:105290000F72A0F8543BA0F8563BA0F8583BA0F87A
:1052A0005A3BC0F8603BA0F8643BA0F8663BA0F80E
:1052B000683BA0F86A3BA0F86C3BA0F86E3BA0F8F6
:1052C000703BA0F8723B00F5B553A0F85C2B80F85A
:1052D000741B80F8751B80F8761B80F8771B80F8AC
:1052E000781B80F8791B80F87A1B00F67C321C331F
:1052F000002122F8021B9A42FBD110BD0023A0F826
:10530000583BC0F8603B80F8753B80F8763B80F8EE
:10531000783BA0F85A3B42F20F73A0F85C3B704711
:105320002DE9F04FBDF82440BDF92CC0BDF928800F
:10533000324DA71C0134BFB2A4B24FF0000ECCF125
:1053400000095FFA8EFABE1E9245B6B253DA00EB40
:10535000410ABAF814B0ABEB080B0FFA8BFBCB4544
:105360004FEAE60A06F0070611DA15F806B013F858
:105370000A6026EA0B0603F80A60E61004F0070A42
:1053800015F80AA013F806B04AEA0B0A13E0BBF1BD
:10539000000F22DA15F806B013F80A6026EA0B06A9
:1053A00003F80A60E61004F0070A15F80AB013F8CB
:1053B00006A02AEA0B0A03F806A04E1DB6B2B6F5FF
:1053C000B46F24BFA1F29B56B6B2023702340EF17D
:1053D000010EBFB2A4B23146B3E7AE5DE34513F8A8
:1053E0000AB046EA0B0603F80A604FEAE40604F046
:1053F000070AC5DAD9E7BDE8F08F00BFF4B60008A8
:105400002DE9F04FB0F8543B9A4D50F82330044644
:1054100099488BB023F07F435840069102F03AFE42
:10542000B4F8543B059054F8230020F07F406840C6
:1054300002F030FE059BA3F1030C5FFA8CFCBCF17B
:10544000120F8346A94604D8C31EDBB2122B40F2CA
:10545000BB80B4F8563B894DDFF81C8203F22D5116
:1054600089B2B1F5B46F24BFA3F1730189B24FF4CF
:105470007A530E464FF0180A4FF4000E0793002798
:10548000BCF1120F19D93EEA080304EB4603079A50
:10549000B3F914300CBF012000209D42B8BF1D4657
:1054A0009A42A8BF1A460792059A022A02DDBBF16A
:1054B000020F05DC30B15B4204E03EEA0903E4E799
:1054C0000028F8D01F44731D9BB2B3F5B46F28BFFA
:1054D000A6F29B560AF1FF3A2CBFB6B21E461AF04E
:1054E000FF0A4FEA5E0ECBD1D4F8603B9F426BDDE2
:1054F000079BDFF89C912B445A1016B2AD1A44F664
:1055000031425543042345F3CF350DF12008009374
:1055100002954346019618222046FFF701FF059B9E
:10552000022B54DDBBF1020FD34661DC059B19F859
:105530000B0018F80B10022BD4BF514B514B0140FC
:105540001BF80300484002F09FFD0BF1010B824461
:10555000BBF1070F5FFA8AFAE8D1BAF1030F33D82B
:10556000069BB3B3A4F8725BA4F8705BA4F86E5BFF
:10557000A4F86C5BA4F86A6BA4F8686BA4F8666B7B
:10558000A4F8646B002384F8743BC4F8607B402368
:1055900084F8753BB4F8563BA4F8583B03F21A4222
:1055A00092B2B2F5B46F28BFA3F5C372A4F85A2B18
:1055B00003F20D1292B2B2F5B46F2ABFA3F2934375
:1055C000A4F85C2BA4F85C3B0BB0BDE8F08FD3468D
:1055D000ACE794F8743B04EB43020133DBB2032BDA
:1055E000A2F86C5BA2F8646B88BF9DF81830CAE71C
:1055F000059B19F80B0018F80B10152B8CBF224BCC
:10560000224B01401BF80300484002F03DFD0BF126
:10561000010B8244BBF1070F5FFA8AFAE8D1BAF1B5
:10562000030FD1D8069BB3B1A4F8725BA4F8705BEA
:10563000A4F86E5BA4F86C5BA4F86A6BA4F8686BC2
:10564000A4F8666BA4F8646B002384F8743BC4F878
:10565000607B20239CE794F8743B04EB4302013306
:10566000DBB2032BA2F86C5BA2F8646B88BF9DF8D9
:105670001830EAE76E287600238C6F0080C1FFFFA8
:105680000AB7000803B7000818B7000811B70008E8
:10569000FCB6000870B50446B0F8560B04EB4003A6
:1056A00000299982A3F87C2BB4F8542B54F82230AB
:1056B0004FEA4303B8BF43F0010344F8223094F8A3
:1056C000783B8EB0002B6AD101212046FFF798FE6F
:1056D000B4F8562BB4F85C3B934240F09680B4F992
:1056E000662BB4F9645BB4F96C6B1544B4F9682BA0
:1056F0001544B4F96A2B1544B4F96E2B1644B4F969
:10570000702B03F212311644B4F9722B89B2B1F541
:10571000B46F164428BFA3F28E2194F8752B8DF830
:1057200014204FF0080345F38F0546F38F0628BF7A
:1057300089B20093029605AB019584222046FFF7BB
:10574000EFFD94F8753B402B40F0BD8004A8FFF7B7
:10575000FFFC0DF113030DF112020DF1150104A868
:10576000FFF726FD94F8772B9DF812309A4247D127
:1057700000239DF8142084F8763B84F8793B9DF84B
:1057800013301A438DF814200A2B00F29680DFE8BC
:1057900003F0776881949494265656945600B4F892
:1057A000581B01F29F539BB2B3F5B46F01F1010294
:1057B00092B224BF01F1FF339BB2B2F5B46F24BFA4
:1057C000A1F29F5292B2934206DA984280DB904255
:1057D0003FF77EAF002178E79842F8DBFAE72B46E7
:1057E000B4F9582B62496348009601F052FD05A8B0
:1057F000FFF732FD022384F8783B002384F87A3BDC
:105800000023C4F8603B84F8753BB4F8563B94F829
:10581000780B01339BB2B3F5B46F28BF0023A4F813
:10582000563BB4F8543B01339BB2042B88BF002392
:10583000003018BF0120A4F8543B0EB070BD94F89E
:10584000783B022BDCD12B46B4F9582B4A49494806
:10585000009601F01EFD05A8FFF7FEFC9DF8133031
:10586000CCE7B4F9582B454900962B46414801F046
:1058700010FD05A8FFF7F0FC012384F8783BBFE793
:1058800094F8783B012BF7D1B4F9582B00962B46AE
:105890003B49EBE794F8783B012BB1D1B4F9582B95
:1058A000384900962B46334801F0F3FC05A8FFF772
:1058B000D3FC2046FFF722FDA2E7B4F9582B00964F
:1058C0002B463149EFE7202B13D12B46B4F9582B47
:1058D0002E492848009601F0DCFC05A8FFF7BCFC27
:1058E000012384F8783B002384F8763B84F8793BE5
:1058F00086E794F8783B002B82D094F8763B01330E
:10590000DBB20C2B84F8763B06D91A48012101F052
:105910000DFB2046FFF7F2FC94F8783B012B17D1E2
:1059200094F8793B1348042B8DBF20230133DBB25D
:105930008DF8143087BF002384F8793B84F8793BD5
:105940008DF8143005AA2223012101F0BFFA57E790
:10595000022B7FF455AF94F87A3B002B3FF450AF05
:1059600043F0400305A88DF81430FFF775FC47E7B6
:105970001FB70008BC55002050B7000882B70008C8
:10598000B4B70008E9B700081FB8000849B8000814
:105990002DE9F843904600220F46064699461146E7
:1059A000D4B24C4502F1010509DA38F8142037F970
:1059B00014103046FFF76EFE2A460146F0E7024813
:1059C000BDE8F843FDF7B6BC184D002080F8771B02
:1059D000704700000A4622230121014801F076BAEF
:1059E000BC55002038B540F2DC51044604F11C05DA
:1059F00002F05EF8002222826261A26104F1A80333
:105A0000294621F8022B8B42FBD104F5AB61002221
:105A100003F8012B9942FBD1F023A4F85825A4F8F0
:105A20005A25A4F85C35C4F8602500218C2228464C
:105A300002F027FE2A232382024B6561A3612046E0
:105A400038BD00BF42010020792A70B506460C46D9
:105A50000ED102F040F877280CD904F1780514F83B
:105A6000011F304602F078F8AC42F8D1002070BD3A
:105A7000042070BD052070BDF0B5254F99B00546D6
:105A80000C46002602AB981904F0C003802B23D0EB
:105A9000C02B03D01BBB0A221E4901E01E490A226B
:105AA0000A3602F0E3FDA400282EE4B2EAD11B4B33
:105AB0001A68BAB9142423460DAA02A905F11000E8
:105AC00002F0FCFB002300930DAA23460321144897
:105AD000FDF7D6FB19B0F0BD0A223946E0E70A22ED
