:020000040800F2
:100000000000022049200008452000084520000883
:100010004520000845200008452000080000000099
:100020000000000000000000000000004520000863
:100030004520000800000000452000084520000879
:1000400045200008452000084520000845200008FC
:1000500045200008452000084520000845200008EC
:1000600045200008452000084520000845200008DC
:1000700045200008452000084520000845200008CC
:1000800045200008452000084520000845200008BC
:1000900045200008452000084520000845200008AC
:1000A000452000084520000845200008452000089C
:1000B000B921000845200008452000084520000817
:1000C000452000084520000845200008452000087C
:1000D000452000084520000845200008116400085C
:1000E000452000084520000845200008452000085C
:1000F000452000084520000845200008452000084C
:10010000452000084520000845200008452000083B
:1001100045200008ED66000845200008452000083D
:10012000452000084520000845200008452000081B
:10013000452000084520000845200008452000080B
:1001400045200008452000084520000845200008FB
:1001500045200008452000084520000845200008EB
:1001600045200008452000084520000845200008DB
:1001700045200008452000084520000845200008CB
:10018000452000084520000810B5054C237833B9F8
:10019000044B13B10448AFF300800123237010BD5A
:1001A0002003002000000000E8CF00080C4B43B102
:1001B0000C480D4910B5AFF300800C48036823B913
:1001C00010BD0A48036833B97047094B002BF7D0BC
:1001D000BDE810401847064B002BF5D0184700BF6C
:1001E00000000000E8CF0008240300201C030020CA
:1001F00000000000154B002B08BF134B9D46A3F5D4
:10020000803A00218B460F461348144A121A09F00F
:1002100064F80F4B002B00D098470E4B002B00D0FA
:1002200098470020002104000D000D48002802D04E
:100230000C48AFF3008009F011F82000290002F00B
:100240003DFC08F0F7FF00BF0000080000000000C0
:100250000000000000000000200300205097002054
:1002600000000000000000000E4B1A68002142F060
:1002700001021A6099601A6822F0A85222F4102232
:100280001A60094A5A60094AC3F8842002F1806260
:10029000C3F888201A6822F480221A60D960C3F853
:1002A0008C107047003802401030002400300020CD
:1002B000024B00221A701870704700BF02380240CB
:1002C000034A136823F0F80343EAC0001060704744
:1002D00000380240014B1860704700BF00004742E1
:1002E000064B002201281A701A7002D0042802D08E
:1002F00070471870704705221A70704770380240B6
:10030000014B1860704700BF800E474210B5029C39
:1003100040EA046008435B08013B40EA821040EA7F
:100320000340014B586010BD00380240014B18607B
:10033000704700BF600047420907034B41EA801144
:10034000C3F88410704700BF00380240014B1860AA
:10035000704700BF68004742120742EA0162034B40
:1003600042EA8012C3F88820704700BF003802407C
:10037000014B1860704700BF70004742014B186086
:10038000704700BF4C004742034A936823F0EC6378
:10039000194301439160704700380240034A936853
:1003A00023F07843194301439160704700380240BD
:1003B000034A936823F0030318439060704700BF1B
:1003C00000380240024B986800F00C00704700BFF4
:1003D00000380240034A936823F0F003184390600A
:1003E000704700BF00380240034A936823F4E0538B
:1003F00018439060704700BF00380240034A93687A
:1004000023F4604343EAC000906070470038024024
:100410001D4A936803F00C03042B10B51AD0082B67
:100420001AD01A4B184A036093681949C3F303138F
:10043000CC5C0368E34043609468C4F382240C5DA1
:1004400023FA04F484609268C2F342328A5CD34097
:10045000C36010BD0F4BE5E75468516852686302F2
:10046000C2F3881201F03F014CBF0A4B074BB3FBAC
:10047000F1F35343044A5268C2F30142013252007D
:10048000B3FBF2F3CEE700BF003802400024F400D3
:100490000400002000127A0000F44073B3F5407F9E
:1004A000084A08D1916820F0704321F4F81123F430
:1004B00040730B439360136FC0F30B001843106736
:1004C000704700BF00380240014B1860704700BF02
:1004D0003C0E4742014B1860704700BF400E474238
:1004E000014B1860704700BF5C014742044AD2F8D4
:1004F0008C3023F440131843C2F88C00704700BFBF
:1005000000380240044AD2F88C3023F440031843E8
:10051000C2F88C00704700BF00380240044AD2F88D
:100520008C30013823F01F031843C2F88C00704749
:1005300000380240054AD2F88C30013823F4F853D1
:1005400043EA0023C2F88C30704700BF00380240F5
:10055000044AD2F88C3023F440331843C2F88C009C
:10056000704700BF00380240014B1860704700BF61
:10057000E0114742044B1A6B11B1104318637047E6
:1005800022EA0000FAE700BF00380240044B5A6B31
:1005900011B110435863704722EA0000FAE700BF28
:1005A00000380240044B9A6B11B1104398637047B6
:1005B00022EA0000FAE700BF00380240044B1A6C40
:1005C00011B110431864704722EA0000FAE700BF37
:1005D00000380240044B5A6C11B110435864704704
:1005E00022EA0000FAE700BF00380240044B1A6913
:1005F00011B110431861704722EA0000FAE700BF0A
:1006000000380240044B5A6911B1104358617047D9
:1006100022EA0000FAE700BF00380240044B9A6962
:1006200011B110439861704722EA0000FAE700BF59
:1006300000380240044B1A6A11B110431862704727
:1006400022EA0000FAE700BF00380240044B5A6A71
:1006500011B110435862704722EA0000FAE700BF68
:1006600000380240044B1A6D11B1104318657047F1
:1006700022EA0000FAE700BF00380240044B5A6D3E
:1006800011B110435865704722EA0000FAE700BF35
:1006900000380240044B9A6D11B1104398657047C1
:1006A00022EA0000FAE700BF00380240044B1A6E4D
:1006B00011B110431866704722EA0000FAE700BF44
:1006C00000380240044B5A6E11B11043586670470F
:1006D00022EA0000FAE700BF00380240044B1A6F1C
:1006E00001280CBF42F0080222F008021A67704786
:1006F00000380240044B1A7811B11043187070474B
:1007000022EA0000FAE700BF0D3802404209012A40
:10071000074B07D11B6800F01F0023FA00F000F020
:1007200001007047022A0CBF1B6F5B6FF3E700BF2D
:100730000038024007B5002301933120FFF7E6FFA0
:10074000019B01330193019BB3F5A04F01D0002819
:10075000F3D03120FFF7DAFF003018BF012003B0DB
:100760005DF804FB024A536F43F080735367704790
:1007700000380240034BDB68184214BF0120002000
:10078000704700BF00380240014B1870704700BF2F
:100790000E38024008B53C4B984209D10121084669
:1007A000FFF724FF00210120BDE80840FFF71EBF2E
:1007B000364B984206D101210220FFF717FF002196
:1007C0000220F1E7324B984206D101210420FFF7C5
:1007D0000DFF00210420E7E72E4B984206D10121AE
:1007E0000820FFF703FF00210820DDE72A4B98428D
:1007F00006D101211020FFF7F9FE00211020D3E7D8
:10080000264B984206D101212020FFF7EFFE002160
:100810002020C9E7224B984206D101214020FFF752
:10082000E5FE00214020BFE71E4B984206D1012182
:100830008020FFF7DBFE00218020B5E71A4B9842AD
:1008400008D101214FF48070FFF7D0FE00214FF452
:100850008070A9E7154B984208D101214FF4007030
:10086000FFF7C4FE00214FF400709DE7104B984243
:1008700008D101214FF48060FFF7B8FE00214FF44A
:10088000806091E708BD00BF000002400004024004
:1008900000080240000C0240001002400014024018
:1008A00000180240001C02400020024000240240C8
:1008B000002802402DE9F0430D68002201260324A0
:1008C00006FA02FC3CEA05033DD15700D0F800E0EF
:1008D00004FA07F3DB430EEA030EC0F800E091F8D8
:1008E00004E0D0F800900EFA07F80EF1FF3E48EA57
:1008F0000908BEF1010FC0F8008017D8D0F808E051
:1009000003EA0E0383604B79D0F808E0BB4043EA6A
:100910000E038360436823EA0C0343608B79D0F8AD
:1009200004E093409BB243EA0E034360C36804FAB9
:1009300007FE23EA0E03C360CB79D0F80CE0BB407E
:1009400043EA0E03C3600132102AB9D1BDE8F08337
:100950004FF6FF7303600023037143718371C3710A
:10096000704782B04FF480330193019B0B43019396
:10097000019BC361C161019BC361C3690193C369E9
:10098000019302B070470369194214BF012000208F
:100990007047006980B270474369194214BF012053
:1009A00000207047406980B27047018370474183DF
:1009B00070470AB1018370474183704741617047B6
:1009C000436959404161704701F00703C90800EBD2
:1009D000810010B5016A9B000F249C4021EA0401AC
:1009E0000162016A9A400A43026210BD30B5048C6C
:1009F00024F001042404240C0484048B058C24F0CA
:100A0000F304240442EA0313240C1C4325F00A03D4
:100A10001B041B0C41F00101A4B20B4304830384AB
:100A200030BD30B5048C24F010042404240C04845C
:100A3000058B048C120242EA033324F0A00225F451
:100A4000407512042D05120C2D0D42EA01111D43B3
:100A500041F01001ADB289B20583018430BD0000C0
:100A600008B54D4B984209D101210846FFF7EEFD2C
:100A700000210120BDE80840FFF7E8BDB0F1804F3C
:100A800009D101210846FFF7D5FD00210120BDE86D
:100A90000840FFF7CFBD414B984206D1012102200B
:100AA000FFF7C8FD00210220F1E73D4B984206D137
:100AB00001210420FFF7BEFD00210420E7E7394BA8
:100AC000984206D101210820FFF7B4FD002108203B
:100AD000DDE7354B984206D101211020FFF7AAFD32
:100AE00000211020D3E7314B984206D1012120206C
:100AF000FFF7A0FD00212020C9E72D4B984206D129
:100B000001210220FFF7A2FD00210220B2E7294BBC
:100B1000984208D101214FF48030FFF797FD002162
:100B20004FF48030A6E7244B984208D101214FF4BE
:100B30000030FFF78BFD00214FF400309AE71F4B88
:100B4000984208D101214FF48020FFF77FFD00215A
:100B50004FF480208EE71A4B984206D101214020A5
:100B6000FFF768FD0021402091E7164B984206D11F
:100B700001218020FFF75EFD0021802087E7124BD6
:100B8000984208D101214FF48070FFF753FD0021F6
:100B90004FF480707BE708BD000001400004004076
:100BA00000080040000C004000100040001400400D
:100BB0000004014000400140004401400048014061
:100BC00000180040001C0040002000401C4A038820
:100BD00090429BB212D002F5806290420ED0B0F1EA
:100BE000804F0BD0A2F58032904207D002F5806290
:100BF000904203D002F58062904203D14A8823F0EC
:100C0000700313430F4A904208D002F5806290426D
:100C10001FBF23F440730A899BB2134303804B68C0
:100C2000C3620B880385064B984203D003F58063AB
:100C3000984201D18B7A038601238382704700BFDB
:100C400000000140001000404FF0FF3343600023DC
:100C500003800381438083727047018582827047DD
:100C6000038823F070031B041B0C19430180704799
:100C700041627047C1627047406A7047008D80B220
:100C80007047038821B19BB243F002030380704791
:100C900023F002031B041B0CF8E7038821B19BB26D
:100CA00043F004030380704723F004031B041B0C70
:100CB000F8E7038821B19BB243F0800303807047BB
:100CC00023F080031B041B0CF8E7038823F00803C0
:100CD0001B041B0C038003889BB2194301807047DF
:100CE000038823F440731B041B0C038003889BB20E
:100CF000194301807047038821B19BB243F001037F
:100D00000380704723F001031B041B0CF8E700006D
:100D1000038C23F001031B041B0C038470B5038CAC
:100D20008288048B0D884E8824F073042404240CDC
:100D30002C4323F002038D891B0435431B0C2B43EA
:100D40000E4DA84292B29BB203D005F58065A84231
:100D50000ED1CD894E8A23F008032B438D8823F0D2
:100D600004032B430D8A22F4407235432A4392B286
:100D700082808A6804834263038470BD000001405E
:100D8000038C23F010031B041B0C038470B5038C2D
:100D90008488028B0D884E8822F4E6421204120CDD
:100DA00042EA052223F020038D891B0435431B0CE6
:100DB00043EA0513114DA842A4B292B29BB203D0EC
:100DC00005F58065A84213D1CD894E8A23F08003B2
:100DD00043EA05134FF6BF751D408B8845EA0313A0
:100DE0000D8A24F44064354344EA85049BB2A4B2DE
:100DF000848002838A688263038470BD000001409E
:100E0000038C23F480731B041B0C038470B5038CC8
:100E10008288848B0D884E8824F073042404240C6B
:100E20002C4323F400738D891B0435431B0C43EAC8
:100E30000523114DA84292B29BB203D005F58065FF
:100E4000A84213D1CD894E8A23F4006343EA0523D7
:100E50004FF6FF351D408B8845EA03230D8A22F4A7
:100E60004052354342EA05129BB292B282808A68B0
:100E70008483C263038470BD00000140038C23F4AB
:100E800080531B041B0C038470B5038C8488828BF5
:100E90000D884E8822F4E6421204120C42EA052222
:100EA00023F400538D891B0435431B0C43EA05339F
:100EB0000A4DA842A4B292B29BB203D005F5806558
:100EC000A84205D10D8A24F4804444EA8514A4B2D2
:100ED000848082838A680264038470BD00000140BC
:100EE000002303804380838083608381C3810382E6
:100EF0004382704730B5048C0125A4B28D4024EAAA
:100F0000050400F11803048421F0080050B94908D1
:100F1000C85820F070000004000CC850C8580243A4
:100F2000CA5030BD0439C1F34E011202C85820F432
:100F3000E0400004000CC85092B2C858EFE741638B
:100F4000704781637047C163704701647047038BCA
:100F500023F070031B041B0C194301837047038BA0
:100F600023F4E0431B041B0C43EA012189B20183F3
:100F70007047838B23F070031B041B0C1943818380
:100F80007047838B23F4E0431B041B0C43EA0121CD
:100F900089B281837047038B23F008031B041B0C69
:100FA000194301837047038B23F400631B041B0C5C
:100FB00043EA012189B201837047838B23F0080340
:100FC0001B041B0C194381837047838B23F400633C
:100FD0001B041B0C43EA012189B281837047038BF8
:100FE00023F004031B041B0C194301837047038B7C
:100FF00023F480631B041B0C43EA012189B20183A3
:101000007047838B23F004031B041B0C194381835B
:101010007047838B23F480631B041B0C43EA01217C
:1010200089B281837047038B23F080031B041B0C60
:10103000194301837047038BC3F30E0343EA012175
:1010400089B201837047838B23F080031B041B0C40
:10105000194381837047838BC3F30E0343EA012155
:1010600089B281837047038C23F002031B041B0C9D
:10107000194301847047038C23F008031B041B0CE5
:10108000194301847047038C23F020031B041B0CBD
:1010900043EA011189B201847047038C23F0800375
:1010A0001B041B0C43EA011189B201847047038CB5
:1010B00023F400731B041B0C43EA012189B2018451
:1010C0007047038C23F400631B041B0C43EA0121CB
:1010D00089B201847047038C23F400531B041B0C5A
:1010E00043EA013189B201847047038C10B50124B1
:1010F0008C409BB223EA04030384038C02FA01F1BF
:10110000194389B2018410BD038C10B504248C40AE
:101110009BB223EA04030384038C02FA01F119430E
:1011200089B2018410BD00230122038043808280A4
:10113000C38003817047406B7047806B7047C06B02
:101140007047006C7047038B23F00C031B041B0CCF
:101150000383038B9BB2194301837047038B23F4F2
:1011600040631B041B0C0383038B9BB243EA0121E6
:1011700089B201837047F8B50C464988A288B4F853
:1011800000E0238900290CBF02260026012A0CBF9B
:1011900002270127BEF1000F0ED1FFF727FCE188DF
:1011A000FFF7D1FF314623893A46FFF73AFCE18841
:1011B000BDE8F840FFF7D2BFFFF733FCE188FFF747
:1011C000CDFF314623893A46FFF710FCE188BDE8A0
:1011D000F840FFF7B8BF838B23F00C031B041B0CF4
:1011E0008383838B9BB2194381837047838B23F462
:1011F00040631B041B0C8383838B9BB243EA012156
:1012000089B281837047F8B50E880B898A880D46AC
:10121000498836B9FFF7EAFBE988BDE8F840FFF7EF
:1012200092BF042E06D1FFF7FCFBE988BDE8F84029
:10123000FFF794BF082EEF88058C1CD125F480752C
:101240002D042D0C0584868B058CB6B226F0F30692
:101250003243ADB242EA031325F4206242F48072B5
:1012600042EA01229BB292B2838339460284BDE8EE
:10127000F840FFF7B0BF25F480552D042D0C0584F0
:10128000868B058C1B0343EA022326F4407645F641
:10129000FF722A403605360D42F48052334342EA4B
:1012A00001329BB292B2838339460284BDE8F84092
:1012B000FFF79CBF4A880B8813438A881343CA8868
:1012C00013430A8913434A8913438A8913439BB200
:1012D000A0F8443070470023038043808380C3809C
:1012E0000381438183817047B0F8443039B16FEA9C
:1012F00043436FEA53439BB2A0F844307047C3F3B3
:101300000E03F9E7838821B19BB243F00403838085
:10131000704723F004031B041B0CF8E7838821B1FA
:101320009BB243F001038380704723F001031B0449
:101330001B0CF8E781827047038A194214BF012011
:1013400000207047C94389B201827047038A8289AD
:1013500011EA030092B203D0114214BF0120002011
:101360007047C94389B2018270470A43A0F84820F8
:10137000704783899BB212B119438181704723EA78
:101380000101FAE7FFF7F5BF838821B19BB243F073
:1013900008038380704723F008031B041B0CF8E745
:1013A000038923F007031B041B0C03817047038987
:1013B00023F070031B041B0C1943018103899BB2AA
:1013C00043F007030381704738B50D46602D114681
:1013D00004464FF001020ED1FFF723FB218921F0D3
:1013E00070010904090C2943218123899BB243F030
:1013F0000703238138BDFFF7F9FAEFE7038923F0EC
:1014000070031B041B0C194301817047838823F070
:1014100070031B041B0C838083889BB2194381805B
:101420007047038923F007031B041B0C0381038906
:101430009BB2194301817047038923F080031B0489
:101440001B0C038103899BB219430181704710B5BE
:1014500004890A43E4B242EA03231C43A4B2048190
:1014600010BD10B5FFF7F3FF038923F077031B04CA
:101470001B0C43F07703038110BD10B5FFF7E7FFA6
:1014800003899BB243F48043038110BD70B5068984
:10149000048B058C24F4407424F0030425F0220509
:1014A00026F0070624042D043604240C2D0C42EAF1
:1014B0000313360C44F480741D43314344F001049B
:1014C000ADB201810483058470BD838821B19BB2D4
:1014D00043F080038380704723F080031B041B0CC0
:1014E000F8E7A0F85010704708B501214FF480705C
:1014F000FFF7ACF800214FF48070BDE80840FFF71B
:10150000A5B8000043680A7923F0407323F4807380
:1015100043EA02230A6813434360CA680B69134312
:101520008A6810B513438468084A224013434A79F5
:1015300043EA420383600A7DC36A013A23F47003DD
:10154000D2B243EA0253C36210BD00BFFDF7FFC031
:1015500000230360037143718360C360036101234F
:101560000375704790E80C00064910B513434C68AA
:10157000054A2240134382681343C26813434B60F9
:1015800010BD00BF00230140E030FCFF00230360DA
:1015900043608360C3607047836819B143F00103FF
:1015A0008360704723F00103FAE7436823F44003A4
:1015B00023F40073194341607047416282627047AF
:1015C000436823F01F03194341607047044B5A6876
:1015D00018B142F400025A60704722F40002FAE7A0
:1015E00000230140044B5A6818B142F480025A604B
:1015F000704722F48002FAE700230140092970B500
:101600001BD9A1F10A04C56804EB44040726A640CF
:1016100025EA060503FA04F42C43C460062A18D808
:10162000013A436B02EB82021F24944023EA040335
:1016300001FA02F21A43426370BD056901EB4106EB
:101640000724B44025EA040503FA06F42C43046198
:10165000E4E70C2A0CD8073A036B02EB82021F2442
:10166000944023EA040301FA02F21A43026370BDB4
:101670000D3AC36A02EB82021F24944023EA04035A
:1016800091401943C16270BD836843F08043836019
:1016900070478068C0F380707047836819B143F465
:1016A00080638360704723F48063FAE7836819B12D
:1016B00043F002038360704723F00203FAE74368B4
:1016C000013923F4604343EA413343607047436880
:1016D00019B143F400634360704723F40063FAE7F1
:1016E000C06C80B270470000014B1868704700BFA3
:1016F00008230140836819B143F480738360704705
:1017000023F48073FAE7836819B143F400738360AC
:10171000704723F40073FAE7044B5A6818B142F497
:1017200000525A60704722F40052FAE70023014049
:10173000092970B51CD9A1F10A04C56804EB440459
:101740000726A64025EA060503FA04F42C43C460E4
:10175000836B0232C3F30154121BD2B202EB82023A
:101760001F24944023EA040391401943816370BD10
:10177000056901EB41060724B44025EA040503FA94
:1017800006F42C430461E3E7836B013923F440132F
:1017900043EA01538363704782B0002301930190B1
:1017A000019B19440191019B1A6002B07047836844
:1017B00023F47023194381607047836823F4401336
:1017C000194381607047836843F4800383607047E6
:1017D0008068C0F380507047436819B143F4806358
:1017E0004360704723F48063FAE7436819B143F418
:1017F00080534360704723F48053FAE782B000239C
:1018000001930190019B283319440191019B1868B1
:1018100080B202B070470123C9B203FA01F14368F4
:1018200012B119434160704723EA0101FAE70368E6
:10183000194214BF012000207047C943016070475E
:101840004268006810EA112007D00123C9B203FAE8
:1018500001F1114214BF1846002070476FEA1121B0
:101860000160704708B5314B984209D10121102021
:10187000FEF7ECFE00211020BDE80840FEF7E6BEB2
:101880002B4B98420BD101214FF40030FEF7D2FED2
:1018900000214FF40030BDE80840FEF7CBBE254BD9
:1018A000984208D101214FF48020FEF7C3FE0021A9
:1018B0004FF48020EFE7204B984208D101214FF4EC
:1018C0000020FEF7B7FE00214FF40020E3E71B4B9A
:1018D000984208D101214FF48010FEF7ABFE0021A1
:1018E0004FF48010D7E7164B984206D101212020F3
:1018F000FEF7ACFE00212020BEE7124B984208D133
:1019000001214FF08040FEF795FE00214FF080400E
:10191000C1E70D4B984208D101214FF00040FEF77E
:1019200089FE00214FF00040B5E708BD00100140DE
:101930000044004000480040004C0040005000407F
:101940000014014000780040007C0040028A30B55D
:101950000D4692B2EB88898922F440521A430282E2
:101960008389044623F4B0522889AB8803436889ED
:1019700022F00C0203431204120C9BB21343A38106
:10198000A38A9BB223F440730B4385B0A3826846BD
:10199000FEF73EFD194B9C4203D003F580639C4249
:1019A00022D10399A38913F4004F2B684FF0190239
:1019B00014BF5B009B004A43B2FBF3F1A28964258C
:1019C0001204B1FBF5F34FEA031005FB13130DD519
:1019D000DA003232B2FBF5F202F0070242EA00030B
:1019E0009BB2238105B030BD0299DBE71B01323386
:1019F000B3FBF5F303F00F030343F1E700100140DD
:101A00004FF4165303600C2200238380C3800381AC
:101A1000428183817047038A9BB223F4706210B5C0
:101A20000B884C8823438C88C98823430B439BB283
:101A30001343038210BD0023038043808380C3804F
:101A40007047838921B19BB243F40053838170476F
:101A500023F400531B041B0CF8E7038B03F47F43B0
:101A60000383038B9BB2194301837047838931B190
:101A70006FEA43436FEA53439BB283817047C3F3DA
:101A80000E03FAE7838A21B19BB243F40063838299
:101A9000704723F400631B041B0CF8E7C1F3080133
:101AA000818070478088C0F308007047038A23F064
:101AB0000F031B041B0C0382038A9BB21943018290
:101AC0007047838921B19BB243F002038381704741
:101AD00023F002031B041B0CF8E7838923F4006343
:101AE0001B041B0C838183899BB21943818170473E
:101AF000038A23F020031B041B0C0382038A9BB27E
:101B0000194301827047038A21B19BB243F4804399
:101B10000382704723F480431B041B0CF8E783897E
:101B20009BB243F0010383817047838A21B19BB24A
:101B300043F008038382704723F008031B041B0C47
:101B4000F8E7038BDBB20383038B9BB243EA0121EB
:101B500001837047838A21B19BB243F020038382C3
:101B6000704723F020031B041B0CF8E7838A21B184
:101B70009BB243F010038382704723F010031B04D1
:101B80001B0CF8E7838A23F004031B041B0C8382DD
:101B9000838A9BB2194381827047838A21B19BB2A9
:101BA00043F002038382704723F002031B041B0CE3
:101BB000F8E7838A9BB212B119438182704723EA06
:101BC0000101FAE710B5C1F3421401F01F03012C23
:101BD0004FF0010101FA03F105D10C3003683AB16D
:101BE0001943016010BD022C0CBF10301430F5E712
:101BF00023EA0101F5E70388194214BF0120002000
:101C00007047C94389B201807047C1F3421210B5D1
:101C1000012301F01F04012A03FA04F30ED1828983
:101C200092B21340028892B26BB10123090A03FAFF
:101C300001F10A4214BF1846002010BD022A0CBF51
:101C4000028A828AECE7184610BD0B0A01219940EE
:101C5000C94389B20180704740F0BF60024B40F435
:101C60000030D860704700BF00ED00E010B5C378C9
:101C70000278FBB1154BD96843788078C943C1F32A
:101C80000221C1F10404E4B2A3400F2444FA01F19B
:101C90000140DBB20B430E491B018818DBB280F810
:101CA00000335009012302F01F0203FA02F241F847
:101CB000202010BD5309012102F01F0201FA02F297
:101CC0002033034941F8232010BD00BF00ED00E0A0
:101CD00000E100E021F0604121F07F01014B014370
:101CE0009960704700ED00E0044B1A6911B1104390
:101CF0001861704722EA0000FAE700BF00ED00E03B
:101D0000044B1A6804280CBF42F0040222F00402BB
:101D10001A60704710E000E008B501214FF0005054
:101D2000FEF788FC00214FF00050BDE80840FEF7A8
:101D300081BC000030B5094C40F6FE732268834038
:101D400022EA030291E828002B438D68C9682B43DF
:101D50000B4303FA00F01043206030BD00740040D4
:101D60000023036043608360C3607047064A012319
:101D700021B1116883400B431360704711688340A1
:101D800021EA0303F8E700BF00740040064A000997
:101D9000012321B1516883400B4353607047516860
:101DA000834021EA0303F8E700740040044B5A68BB
:101DB00018B142F003025A60704722F00302FAE7BA
:101DC0000074004082B000230193054B0193019BF6
:101DD000083318440190019B196002B0704700BF9E
:101DE0000074004082B000230193054B0193019BD6
:101DF000143318440190019B196002B0704700BF72
:101E0000007400400828044B0CBF42EA012242EA59
:101E10000142C250704700BF2074004082B00023CE
:101E20000193064B0193019B2C3303EB900001902F
:101E3000019B186880B202B0704700BF0074004078
:101E4000064A4FF4805321B1116883400B4313605D
:101E500070471168834021EA0303F8E700740040EB
:101E6000044B8140186812B101431960704720EAA1
:101E70000101FAE700740040FFF7F2BF034B5B6B10
:101E80008140194214BF01200020704700740040B7
:101E9000014B81405963704700740040054B8140FD
:101EA0001A68586B084003D00A4214BF0120002072
:101EB000704700BF00740040014B81405963704778
:101EC00000740040374AD2F8883043F47003C2F8F7
:101ED0008830354B1A68002142F001021A6099607F
:101EE0001A6822F0847222F480321A602F4A5A60F3
:101EF0001A6882B022F480221A60D96000910191A0
:101F00001A6842F480321A6019461A6802F40032E4
:101F10000192009A01320092019A1AB9009AB2F520
:101F2000A04FF2D10B6813F4003318BF01230193C3
:101F3000019B012B05D01B4B4FF000629A6002B051
:101F40007047194B1A491A6C42F080521A640A6899
:101F500042F440420A609A689A609A6842F40042E9
:101F60009A609A6842F4A0529A60124A5A601A68BB
:101F700042F080721A601A689201FCD50E4A40F253
:101F8000057111609A6822F003029A609A6842F023
:101F900002029A60044A936803F00C03082BFAD1FA
:101FA000C9E700BF00ED00E0003802401030002417
:101FB0000070004008544007003C0240174A18498E
:101FC000936803F00C03042B10B50DD0082B0DD033
:101FD000144B0B60114B144A9B68C3F30313D25C80
:101FE0000B68D3400B6010BD104BF2E7546850688B
:101FF00052686302C2F3881200F03F004CBF0B4BE3
:10200000084BB3FBF0F35343044A5268C2F3014256
:1020100001325200B3FBF2F3DBE700BF00380240AD
:10202000240000200024F4001400002000127A0094
:1020300038B504460D46AC4200D338BD54F8043BD5
:102040009847F8E7FEE7000008B5104A104B114921
:102050008B4216D3144815494FF000028842B8BF8E
:1020600040F8042BFADBFFF72DFF0B490B48FFF775
:10207000DFFF0B490B48FFF7DBFFBDE8084000F02E
:102080001DBD52F8040F43F8040BE1E7F0CF000840
:10209000000000201C030020DCCF0008DCCF00087B
:1020A000E4CF0008DCCF0008200300205097002078
:1020B00073B56846FEF74CFC00260220012101247E
:1020C0008DF805008DF807001A4D8DF80660FEF7B3
:1020D00051FA4FF400536946174800938DF80440B5
:1020E000FEF7E8FB21462046FEF744FA80236946C6
:1020F000284600938DF80440FEF7DCFB21460820BB
:10210000FEF738FA4FF4004369460C4800938DF807
:102110000440FEF7CFFB21462046FEF72BFA202392
:102120006946284600938DF80460FEF7C3FB02B0B1
:1021300070BD00BF0000024000040240000C0240DD
:1021400037B54FF4006300250DF105020DF10601CE
:1021500004461830ADF806308DF8055001F0E1F96D
:10216000BDF806102846FFF72DFE02211148FFF7A3
:102170005EFBD8B9ADF8060002210E48FFF75DFB03
:102180000C48FFF781FA9DF80520BDF80610201DC8
:1021900001F0A0F9002104F12C0005F0B3FFD4F800
:1021A00094310133C4F8943103B030BD0148FFF7D6
:1021B00097FADFE70020014008B501214FF0804089
:1021C000FFF7C4F848B14FF080400121FFF7C9F88C
:1021D0000248BDE80840FFF7B3BF08BD4C4C0020E3
:1021E00070B5022194B05648FFF721FB10B1554855
:1021F000FFF7A6FF01A8FEF7ABFB06A8FFF7C6F99D
:102200000EA8FFF7A5F901210846FEF7B3F9012151
:102210004FF4807000240125FEF7DCF9032601A9A4
:10222000494801958DF808608DF80B40FEF742FB98
:1022300006A80694079408940994FFF793F90EA949
:102240003F480E948DF83C408DF83D401094119419
:1022500012948DF84C50FFF755F929463848FFF78E
:102260001CFA2A46234621463548FFF7C7F9294676
:102270003348FFF791F901A8FEF76AFB0AA8FFF7B8
:102280006FFD29462846FEF775F929464FF00050A4
:10229000FEF794F9102301A92B4801938DF80860EB
:1022A0008DF80B40FEF706FB0AA920460A940B9412
:1022B0000D94FFF73FFD29462046FFF757FD2946BD
:1022C0002846FEF77BF903A8FEF7BEFC1F4B204A09
:1022D0001B68B3FBF2F303A9013B4FF08040ADF85C
:1022E0000C30ADF80E400495ADF814408DF8164052
:1022F000FEF76CFC4FF08040FFF752F829464FF094
:102300008040FEF7F8FC2A4629464FF08040FFF750
:1023100039F81C2368468DF800308DF801408DF89F
:1023200002508DF80350FFF7A1FC80210648FEF70C
:102330003EFB4FF400410748FEF737FB14B070BD79
:10234000002001404C4C00200000024024000020EE
:1023500000770100000C024008B520210348FEF779
:102360001BFB431E5842584108BD00BF00000240FD
:102370000A4602484FF40041FEF71BBB000C024026
:102380000A4602484FF40051FEF713BB0004024016
:102390000A4602488021FEF70CBB00BF0000024045
:1023A0000A4602484FF48051FEF703BB000C02407E
:1023B0000A4602484FF40051FEF7FBBA000C0240F7
:1023C0000A4602484FF48041FEF7F3BA000C02407F
:1023D0000A4602484FF40061FEF7EBBA000C0240D7
:1023E0002DE9F0414FF4B971044605F0D3FE4FF4E6
:1023F000B97104F1100005F0CDFE04F12C060023A4
:1024000023626362A36204F14C01324622F8023B6C
:102410009142FBD14FF0000384F84C3004F16E017F
:1024200004F14D03002203F8012B9942FBD104F182
:102430006F0884F86E2004F17B074346002203F8FE
:10244000012BBB42FBD104F187023B46002103F87C
:10245000011B9342FBD104F1AF02002103F8011BE1
:102460009A42FBD11346002504F1D70203F8015B21
:102470009A42FBD1A4F8D850A4F8DA50C4F8DC5042
:1024800084F8E05084F8E15020220021304606F024
:1024900024FF052384F8203009236384094B6362F9
:1024A000A6620C220849384606F00CFF0C220649A9
:1024B000404606F007FF84F8E05084F8E1502046DB
:1024C000BDE8F08128000020DC960008222A70B5C3
:1024D00005460C461CD105F070FE20281AD995F847
:1024E000E0302BB1284605F063FE002385F8E0308C
:1024F00004F1210614F8011F284605F09FFEB4429E
:10250000F8D1064B187838B9012385F84C3070BDE6
:10251000042070BD052070BD002070BDEA4D002074
:10252000222AF8B505460C461FD100F110063046A8
:1025300005F043FE20281AD995F8E1302BB130463A
:1025400005F036FE002385F8E13004F1210714F888
:10255000011F304605F072FEBC42F8D1064B1878D8
:1025600038B9012385F84C30F8BD0420F8BD0520AA
:10257000F8BD0020F8BD00BFEA4D0020092AF8B5DB
:1025800004460D4625D10C2200217B3006F0A5FE25
:10259000114E12480022D11002F0070E6F5C935DBD
:1025A00010F80E100F4203F0070104EBD30319BF1C
:1025B000415C93F87B70475C93F87B1002F1010259
:1025C00014BF3943B943442A83F87B10E3D1002078
:1025D000F8BD0420F8BD00BFE8960008D4960008B6
:1025E000012A04D10B78012B03D0022B05D0042043
:1025F000704780F8E0300020704780F8E120FAE76B
:10260000002380F84C10C0F8DC3080F8E03080F80F
:10261000E1307047002914BF0523002380F84C30B7
:10262000704700002DE9F04194B00646174600249B
:1026300003AD40F2C33240F649304FF2B74E4FF689
:102640003D4C01F0C003802B2AD0C02B25D0002B9D
:102650000CBF6346734625F8143001348900042CFE
:10266000C9B2EED10DF1140814220021404606F043
:1026700034FE23460AAA294606F120008DF81E7072
:1026800006F08EF9CDF8008014230AAA022106482C
:1026900000F00EFE14B0BDE8F08125F81400DCE770
:1026A00025F81420D9E700BF4C4C002008B505F0F0
:1026B00084FD2323B0FBF3F0C0B208BD08B5103091
:1026C00005F07BFD2323B0FBF3F0C0B208BD2DE97C
:1026D000F04100EB0116044630460D4605F08EFD34
:1026E000D0B1D4F8DC30132B16D904F1870504F1EE
:1026F000A8074FF00008304605F0C5FD85F8280012
:1027000005F8018BBD42F6D12123A4F8D83000236F
:10271000A4F8DA30BDE8F0812544002285F8E020F5
:1027200004F14D0304F16E0113F8010B83F861000D
:102730008B4283F83920F7D1E6E710B500F1870323
:1027400000F1A8015F24002283F8284003F8012B40
:102750008B42F9D12123A0F8D830A0F8DA2010BD9F
:10276000F8B5D0F8DC300133C0F8DC3090F86E30CA
:102770000B2B84BF002380F86E3090F86E30044637
:102780000E46174600F16F059BB905F037FD20B9DD
:1027900004F1100005F032FD30B10C2204F17B0190
:1027A00004E02A4601232EE031490C22284606F097
:1027B00089FD94F86E100322294404F1AF0006F05D
:1027C00081FD012F0CBF0823042384F88930D4F83D
:1027D000DC300020132B84F8870084F8880006D9A9
:1027E00004EB071005F00AFD003018BF0120731E2E
:1027F00094F86E5059425941002DD2D0B5F10903D9
:1028000018BF0123012294F8AFE0012E80EA0107EE
:102810004EEAC01E0CBF0820002040EA0E0084F8DB
:10282000AF0094F8B00040EAC21040EAC300514043
:10283000BA4214BF02220022024394F8B10084F885
:10284000B0208B4214BF202200220243BB4214BF9F
:1028500002230023134384F8B1300323A4F8D830B3
:102860000023A4F8DA30EB1C84F86E30F8BD00BF0A
:10287000DC96000838B590F84C300446002B41D067
:10288000B0F8D820DAB9013B042B3CD8DFE803F0DC
:10289000033B100A15000021FFF719FF042384F8F9
:1028A0004C300CE000220121FFF75AFF0323F6E72A
:1028B0000121FFF70CFF0223F1E7FFF73EFFB4F819
:1028C000D830FBB1134800F049FD0546142D19D945
:1028D000B4F8DA30E218013392F8AF1092F887209A
:1028E000A4F8DA302046FFF79DFEB4F8DA20B4F8F9
:1028F000D830143D9A42ADB2E8DB0023A4F8DA30B8
:10290000A4F8D83038BD01220021FFF729FF0123A8
:10291000C5E700BF4C4C002037B500F14D040D4613
:1029200021220749204606F0CDFC01A802F0C6FF8F
:1029300023460922294601A803F016F803B030BD4A
:102940002C97000800224FF6FF710260426001815F
:10295000428170472DE9F743DFF8809004460E4628
:102960001746002545F6BF58ABB2BB4233DA36F8FE
:102970001320618963688A422189C8BF62818A42C3
:102980001344B8BF2281226863600132424522604D
:102990001FD9B3FBF2F362898DF80120110A228955
:1029A0008DF800108DF80320110AC3F307228DF86B
:1029B00002108DF804206946062248468DF805303D
:1029C00004F02CFF00234FF6FF7223606360228126
:1029D00063810135C8E703B0BDE8F083BC75002012
:1029E000014804F095BB00BFBC75002010B523481A
:1029F000234C04F093FB234800F0E8FA224B1B78A9
:102A00002BB12378012B02D1204805F05DFA204B31
:102A10001B7843B12378022B05D11E4B1B783BB3A7
:102A20001D48FFF727FF1D4B1B782BB12378032B85
:102A300002D11B4803F00AFC1A4B1B782BB12378F8
:102A4000042B02D1184804F047F82378632B02D1F5
:102A5000164805F059FD2378622B02D1144800F086
:102A600095F8237843B91348BDE8104005F0D6BE69
:102A7000114800F09BF9D6E710BD00BFBC750020DF
:102A8000E94D00204C4C002083000020A849002084
:102A900082000020840000204C4500208600002099
:102AA000008A002085000020307000208003002074
:102AB0003C030020900300203C1E002008B5FFF7D7
:102AC0008FFFFFF793FFFCE708B51C4801F026FDD8
:102AD0001B4805F051F81B4802F026FD1A4805F086
:102AE000A6FC1A48FFF77CFC194802F073FF19484E
:102AF00000F06CF8184802F090F9184803F004FB55
:102B0000174800F039FD174803F03EFF164805F05E
:102B1000CEFB164805F0F4FC154800F033F81548D4
:102B2000FFF710FF144805F069FE144804F012F98D
:102B30001348BDE8084000F0B9B900BF3046002096
:102B4000A849002054230020A42800204C45002040
:102B5000800700203C1E0020C0760020008A002054
:102B6000EC4D002030700020400300208003002046
:102B70003C0300208403002090030020BC7500204B
:102B80004C4C00200022027070470000017808B50C
:102B900041B107480121FFF73DFD0548BDE8084068
:102BA000FFF768BE0248BDE80840FFF733BD00BF2D
:102BB0004C450020012A06D10B785A1E534253413E
:102BC00003700020704704207047000038B54FF4B0
:102BD000B971044604F11C0505F0DCFA00222261FB
:102BE0006261A26104F13C03294621F8022B8B4269
:102BF000FBD104F2EC41002203F8012B8B42FBD104
:102C0000F023A4F8EC24A4F8EE24C4F8F03404F281
:102C1000155104F2F443002203F8012B8B42FBD13F
:102C200084F8152500212022284606F056FB0523AE
:102C3000237409236382024B6361A561204638BD7A
:102C400088000020222A70B506460C460ED105F0F9
:102C5000B4FA20280CD904F1210514F8011F3046DC
:102C600005F0ECFAAC42F8D1002070BD042070BD34
:102C7000052070BDF0B58FB00A46002302A940F2CE
:102C8000C33540F649364FF2B7474FF63D4E02F096
:102C9000C004802C1DD0C02C18D0002C0CBF744652
:102CA0003C4621F8134001339200042BD2B2EED1FE
:102CB00004AA103005F074FE0023009304AA142324
:102CC0000221054800F0F4FA0FB0F0BD21F81360BE
:102CD000E9E721F81350E6E74C4C002008B505F071
:102CE0006CFA2323B0FBF3F0C0B208BD0C234FF401
:102CF000167203FB0121B1F5966F8ABF4FF49663FC
:102D0000C0F8F014C0F8F03470470000F8B590F83F
:102D100015350B2B84BF002380F8153590F8153539
:102D20000C4621490546164619440322204606F062
:102D3000C9FA731E5A425A4195F81535002B30D006
:102D4000B3F1090118BF0121012383EA02002278AF
:102D5000012E42F080060CBF0822002242EA060241
:102D60002270627814BF0127002742EAC31242EAA8
:102D7000C106BB4214BF022200223243A378627014
:102D8000814214BF202200221A43B94214BF0223F9
:102D900000231343A37095F81535033385F81535D3
:102DA000F8BD0121D1E700BF4D97000870B5B0F81C
:102DB000EC54044635B905F021FAA0BBB4F8EC3464
:102DC000002B58D02C4800F0C9FA0546142D52D9D2
:102DD000B4F8EE345A1C2344A4F8EE2493F83C10C3
:102DE0002046FFF747FFB4F8EE24B4F8EC34143D66
:102DF0009A42ADB2EADB0023A4F8EE34A4F8EC3436
:102E000070BDD4F8F0245F20591C9BB2934204D2C9
:102E1000234483F83C000B46F6E7A4F8EC24002397
:102E2000A4F8EE34CAE7154B1B78002BE9D02A46EC
:102E300004F13C012046FFF769FF04F13F0504F16E
:102E40006006204605F01FFA05F8010BAE42F8D1E6
:102E5000012231462046FFF759FF04F1630304F1D4
:102E6000840293F8911403F8011B9A42F9D1482384
:102E7000A4F8EC34D3E770BD4C4C0020EA4D0020A0
:102E800037B500F2F4440D4621220749204606F0EA
:102E900019FA01A802F012FD23460922294601A8C9
:102EA00002F062FD03B030BD59970008F8B5002567
:102EB00004464FF4167100F8045B00F0B5FA4FF4C5
:102EC000FA7104F1180000F0AFFA04F160074FF452
:102ED000167104F12C0005F0C5F804F1EC06A58785
:102EE00025646564A4F84850E5642565A4F8545049
:102EF000A565E5653B4623F8025B9E42FBD104F5E0
:102F00009E753346002223F8022BAB42FBD104F519
:102F1000BC712A46002322F8023B8A42FBD14FF0C3
:102F2000000284F878214FF48042A4F87A21A4F8B2
:102F30007C21A4F87E21A4F88021A4F88221A4F8A1
:102F400084210122C4F8883184F88D31A4F88E31AF
:102F5000A4F89031C4F8943184F8983184F88C2125
:102F600000218C22384606F0B8F950220021304664
:102F700006F0B3F93C220021284606F0AEF92A23D8
:102F8000A3870A4B63640C23A4F84830084B2365DD
:102F90000623A4F85430074B27642046E664A56551
:102FA000E365FFF785F82046F8BD00BF0601002065
:102FB000EE000020E2000020037810B504461BB9A3
:102FC000FFF70EF90123237010BD0000F0B5D0F813
:102FD00088310278013387B00446C0F88831002A6E
:102FE00000F0B280D0F894214BF67F339A4212D988
:102FF0009E4D2A78511E02290AD8022A06D19C4BDE
:103000001B781BB100219B48FFF7FAFA00232B70B5
:103010000023C4F89431D4F8882145F6BF539A426E
:103020000BD994F88C11002381F00101C4F8883188
:1030300084F88C112046FFF79BF904F1180000F08A
:1030400029FA20B98A4B1A78002A40F00881271DF6
:10305000384600F01FFA012840F38380002502ABB8
:103060005A1905A9384600F05CFA04AB03EB450198
:1030700004F12C0005F069F894F88D315BB1BDF8CE
:1030800014301BB140F6FF72934204D1B4F88E3174
:103090000133A4F88E31BDF81430A3F50062B4F802
:1030A0007A3103AE13FB02F3DB1303F30F0326F8AD
:1030B00015300135022DD2D194F89831002B50D122
:1030C0006A4B1B78002B55D16B4B1B7863B12B4699
:1030D00005AA314604F1480005F05EFE2B4604AA1D
:1030E00005A9664801F034FE654B1B7863B10223E5
:1030F00005AA314604F1540005F04EFE022304AA4D
:1031000005A9604800F022FE5F4D604F2A780AB999
:103110003B7833B3022305AA314604F13C0005F0A5
:103120003BFE2B783BB15A4B1B78E3B1022205A939
:10313000584802F0AFFB3B789BB1022304AA05A9D3
:10314000554802F0A3F90CE054498B4209D990F894
:103150008C11C0F8882181F0010180F88C11FFF7F3
:1031600007F907B0F0BD022304AA05A94C4802F0F4
:10317000A1FFE0E7012B11D13F4B1B78002BF0D0D2
:103180002B4605AA314604F1480005F005FE2B4602
:1031900004AA05A9394801F0DBFDE2E7022B25D19D
:1031A000394B1B78002BDCD02B4605AA314604F1A5
:1031B0003C0005F0F1FD364B1B7883B12C4B1B789E
:1031C0003BB1009502AB04AA05A9364805F03CF9CD
:1031D000C7E72A4605A92F4802F05CFBC1E72B464A
:1031E00004AA05A92E4802F065FFBAE7032B0BD10C
:1031F000264B1B78002BB4D02B4605AA314604F190
:103200003C0005F0C9FD98E7042B11D11C4B1B783D
:10321000002BA6D02B4605AA314604F1540005F038
:10322000BBFD2B4604AA05A9164800F08FFD98E7C0
:10323000632B0CD105AA314604F148002B4605F05A
:10324000ABFD2A4605A9184805F0C2F889E7602BAE
:1032500087D12A4604A91548FFF77CFB81E718703F
:1032600094F878112046FFF78BF8F0E6E94D00203E
:10327000EA4D00204C45002083000020304600200D
:1032800085000020EC4D00208200002086000020F8
:103290008400002054230020C07600207FA9030072
:1032A00080070020A4280020400300208403002081
:1032B0002DE9F04799460378089E04460D4690464E
:1032C000002B46D090F89831002B42D1224B1A782F
:1032D00032B990F87811012251401A70FFF750F876
:1032E000691E032930D8DFE801F00226292CB4F941
:1032F0007E514FF0000A04F118071FFA8AF34B457C
:1033000027DA38F8131011FB05F1C91301F30F0187
:1033100001F5006189B2B1F5805F22BFB4F8902158
:103320000132A4F8902196B93246384600F0D2F81E
:103330000AF1010AE1E7B4F98051DAE7B4F9825100
:10334000D7E7B4F98451D4E7B4F97C51D1E7F25C02
:10335000EBE7BDE8F08700BFEA4D0020183000F031
:1033600078B8000038B5044C22788A420D4601D066
:10337000FFF70EF8257038BDE84D002080F88D115C
:1033800070477047F0B580F878319DF818309DF897
:1033900014709DF81C609DF820509DF82440DB01BE
:1033A000A0F87C319DF82830FF01F601ED01E40121
:1033B000DB01A0F87A71A0F87E61A0F88051A0F836
:1033C0008241A0F8843111B17F42A0F87A715AB1DC
:1033D00076426D4264425B42A0F87E61A0F8805163
:1033E000A0F88241A0F88431F0BDB0F88E310033EE
:1033F00018BF01230B70B0F89031003318BF0123C0
:1034000013700023A0F88E31A0F890317047183067
:1034100000F0ADB8043000F0AAB80023C0F8943131
:10342000704790F89801704738B504460023218012
:1034300083814360C38183600374437448000D46F5
:1034400005F0C4FE6060284605F0C0FEA06020467E
:1034500038BDC289838992B29BB29A42028808D150
:10346000037C002B0CBF104600209042C8BF0020F8
:103470007047C189838989B29BB29942B9BF838958
:10348000C089C3898089BABF12FA80F0C01A181A9D
:1034900080B2EAE7C289838992B29BB29A4205D18F
:1034A000027C02F0FF039AB100887047C2898389C9
:1034B00092B29BB29A42A3BFC28983890088838952
:1034C000B5BFC08910FA83F0181A801A80B270470D
:1034D00018467047037C30B503F0FF041BB101238D
:1034E0004374002030BD838945689BB225F81310D2
:1034F000838981689BB2CA548389028801339BB255
:10350000838183899BB29342A8BF84818289C389C6
:1035100092B29BB29A424FF0010308BF037418465F
:1035200030BD10B503468489C089A4B280B28442FC
:1035300004D11C7C04F0FF0004B910BDD8895C687C
:1035400080B234F810000880D989986889B2415C4B
:10355000117000211974DA891888013292B2DA8167
:10356000DA8992B2824200DBD981012010BD034684
:103570000022407C5A7470470346002203F8042B53
:1035800000F1180143F8042B8B42FBD100F50751E1
:103590001831002223F8022B8B42FBD142F2D813C0
:1035A00042F2DC11C25242F2DA13C25242F20F73FB
:1035B000435242F2DE11435242F2E011435242F2D0
:1035C000E211435242F2E411435242F2E6114352F5
:1035D00042F2E811435242F2EC130021C25042F28F
:1035E000F013C25242F2F2134FF00002C25400F53F
:1035F000075300F508523433143223F8021B9A4261
:10360000FBD142F214230022C15200F5085300F509
:1036100008511633363123F8022B9942FBD142F27E
:1036200036236321C25242F23823C15442F23C2372
:10363000C25000F509531A80704742F2DA12002393
:103640000370835242F2D8126321835242F2EC1289
:10365000835042F23822815442F2DC1142F20F725E
:10366000425242F2DE11425242F2E011425242F222
:10367000E611425242F2E811425242F2E211425243
:1036800042F2E411425242F21422835242F23622B2
:10369000835242F2F012835242F2F212835442F207
:1036A0003C22835000F5095003807047F7B53F4E28
:1036B0004FF47A5304464FF0000E1F4630461FFA6F
:1036C0008EF595421FDA01F10C0534F91550002DE5
:1036D00012DDA842B8BF2846AF42A8BF2F464D1DF5
:1036E000ADB2B5F5875F22BFA1F586511B398DB20A
:1036F0000EF1010E2946E2E7AB42A8BF2B46AE42CF
:10370000B8BF2E46EBE7C219334452105B10D518F0
:103710006D102EB2551B2DB21BB212B22449254892
:103720000195009604F093F942F2382104F507520E
:10373000635C04F50850632B02F1340200F11400BD
:1037400024D1134623F8026B98421D84FAD142F229
:1037500038230021E15442F214210023635242F243
:1037600036216352194632F9025B2944158C904286
:103770002B4409B21BB2F6D142F214220911A15214
:1037800042F236221B11A35203B0F0BD04EB4307F3
:1037900042F2F41E013327F80E60DBB242F2162625
:1037A0000F2BBD536354D2D8D5E700BF80C1FFFFB4
:1037B0001D980008BC7500202DE9F04FBDF824408D
:1037C000BDF92CC0BDF92880324EA71C0134BFB210
:1037D000A4B24FF0000ECCF100091FFA8EFABD1E04
:1037E0009245ADB254DA01F10C0A30F81AB0ABEBE5
:1037F000080B0FFA8BFBCB454FEAE50A05F00705EE
:1038000011DA16F805B013F80A5025EA0B0503F88B
:103810000A50E51004F0070A16F80AA013F805B0DC
:103820004AEA0B0A13E0BBF1000F23DA16F805B0E1
:1038300013F80A5025EA0B0503F80A50E51004F0C6
:10384000070A16F80AB013F805A02AEA0B0A03F8CB
:1038500005A04D1DADB2B5F5875F22BFA1F5865518
:103860001B3DADB2023702340EF1010EBFB2A4B25D
:103870002946B2E7755DE34513F80AB045EA0B0542
:1038800003F80A504FEAE40504F0070AC4DAD8E75F
:10389000BDE8F08F7A97000842F2D8132DE9F04F77
:1038A000C35A00EB830304465B68674823F07F43F9
:1038B00087B0584004F060FF022800F3C38042F252
:1038C000DA134FF0000EE35A604FDFF884C103F5BE
:1038D00083550D35ADB2B5F5875F24BFA3F17305F0
:1038E000ADB22A4676464FF47A5002F10C031EF927
:1038F0000C1034F913309F42B8BF1F469842A8BF3E
:103900001846012908D0032904D0013140F09780DE
:103910001E4402E003EB4303F61A511D89B2B1F5D0
:10392000875F24BFA2F586521B3A0EF1010E2CBF11
:1039300092B20A46BEF1180FD7D142F2EC13E35807
:10394000B3427FDA42F23823E35C632B0CD142F2BC
:103950001422C3195B10A35244F63E12FB1A5343C0
:1039600042F23622DB13A35242F236230027E35EF3
:10397000029342F214230DF11009E35E01930097C4
:103980004B46182229462046FFF716FF2378DFF81A
:10399000C4B0BB420CBF4FF0020A4FF0040AB84655
:1039A00019F8080018F80B30584004F0DFFE08F151
:1039B00001080744B8F1060FFFB2F1D1574541DCC9
:1039C00042F2EC130522E65042F2F01342F2E0110B
:1039D000E25242F2DA1342F2E812E35AA35242F2FE
:1039E000DE12A55203F58352073292B2B2F5875F19
:1039F00028BFA3F1790262522278E2B942F2E612BC
:103A000042F2E211A35242F2DC12A55203F2BB725F
:103A100092B2B2F5875F28BFA3F62512625203F275
:103A2000BD7292B2B2F5875F42F2E4112ABFA3F6EB
:103A3000231362526352012007B0BDE8F08F03EBFD
:103A4000430365E70020F7E7A030FB0080C1FFFFDC
:103A5000889700088297000838B50446FFF71CFFD6
:103A6000B8B142F2F215635D9BB942F23C220121EA
:103A7000A35004F509521D481380FFF773FC012180
:103A80001A48FFF77BFC42F238236322E2540523F5
:103A9000635542F2F213E25C0AB1013AE254E35C8C
:103AA000012B21D142F2E61342F2E211E35A03F272
:103AB000BB7292B2B2F5875F28BFA3F6251262529D
:103AC00003F2BD7292B2B2F5875F42F2E41124BFF5
:103AD000A3F6231363524FF0010338BF62522370E1
:103AE00042F2F2130022E25438BD00BF4C4C0020D9
:103AF00042F2E213F0B5C25A42F2E41342F2DA1192
:103B0000C35A415A9A429FB0044665DA8A4204DC9D
:103B10008B4202DB2046FFF7BFFE42F2DA13E25A85
:103B200042F2E413E35A9A4254D142F2E61642F2C8
:103B3000E813A25BE35A9A4228D042F2DC174FF412
:103B4000C672E15B2046FFF7B1FDA25F244842F256
:103B5000362642F21425A15F635F0091214903F0EC
:103B600031FFA35F0293635F01930823E15B00933E
:103B70004FF4C67205AB2046FFF71EFE01236422F8
:103B800005A917488DF8143003F0AAFD42F2E81396
:103B900042F2E211E35A03F586521F3292B2B2F5B5
:103BA000875F28BF03F1FF3262525A1C92B2B2F50E
:103BB000875F28BFA3F5865342F2E41124BF1F3B61
:103BC00063524FF0020338BF6252237042F2EC138B
:103BD0000022E2501FB0F0BD8A4299DC9AE700BF94
:103BE000BC750020A097000810B5D92204460548EE
:103BF00003F0A2FD42F23C220023A35004F5095435
:103C0000238010BDBC75002042F2E213F0B5C25A09
:103C100042F2E41342F2DA11C35A415A9A42BDB059
:103C2000044679DA8A4204DC8B4202DB2046FFF745
:103C300033FE42F2DA13E25A42F2E013E35A9A42B6
:103C400068D142F2F013E35A052B1AD142F2E8137D
:103C500042F2E211E35A03F586521F3292B2B2F5F4
:103C6000875F28BF03F1FF3262525A1C92B2B2F54D
:103C7000875F42F2E41125BFA3F586531F3B6252D2
:103C8000635242F2DE174FF45872E15B204642F273
:103C90003626FFF70BFD42F2142542F2E812A15F2F
:103CA000635FA25E00912548254903F08BFEA35F68
:103CB0000293635F019308230093E15B05AB4FF42C
:103CC00058722046FFF778FD42F2F013E55A013DA5
:103CD000ADB2E5521DBB1B49184803F0F6FD29465D
:103CE0001948FFF73FFB29461748FFF747FB1348E2
:103CF00003F04EFD42F2E01342F20F722570E252E1
:103D000042F238236322E25442F2F213E55442F2C3
:103D1000EC13E5503DB0F0BD8A4285DC86E72B1FF1
:103D20005D425D4105A920468DF81450FFF75CFF08
:103D300042F2EC130022E250ECE700BFBC75002019
:103D4000CE970008FC9700084C4C00202DE9F04766
:103D500000F5075504460F4690469946002618354B
:103D6000F3B24B4542DA42F23C2037F913102258A5
:103D700038F81330134404F50952235013880133E3
:103D800013802A8804EB8202002953684FEA430318
:103D9000B8BF43F0010342F2DA1A536034F80A3034
:103DA0000C3324F813102378012B05D0022B19D0E3
:103DB0002046FFF751FE02E02046FFF799FE34F857
:103DC0000A3001339BB2B3F5875F28BF002324F884
:103DD0000A302B8801339BB2042B88BF00232B8031
:103DE0000136BDE72046FFF70FFFE8E7BDE8F087A3
:103DF000034610B500F1180203F8041B002143F834
:103E0000041B9342FBD11A4600F5E464002322F818
:103E1000023BA2424FF00001F9D142F20F72A0F82A
:103E20002037A0F82237A0F82437A0F82637A0F8CA
:103E30002827A0F82A37C0F82C37A0F83037A0F888
:103E40003237A0F83437A0F83637A0F83837A0F862
:103E50003A37A0F83C37A0F83E3780F8401780F892
:103E6000411780F8421780F84317A0F8443780F8CC
:103E7000461780F8471780F8481700F24A7300F693
:103E80005262002123F8021B9342FBD110BD002394
:103E9000A0F82237A0F82A37A0F82037C0F82C372E
:103EA00080F8413770470023A0F82437A0F8223764
:103EB000A0F82A37A0F82037C0F82C3780F841370F
:103EC00080F8423780F84637A0F8263742F20F7361
:103ED000A0F82837704700002DE9F04FBDF82440C6
:103EE000BDF92C90BDF928A02D4E04F1020E01342D
:103EF0001FFA8EFEA4B24FF00008C9F1000B5FFA62
:103F000088F7AEF102059742ADB246DA01F10C072F
:103F100030F817C0ACEB0A0C0FFA8CFCDC454FEA0A
:103F2000E50705F007050EDA16F805C0DD5D25EAA0
:103F30000C05DD55E51004F00707F75D13F805C023
:103F400047EA0C0710E0BCF1000F19DA16F805C0BB
:103F5000DD5D25EA0C05DD55E51004F0070716F8D0
:103F600007C05F5D27EA0C0705310EF1020E02342F
:103F70005F5589B208F101081FFA8EFEA4B2BEE7B0
:103F8000755DCC4513F807C045EA0C05DD554FEAD1
:103F9000E40504F00707D0DAE1E7BDE8F08F00BFE1
:103FA0003D980008B0F820372DE9F04F00EB83036F
:103FB00004465B68794823F07F43584089B00F4638
:103FC00004F0DAFBC31EDBB2122B804640F2928073
:103FD000B4F82217724DDFF8D4C1DFF8D4917339E9
:103FE00089B200228E464FF47A5016460EF10C0329
:103FF00034F913309D42B8BF1D469842A8BF1846F9
:10400000B8F1020FD4BF12F909A012F90CA0BAF14D
:10401000010F09D0BAF1030F04D0BAF1FF3F6CD100
:104020001E4402E003EB4303F61A01320EF1050EC3
:10403000182A1FFA8EFED9D1D4F82C379E4259DDAA
:10404000284440100FFA80F9281A44F631454543B8
:10405000042345F3CF350DF1180A0093029553461A
:10406000CDF804902046FFF737FFB8F1020F4FF06C
:104070000008DFF840B1434651DC4A491BF808000C
:104080001AF808200593024018F8010004915040E6
:1040900004F06CFB059B049908F101080344B8F196
:1040A000070FDBB2EAD1032B24D84FB3A4F83E5755
:1040B000A4F83C57A4F83A57A4F83857A4F8369710
:1040C000A4F83497A4F83297A4F83097002384F822
:1040D0004037C4F82C67402384F84137B4F82237BE
:1040E000A4F82437A3F5C37203F20D13A4F826270E
:1040F000A4F8283709B0BDE8F08F03EB43038FE73E
:1041000094F8403704EB43020133DBB2032BA2F8EF
:104110003857A2F83097DAD984F84077D9E722499E
:104120001BF808001AF808200593024018F801004F
:104130000491504004F01AFB059B049908F1010812
:104140000344B8F1070FDBB2EAD1032BD2D8B7B1E1
:10415000A4F83E57A4F83C57A4F83A57A4F83857A7
:10416000A4F83697A4F83497A4F83297A4F83097B7
:10417000002384F84037C4F82C672023ACE794F878
:10418000403704EB43020133DBB2032BA2F838576C
:10419000A2F83097EDD984F84077ECE76E287600E6
:1041A00080C1FFFF4C9800085398000872980008DF
:1041B0005A9800084598000880F843177047A0F8FF
:1041C000441770470A4622230178014803F0E8B9F2
:1041D000BC750020B0F82A37F0B501339BB2044615
:1041E000A0F82A37B0F8440783428FB006DA94F873
:1041F0004607003018BF01200FB0F0BDB4F82237D9
:10420000B4F828078342F2DCB3F5617FEFD204EB08
:1042100043000029A0F84A270183B4F8200704EBE3
:10422000800042684FEA4202B8BF42F00102426099
:1042300094F84627002A66D1A3F5C8735A2B03D8F1
:1042400001212046FFF7AEFEB4F82237B4F8281754
:1042500099427CD1B4F93237B4F93057B4F93867A0
:104260001D44B4F934371D44B4F936371D44B4F94C
:104270003A371E44B4F93C371E44B4F93E370EAF0A
:104280001E4494F8413707F8243D45F38F05082371
:1042900046F38F06A1F28E21009302963B460195CC
:1042A000842289B22046FFF717FE94F84137402B4D
:1042B00040F0C18004A801F001FB0DF113030DF1E2
:1042C00012020DF1150104A801F028FB94F8432710
:1042D0009DF812309A423AD100239DF8142084F8B8
:1042E000423784F847379DF813301A438DF814206D
:1042F0000A2B00F29580DFE803F0675276939393E0
:10430000123939933900B4F82427511E89B28B42EF
:104310009ADB013292B2934296DC002191E7237836
:1043200076497748002B18BF0222B4F9243708BF1A
:1043300001228DE8600003F08AFB39462046FFF732
:1043400041FF022384F84637002384F84837B4F845
:1043500022370133A4F82237B4F8203701339BB257
:10436000042B88BF0023A4F8203740E794F8463791
:10437000022BECD1237863496148002B18BF02223D
:10438000B4F9243708BF01228DE8600003F05FFB19
:1043900039462046FFF716FF9DF81330D5E72378FE
:1043A00059498DE86000002BB4F9243714BF02226C
:1043B0000122534803F04BFB39462046FFF702FF2A
:1043C000012384F84637C2E794F84637012BF7D12A
:1043D00023784E49002B8DE86000B4F9243714BFD0
:1043E00002220122E5E794F84637012BAFD123786A
:1043F00047498DE86000002BB4F9243714BF02222E
:1044000001223F4803F023FB39462046FFF7DAFE3E
:10441000002384F8463742F20F73A4F8283796E752
:1044200023783C49002B8DE86000B4F9243714BF91
:1044300002220122E5E7202B1AD1237836493048A1
:10444000002B18BF0222B4F9243708BF01228DE8DF
:10445000600003F0FCFA39462046FFF7B3FE012363
:1044600084F84637002384F8423784F847376EE7EC
:1044700094F84637002B3FF46AAF94F84237013383
:10448000DBB20C2B84F842370AD921781C4803F0A0
:10449000B7F8002384F8463742F20F73A4F82837A0
:1044A00094F84637012B17D194F8473721781448F0
:1044B000042B8DBF20230133DBB28DF8143087BF6E
:1044C000002384F8473784F847378DF814303A468C
:1044D000222303F065F83AE7022B7FF438AF94F813
:1044E0004837002B3FF433AF43F0400339462046B2
:1044F0008DF81430FFF766FE29E700BF8A980008A0
:10450000BC750020C1980008F9980008319900088E
:104510006C990008A8990008D8990008002370B584
:1045200000F10C020446036003714371836000F1E3
:10453000700102F8013B8A42FBD123676367A367DE
:10454000E367C4F88030C4F88430C4F8883004F5D8
:104550009A7204F18C03002143F8041B9342FBD1AF
:1045600004F5EE72002143F8041B9342FBD104F5DD
:104570002172002143F8041B9342FBD104F54B72D6
:10458000002143F8041B9342FBD104F2563200256C
:1045900003F8015B9A42FBD104F55C76C4F85853EA
:1045A000A4F85C531022002104F5587004F095FE25
:1045B000A4F87053A4F87253A4F87453A4F8765373
:1045C00008220021304604F088FE012384F860337D
:1045D00084F86C53034BC4F86463C4F86833204612
:1045E00070BD00BF5A0100200023036003714371B6
:1045F000836003674367C0F85833A0F85C337047A3
:1046000010B529220446044802F036FF0023C4F8FE
:104610005833A4F85C3310BDBC75002010B50C22D3
:104620000446044802F054FF0023C4F85833A4F8A9
:104630005C3310BDBC750020836870B55B00044618
:10464000C1B9A360A06820F07F432148584004F01E
:1046500093F8022811DC5322002104F10C0004F02D
:104660003CFE00232367C4F85833A4F85C330123CD
:10467000637170BD43F00103E3E7A06820F07F435E
:104680001448584004F078F805460028F1D101217B
:104690001148FEF767FE04F10C0601210E48FEF7F3
:1046A0006DFE0C220D49C4F85853A4F85C533046F3
:1046B00004F008FE31462046FFF7B0FF0E222946DF
:1046C000304604F00AFE256765670223D0E700BF85
:1046D0005076550068B4AA004C4C0020B1A10008E7
:1046E00083682DE9F0415B00044619BB226FA3608B
:1046F00004EBD20002F00703F9B14549CB5C017B22
:104700000B430373A368434801322267584004F007
:1047100033F8032816DC00213F48FEF723FE3E480D
:104720000021FEF72BFE3D4802F01CFF00236371C1
:10473000BDE8F08143F00103D8E73949CB5C017B48
:104740000B40DEE7636FA3F2DD73042B2DD9002647
:10475000636FB3F5FC6F16D1DFF8C88001256FF0E9
:104760007F47A06827FA05F3034028FA05F0584070
:1047700004F002F8022827DC236FEDB25B1B2367ED
:10478000636F5D1B6567636F0133B3F5965F6367A6
:104790001ED300212048FEF7E5FD00211E48FEF74C
:1047A000EDFD1E4802F0C0FEC0E7A06820F07F4388
:1047B0001C48584003F0E0FF0228C8DC6023236750
:1047C000002363670126C3E70135042DC9D1DAE769
:1047D000236F602B13D104F10C0596B1552363753B
:1047E0002D23A3751623E37529462046FFF716FFF0
:1047F0000E220021284604F070FD00232367BDE847
:10480000F0810C222946054802F062FEF0E700BF65
:10481000269C00085E13AAAA4C4C0020BC75002000
:104820001E9C000868B4AA002DE9F0470D68D0F876
:104830007CE00E69846F0EEB050CD0F884502E449A
:10484000B4454FEAD4034FEA83036746A8BF37460F
:10485000B44504F0070200EB030CB5BF394E3A4EE5
:1048600016F8028016F80280B5BFDCF88C60DCF820
:104870008C6006EA080646EA0806CCF88C604E68AA
:10488000B6444E693544AE457646A8BF2E46AE4581
:10489000B5BF2C4D2C4D15F802C015F802C000EB29
:1048A000030E04F10104B5BFDEF83451DEF83451D3
:1048B00005EA0C0545EA0C05CEF83451D0F880E045
:1048C0008D68D0F888800EEB05098D694544A945AF
:1048D000CC46A8BFAC46A945B5BF1A4D1A4D15F830
:1048E00002A015F802A000EB03090344B5BFD9F8F4
:1048F000DC51D9F8DC5105EA0A0545EA0A05C9F890
:10490000DC51CD68C969754441448D42AE46A8BFAB
:104910008E468D42B5BF0B490B49895C895CB5BF9A
:10492000D3F88422D3F884220A400A43C3F88422AD
:10493000C767C0F88060C0F884C0C0F888E08467AA
:10494000BDE8F0870E9C0008169C000870B54A6808
:104950000B6888B0D11882F0010683F001052A4463
:1049600033440091741905916946019402930392AE
:10497000049406920793FFF757FF08B070BD00003C
:10498000F0B50022294C2A4E40F249111346032B60
:104990001AD8DFE803F0021D323FCD1001F0070303
:1049A00000EB8505E75CD5F88C303B4018BF02234F
:1049B00000EBD20702F0070597F82CE3755D05EAD6
:1049C0000E0587F82C53013211F1FF31DFD2F0BD13
:1049D000CD1001F0070300EB8505E75CD5F8343115
:1049E0003B4018BF022300EBD20702F0070597F8FF
:1049F0002CE3655D45EA0E05E3E7CB1000EB83038E
:104A000001F00705D3F8DC31655D1D420CBF0123C1
:104A10000323CDE7CD1000EB850501F00707D5F89E
:104A20008452E75D2F4208BF0123DCE7169C000893
:104A30000E9C000870B5114E4FF0FF334C1E01F173
:104A4000260514F8012F5A40D2B2C3F3072336F8D3
:104A50001200A54280EA03000346F2D1C04391F858
:104A60002720C3B29A4207D191F82830C0F307201B
:104A7000C31A5842584170BD002070BD0E9A0008FC
:104A80002DE9F0438A4F154699B004464A1E00238B
:104A90005078DE5D01337040532B02F8010FF7D1DF
:104AA000002303AA184698540133542BFBD1DFF896
:104AB00008C20022664680270CEB4200B2F5257F33
:104AC0005CDB0026E667C4F88060C4F88460C4F844
:104AD0008860A6674FF0800801274FF0400918ABA7
:104AE00003EBE603204613F8542C06F0070328FADC
:104AF00003F1114029FA03F30CBF0291029701A9B7
:104B0000134006F1020614BF01970193FFF71EFF41
:104B1000B6F5257FE3D12046FFF732FF6B1E05F186
:104B20002802002103F8011F9A42FBD140F24911EB
:104B3000604E0846012704EBE10201F0070C92F8F1
:104B40002CE316F80C201EEA020FA0EB010309D09B
:104B5000DA0803F0070315F802E007FA03F343EA63
:104B60000E03AB5411F1FF31E5D229462046FFF781
:104B700061FF19B0BDE8F0831A469FE7D31011F822
:104B800003E01EF0010F0CD090F8008018AB9844A1
:104B9000437818F8549C27FA03F343EA090308F80A
:104BA000543C1EF0020F0CD090F8028018AB9844D1
:104BB000C37818F8549C27FA03F343EA090308F86A
:104BC000543C1EF0040F0CD090F8048018AB9844AD
:104BD000437918F8549C27FA03F343EA090308F8C9
:104BE000543C1EF0080F0CD090F8068018AB984487
:104BF000C37918F8549C27FA03F343EA090308F829
:104C0000543C131DB3F5257F00F10800B4DA1EF003
:104C1000100F0FD016F813000DF1600806EB4303D8
:104C200040445B7810F8548C27FA03F343EA0803F6
:104C300000F8543C1EF0200F10D0531D0DF16008F9
:104C400016F8130006EB430340445B7810F8548CCD
:104C500027FA03F343EA080300F8543C1EF0400F20
:104C600010D0931D0DF1600816F8130006EB4303F6
:104C700040445B7810F8548C27FA03F343EA0803A6
:104C800000F8543C1EF0800F10D0D31D0DF1600EC3
:104C900016F8130006EB430370445B7810F854ECED
:104CA00027FA03F343EA0E0300F8543C083203E703
:104CB0002E9C0008169C0008899C000830B583686B
:104CC0008DB004465B00002932D1A360236F03F04E
:104CD000070204EBD30071B31A498A5C017B0A43D3
:104CE0000133B3F5257F027323671FD104F10C054F
:104CF00001AA29462046FFF7C3FE08B30121124846
:104D0000FEF730FB01211048FEF738FB01A92046D1
:104D1000FFF776FC0E220021284604F0DEFA00237D
:104D200023670223637140F2817363670DB030BD66
:104D300043F00103C9E705498A5C017B0A40CFE7DC
:104D40006071F3E7269C00084C4C00201E9C000874
:104D50002DE9F0478AB00446914600F558706A463E
:104D600088461F4604F074F900221546D3B2BB42B0
:104D700002F1010206DA0AA901EB430333F9283CE8
:104D80001D44F3E795FBF7F500262DB243F2333AC5
:104D9000B3B29F423EDD39F81310D4F858230A44C9
:104DA000C4F85823B4F85C230132A4F85C2338F922
:104DB00013102379A942ACBF002101218B4209D0F5
:104DC0002368B3F5004F2ABF6FF4CC7203F2991336
:104DD0009B1823602368217103EB0A02B2F5803F20
:104DE00002D222600136D3E7A3F54C43CD3B2360CA
:104DF0006379012B0AD005D3022BF3D12046FFF7AC
:104E00006FFCEFE72046FFF717FCEBE72046FFF7C4
:104E100055FFE7E70AB0BDE8F0870346002203F834
:104E2000042B00F1180143F8042B8B42FBD100F551
:104E300096511831002223F8022B8B42FBD141F20C
:104E4000D82341F2DC21C25241F2DA23C25242F2AB
:104E50000F73435241F2DE21435200F597510B800C
:104E600041F2E221435241F2E421435241F2E8236C
:104E70000021C25041F2EC23C25241F2EE234FF026
:104E80000002C25400F5975300F5985210331032C7
:104E900023F8021B9A42FBD141F210330022C15287
:104EA00000F5985300F599511233123123F8022B73
:104EB0009942FBD141F232336321C25241F2343381
:104EC000C15441F23833C25041F23C33C2527047B0
:104ED00041F2DA2200230370835241F2D822632187
:104EE000835241F2E822835041F23432815441F23C
:104EF000DC2142F20F72425241F2DE21425241F273
:104F0000E421425200F597510A8041F2E2214252D7
:104F100041F21032835241F23232835241F2EC229A
:104F2000835241F2EE22835441F23832835041F2EF
:104F30003C32835270470000F7B53E4E4FF47A532F
:104F400004464FF0000E1F4630461FFA8EF595427C
:104F50001EDA01F10C0534F91550002D11DDA842BF
:104F6000B8BF2846AF42A8BF2F464D1DADB2B5F51C
:104F7000166F24BFA1F65B118DB20EF1010E29460A
:104F8000E3E7AB42A8BF2B46AE42B8BF2E46ECE7E4
:104F9000C219334452105B10D5186D102EB2551B38
:104FA0002DB21BB212B2244924480195009602F09A
:104FB0004EFD41F2343104F59752635C04F598508C
:104FC000632B02F1100200F1100024D1134623F8E4
:104FD000026B98421D84FAD141F234330021E1542E
:104FE00041F210310023635241F2323163521946CB
:104FF00032F9025B2944158C90422B4409B21BB252
:10500000F6D141F210320911A15241F232321B1194
:10501000A35203B0F0BD04EB430741F2F02E01337D
:1050200027F80E60DBB241F212360F2BBD536354EA
:10503000D2D8D5E780C1FFFF26A20008BC750020AA
:105040002DE9F04FBDF82440BDF92CC0BDF92880F2
:10505000324DA71C0134BFB2A4B24FF0000ECCF108
:1050600000091FFA8EFABE1E9245B6B253DA01F15C
:105070000C0A30F81AB0ABEB080B0FFA8BFBCB45E0
:105080004FEAE60A06F0070611DA15F806B013F83B
:105090000A6026EA0B0603F80A60E61004F0070A25
:1050A00015F80AA013F806B04AEA0B0A13E0BBF1A0
:1050B000000F22DA15F806B013F80A6026EA0B068C
:1050C00003F80A60E61004F0070A15F80AB013F8AE
:1050D00006A02AEA0B0A03F806A04E1DB6B2B6F5E2
:1050E000166F24BFA1F65B16B6B2023702340EF17A
:1050F000010EBFB2A4B23146B3E7AE5DE34513F88B
:105100000AB046EA0B0603F80A604FEAE40604F028
:10511000070AC5DAD9E7BDE8F08F00BFBDA10008D6
:1051200041F2D8232DE9F04FC35A00EB8303044624
:105130005B685648C3F3130387B0584003F01CFB69
:10514000032800F3A18041F2DA230026E35A5048F5
:10515000DFF840C103F60117BFB2B7F5166F24BFE1
:10516000A3F15F07BFB2394635464FF47A5201F1D9
:105170000C0316F90CE034F913309842B8BF184606
:105180009A42A8BF1A46BEF1010F09D0BEF1030F23
:1051900004D0BEF1FF3F74D11D4402E003EB430392
:1051A000ED1A4B1D9BB2B3F5166F28BFA1F65B112C
:1051B00006F101062CBF89B21946142ED7D141F24F
:1051C000E823E358AB425FDA41F23433E35C632B0C
:1051D0000CD1024441F210335210E252821A44F6CA
:1051E0003E10424341F23233D213E25241F23233A3
:1051F0000026E35E029341F210330DF11009E35EE5
:10520000019300964B46142239462046FFF718FFBB
:105210002378DFF884B0B3420CBF4FF0020A4FF09E
:10522000040AB04619F8080018F80B30584003F08B
:105230009DFA08F101080644B8F1050FF6B2F1D164
:10524000564521DC41F2E82341F2E422E55041F2E7
:10525000EC2341F2DE2124F8038041F2DA2301201D
:10526000E35AA35241F2DC22A75203F6FB0292B2A8
:10527000B2F5166F2ABF653B6252635207B0BDE8B4
:10528000F08F03EB430387E70020F7E7ADB5070096
:1052900080C1FFFFCAA10008C5A1000838B50446B7
:1052A000FFF73EFFB8B141F2EE25635D9BB941F2D5
:1052B00038320121A35041F23C321C48A352FEF780
:1052C00051F801211948FEF759F841F234336322AD
:1052D000E2540523635541F2EE23E25C0AB1013A40
:1052E000E254E35C012B20D141F2E42304F5975111
:1052F000E35A03F65F1292B2B2F5166F28BF03F1BC
:10530000FF320A805A1C92B2B2F5166F41F2E221C6
:1053100024BFA3F65F1363524FF0010338BF6252FC
:10532000237041F2EE230022E25438BD4C4C0020A1
:1053300010B579220446054802F084F941F238326A
:105340000023A35041F23C32A35210BDBC75002093
:10535000F0B541F2E22300F59755C35A2A8841F28D
:10536000DA219A42A5B00446415A75DA8A4204DC31
:105370008B4202DB2046FFF7D3FE41F2DA23E25AEA
:1053800041F2DE23E35A9A4264D141F2EC23E35A1C
:10539000052B16D141F2E42341F2E221E35A03F650
:1053A0005F1292B2B2F5166F28BF03F1FF322A8066
:1053B0005A1C92B2B2F5166F2ABFA3F65F1362525F
:1053C000635241F2DC274FF4F072E15B204641F278
:1053D0003236FFF7B1FD41F2103541F2E422A15F10
:1053E000635FA25E00912548254902F0EBFAA35FB6
:1053F0000293635F019308230093E15B05AB4FF4D5
:10540000F0722046FFF71CFE41F2EC23E55A013D05
:10541000ADB2E5521DBB1B49184802F056FA2946A9
:105420001948FDF79FFF29461748FDF7A7FF1348C6
:1054300002F036F941F2DE2342F20F722570E25299
:1054400041F234336322E25441F2EE23E55441F257
:10545000E823E55025B0F0BD8A4289DC8AE72B1F9E
:105460005D425D4105A920468DF81450FFF760FFAD
:1054700041F2E8230022E250ECE700BFBC750020B7
:10548000DEA1000805A200084C4C00202DE9F047E1
:1054900000F5965504460E46174698464FF000090B
:1054A00018355FFA89F343453CDA41F2383037F872
:1054B000132036F913102358134441F23C32235081
:1054C000A35A0133A3522A8804EB820200295368AD
:1054D0004FEA4303B8BF43F0010341F2DA2A5360B5
:1054E00034F80A300C33204624F813102378012BAB
:1054F00015D1FFF72DFF34F80A3001339BB2B3F515
:10550000166F28BF002324F80A302B8801339BB282
:10551000042B88BF00232B8009F10109C1E7FFF7A5
:10552000BDFEE8E7BDE8F087034600F11402002164
:1055300043F8041B9A42FBD100F23C51002322F8AD
:10554000023B9142FBD1A0F83C35A0F83E3542F237
:105550000F72C0F84435A0F84835A0F84A354FF02E
:105560000003A0F8402580F84C3570470023A0F8D0
:105570003E35A0F83C35C0F84435A0F84A35A0F8CF
:10558000483542F20F73A0F8403570472DE9F04FCF
:10559000BDF82440BDF92CC0BDF92880324DA71CB0
:1055A0000134BFB2A4B24FF0000ECCF100095FFA93
:1055B0008EFABE1E9245B6B253DA00EB410ABAF833
:1055C00014B0ABEB080B0FFA8BFBCB454FEAE60AA6
:1055D00006F0070611DA15F806B013F80A6026EA95
:1055E0000B0603F80A60E61004F0070A15F80AA093
:1055F00013F806B04AEA0B0A13E0BBF1000F22DAF7
:1056000015F806B013F80A6026EA0B0603F80A60DC
:10561000E61004F0070A15F80AB013F806A02AEA03
:105620000B0A03F806A04E1DB6B2B6F5257F24BFBF
:10563000A1F28F26B6B2023702340EF1010EBFB2CC
:10564000A4B23146B3E7AE5DE34513F80AB046EACB
:105650000B0603F80A604FEAE40604F0070AC5DA0D
:10566000D9E7BDE8F08F00BF46A20008B0F83C259E
:1056700050F8223000294FEA4303B8BF43F001033A
:105680002DE9F04F40F82230B0F83E3500EB4303EF
:105690000446998250F82230774823F07F4391B036
:1056A000584003F069F8022800F38A80B4F83E35C8
:1056B000724EDFF8D8C103F2212189B2B1F5257FFE
:1056C00024BFA3F1730189B200220F464FF47A5030
:1056D000154604EB470312F90CE0B3F914309E426F
:1056E000B8BF1E469842A8BF1846BEF1010F0AD0A7
:1056F000BEF1030F05D0BEF1FF3F40F0BA801D445C
:1057000002E003EB4303ED1A7B1D9BB2B3F5257F4B
:1057100028BFA7F28F2702F101022CBFBFB21F469C
:10572000182AD6D1D4F844359D4249DD3044401082
:105730000FFA80F8301A44F631464643042346F304
:10574000CF360DF11C0900930296CDF804804B462C
:105750002046FFF71BFF0027494ADFF834B1BA465D
:10576000B85C19F807300592034017F80B00584051
:1057700002F0FCFF01378244072F5FFA8AFA059A8C
:10578000EED1BAF1030F1BD8334642463D493E489D
:1057900002F0E2F8B4F83E35C4F8445503F20D12B5
:1057A00092B2B2F5257F24BF6FF4C3729B18A4F8A0
:1057B0004885A4F84A6534BFA4F84025A4F84035CC
:1057C000B4F83E25B4F8403593423CD1991D89B2D6
:1057D000B1F5257F28BFA3F28E21B4F94A35029393
:1057E000B4F9483501934FF0080328BF89B28422E9
:1057F0000093204607ABFFF7C9FE06A800F05EF84D
:105800000DF11B030DF11A020DF11D0106A800F0A8
:1058100085F894F84C259DF81A309A420CD19DF8E1
:105820001B30032B08D1C3238DF81C3007AA222379
:105830000021154801F0B4FE42F20F73A4F8403580
:105840000023C4F84435B4F83E3501339BB2B3F5B8
:10585000257F28BF0023A4F83E35B4F83C3501333A
:105860009BB2042B88BF0023A4F83C3511B0BDE8DF
:10587000F08F03EB430342E76E28760080C1FFFF01
:105880004EA2000874A20008BC7500205CA20008AB
:1058900055A20008F8B505460E46174600235C1CC5
:1058A000DBB2BB4206DA36F913102846FFF7DEFEFC
:1058B0002346F4E7F8BD80F84C15704770470000A8
:1058C000B1F5006F10B50ED3084C4FF4802340F6AD
:1058D0007540214207D0194201D15B08FBE7DA0A83
:1058E00042435140F5E7084610BD00BF00F8FFFFF6
:1058F00010B54C780B78E40004EBC3248B7804EBF0
:1059000053142146FFF7DCFF034B53F8200060409F
:10591000C0F3C72010BD00BFA0A2000873B51E468B
:105920004B7B0C7B15469A0942EA84020C7DC97CAC
:105930008DF8042089009B0023F03F0301F03C0117
:10594000194341EA9411A4008DF8051024F00F04C6
:1059500001A98DF80640FFF7CBFF030900F00F0007
:105960002B70307002B070BD02F00F0242EA0111DC
:10597000C8B2197B124A21F03F0141EA900130B5CB
:1059800032F810401973597BE5B2AA0801F00F01F3
:1059900041EA801102F0300001435973D97C02F0D2
:1059A0000F0221F00F0111431A7DD97402F0030296
:1059B000A40A42EA851204F03C0422431A7530BD61
:1059C000A0C20008024622230121014801F0E8BDDF
:1059D000BC75002010B5034600F11402002143F805
:1059E000041B9342FBD11A4600F65434002322F8DC
:1059F000023BA2424FF00001F9D142F20F72A0F82F
:105A0000543BA0F8563BA0F8583BA0F85A3BC0F8CE
:105A1000603BA0F8643BA0F8663BA0F8683BA0F8A8
:105A20006A3BA0F86C3BA0F86E3BA0F8703BA0F876
:105A3000723B00F5B553A0F85C2B80F8741B80F81E
:105A4000751B80F8761B80F8771B80F8781B80F830
:105A5000791B80F87A1B00F67C321C33002122F877
:105A6000021B9A42FBD110BD0023A0F8583BC0F89E
:105A7000603B80F8753B80F8763B80F8783BA0F877
:105A80005A3B42F20F73A0F85C3B70472DE9F04F90
:105A9000BDF82440BDF92CC0BDF92880324DA71CAB
:105AA0000134BFB2A4B24FF0000ECCF100095FFA8E
:105AB0008EFABE1E9245B6B253DA00EB410ABAF82E
:105AC00014B0ABEB080B0FFA8BFBCB454FEAE60AA1
:105AD00006F0070611DA15F806B013F80A6026EA90
